:1000000001000000000000A0000200000AB6BD1BB5
:100010001CF09FE51CF09FE51CF09FE51CF09FE5A0
:100020001CF09FE51CF09FE51CF09FE51CF09FE590
:10003000021C0F13D0200000482000004C200000BC
:10004000A4200000A8200000AC200000B020000088
:10005000BC200000000000EAE50600EA28008FE26C
:10006000000C90E800A08AE000B08BE001704AE24A
:100070000B005AE1DE06000A0F00BAE814E04FE276
:10008000010013E303F0471013FF2FE100A002006B
:1000900030A002000030A0E30040A0E30050A0E345
:1000A0000060A0E3102052E27800A128FCFFFF8A44
:1000B000822EB0E13000A128003081451EFF2FE1E3
:1000C00004309FE503308FE013FF2FE1E91D0000AE
:1000D0000F480121490341610E4901610E49416107
:1000E0000521016170470D48802110B502F0A6E896
:1000F0000B48582102F0A2E80A4800210A0006C075
:1001000020210748583002F09AE8002010BD000076
:1001100080290080070000FF10200000BCB302000F
:10012000CC0400040C000004F0412DE90040A0E3E1
:100130000160A0E37C809FE57C709FE5060000EAFB
:10014000845188E0040095E5649A00FA040095E57E
:100150001600A0E1080087E5014084E2841198E7D9
:10016000000051E3F5FFFF1A0000E0E30C0187E512
:1001700048809FE50040A0E3060000EA845188E043
:10018000040095E5559A00FA040095E51600A0E1F3
:10019000080187E5014084E2841198E7000051E3FB
:1001A000F5FFFF1A00000FE1BF0000E200F021E1BF
:1001B0000000A0E3F081BDE814000004009000A856
:1001C0003400000453480422062102704170027278
:1001D000417270474F48F8B500241838046000F0A9
:1001E000D2F903F04FF94C490D5C0CF00BFB2900E0
:1001F00002F028E8494E2300320002F028E8401CB3
:10020000614105042D0C03F03DF94549F85C225984
:1002100001000000FC0100A000020000CE6362307B
:1002200040000F5A10F0E6FF390002F016E82300F4
:10023000320002F016E8401C61410004000C290065
:1002400000F0BAF903F028F93B490D5C0CF0E4FA30
:10025000290002F002E82300320002F002E8401C0C
:10026000614105042D0C03F017F934490F5C0CF0C3
:10027000D3FA390001F0F0EF2300320001F0F0EF83
:10028000401C61410004000C290000F0ACF908207A
:1002900000F098F90CF0C0FA310001F0E6EF401CD4
:1002A0000004000C00F097F90CF0B6FA052101F0FB
:1002B000D4EF234A230001F0D4EF192280186141C2
:1002C0000006000E00F095F9601E0FF045F9FF24BE
:1002D000641C200010F00EF8200010F013F80FF04E
:1002E000F7F80FF019F9402012F0CEFB00F0B4F946
:1002F00000F0A0F90C200CF0E7FAC0200CF0E4FAB2
:100300000FF088FF0FF0AAFF0FF0CAFF0FF09AFF5F
:1003100030200CF0D9FA032000020CF0D5FAFFF7D8
:100320005BFF00F081F8F8BD780600B0C8860200D7
:1003300040420F00B2860200DE860200D386020031
:10034000C0C62D0010B500F01DFB002010F010FA03
:1003500000F03EFA002000F0D6F900F0D5F9304C5C
:100360002068002801D000F0F4F900F07CFA00F0D9
:10037000A9FA2068002803D000F07AFA10F0F4FC03
:1003800000F074FA12F08CFB002010BD10B500F0E4
:10039000D5FB01F06EEF04F0C1FB10F067FC00F03C
:1003A000A7FB002801D0012010BD11F0FBFD0020AB
:1003B00010BD10B500F0B4F9FFF716FF05200EF0E0
:1003C000AFFF002010BD10B511F03AFC10BD30B5E4
:1003D0009408002203E09300CD58521CC550A2425D
:1003E000F9D330BD9308002210B502E09400521CEE
:1003F00001519A42FAD310BD4B220A481202002141
:1004000010B5FFF7EFFF03220B2052020021000777
:10041000FFF7E8FF00F039FA00F06AF8A8A92EB952
:1004200001000000F80300A0000200003A8BDC8D00
:10043000002010BDF81200B0605E0004704700009C
:10044000084810B50168084B0A000C310800196013
:10045000111D59600D2101F01AEF0449022011F01D
:1004600081FD10BDD47400B0BC0600B0D5E700001B
:10047000F8B5002425001C48A70014266643C55182
:100480001A481421301801F0EEEE184814211430E7
:10049000301801F0E8EE154814212830301801F02A
:1004A000E2EE114830222838C159104862433C30EE
:1004B0001018C4608160456185610D49C5610161A5
:1004C0000C4901620C498562416201F0E4EE641C52
:1004D000012CD0DB0949082026F016FB0849FF2033
:1004E000401C8860F8BD0000681300B0F0A600B0A2
:1004F000D5770200D17802005D7402001176020007
:10050000009000A80F490E4810B508600F490E482A
:10051000086010490E48086010490F4808601149EA
:100520000F4808601048802101F09CEE0E488021A1
:10053000803001F098EE0D48802101F094EE10BD5E
:10054000C9F300008CA9000481F3000090A9000405
:10055000FDF2000094A900044054890084A900041D
:10056000A086010088A90004407500B0407600B064
:1005700010B5084C00206062DF200002E0620648EF
:10058000A06201210548490201F06CEE0120606281
:10059000002010BDC09B00A800ADDEEFC07600B00B
:1005A00052484068C168524A1143C160704700B563
:1005B000FFF7F6FF4D48406841680122520211439F
:1005C00041604168D2001143416000BD090401430C
:1005D000464840688161704744494968CA681204C6
:1005E000120C00040243CA607047404949684A69D6
:1005F000120C120402434A617047090401433B484C
:100600004068C1637047394949684A68120A120252
:1006100002434A607047354840680169012212046C
:1006200011430161704731484068C030B90824ABBC
:1006300001000000F40500A000020000237302FD89
:100640000168402211430160704770472C484068A0
:10065000C0304168372211434160704728484068E4
:10066000FF30413041681D2291434160704724486A
:100670004068FF30413041681D221143416070479E
:100680001F484068FF304130416802229143416079
:1006900070471B484068FF304130416802221143D7
:1006A0004160704716484068803041680622914397
:1006B000416070471248406880304168062211430B
:1006C000416070470E4A52688032536A09011B0F1D
:1006D0001B0709090B435362116A4003C90CC90483
:1006E000400B0143116210681F2109048843012156
:1006F00009054018106010684900084310607047F1
:10070000C40600B08F03000001210920000701602A
:10071000002141607047694801210160002141606A
:1007200070476748016B802211430163704770472F
:10073000644800B50068002803D0FFF7E5FFFFF725
:10074000F0FFFFF7E8FF00BD10B504F0A7FAFF289F
:1007500012D05D4B80069969800E0F22D20591431D
:10076000020752090A439A61574A403211683023FE
:10077000994318400843106010BDFF2310B5C133E2
:10078000202402F09DFE052803D002F099FE0128E6
:1007900001D101235B02210018000EF0F5FD10BD10
:1007A00010B54A4C207900280BD10120207127F088
:1007B000FDFD062010F020F9C006C00F607127F083
:1007C00027FD607910BD10B50400FFF7E9FF3E4931
:1007D00080390A0D0028886808D0104388603C4999
:1007E0008868120210438860002002E0904388600D
:1007F00020000FF0EEFF10BD70B510F02FF810F0D4
:100800005BF90EF00BFA7D24E4010021200010F0CA
:100810005FF90021200010F061F90021200010F0A4
:10082000F9F90021200010F0FBF92A4C02212000E8
:1008300010F054F90221200010F0F2F9297B237105
:1008400001000000F00700A000020000D79BBC40A0
:10085000214D264C2868002804D020680121C905B4
:10086000884320606068224908406060E068172182
:1008700049020843E06010F0E3F92168C2061D4810
:1008800001D5014300E08143626862602160216814
:10089000014321602868002802D0B520FFF79DFFA2
:1008A00070BD7047704770477047704710B510F0C3
:1008B000C5FC0B4C002802D010F0CAFC01E010F07F
:1008C000D9FCE06010BD0D490B480860704700007E
:1008D000003000A8400C0090F81200B00029008001
:1008E000CC0600B040230080409C00000021008026
:1008F000FF7FFF7F00000020FDF30000280800B00C
:100900002C4810B50068002822D027F059FD00F0CF
:1009100020F82021192010F085F80221162010F06F
:1009200081F83721332010F099F89421242010F019
:1009300095F80221262010F091F86621412010F050
:100940008DF827F06FFC0FF023FF64200EF086FD7A
:1009500010BDF8B5184800680002000F082828D11B
:10096000164C6069E50428436061606940004008F6
:10097000606120680826304320602068EF12B84389
:1009800020604821452010F069F80421482010F02B
:1009900065F82068304320602068384320603220AA
:1009A0000EF05CFD606928436061606921050843C1
:1009B0006061F8BDF81200B00020008000280080BF
:1009C000F8B5504C504D2068002804D0E817286036
:1009D00068600FF06DFD4D4F386A40004008386286
:1009E0004B48072101610521416106218161494987
:1009F000002088600B20484A0007C90B0368401894
:100A00009042FBD30020026840188842FBD30120AB
:100A1000800600682068002872D027F0D1FC27F0FB
:100A200001FC3948416B020D1143416301686F229B
:100A300091430160C16889098901C1603748416AF1
:100A4000702291434162816991438161C8C954AA6E
:100A500001000000EC0900A0000200001082BE1D91
:100A6000816A020C1143816210F0F4F881070DD500
:100A70003049CA68120109D5CA680F231B059A4379
:100A8000CA60CA6807239B051A43CA602849032223
:100A9000294E0507803912020F23002D17DA45066B
:100AA00010D4830724D433680225AB4333600B6929
:100AB00093430B610A69AA430A610A690D231A4329
:100AC0000A6115E0850713D4450611D407E04506F1
:100AD00001D4850703D50D6915430D6105E00D6946
:100AE00095430D610A691A430A61316819433160FF
:100AF000800605D40949C868192292039043C8604A
:100B00002068002806D0012040047862801CB8626A
:100B10000A48F8620020F8BDF81200B000210080F9
:100B2000C0900090000800A800230080000001B0E1
:100B300000290080802F00808027008002020200B0
:100B400000B50D49002087B00860020001001E209A
:100B500003AB07C302000948FF21491C6B4607C3CA
:100B6000A838074A002307A101F0B6EB0006000EE3
:100B700000D0012007B000BD580700B0187A00B0BF
:100B80000144000049646C650000000010B5FFF7E7
:100B90008DFC0DF01DFA11F005FC11F091FB11F028
:100BA000D3FB10BD11483C2110B501F07AEB0F4882
:100BB000104A42600E49104A016082608161002142
:100BC000016201630D4A4163C262816300F060FB10
:100BD0000B4C0C48EE22210001F082EB09480A4B35
:100BE0000422210001F080EB10BD0000000000B0E5
:100BF000BD2D0000AD2B00006D3000007DB6000063
:100C0000DC050000E0AD02005FF2F303F8B5C74D6C
:100C100028680C2188432860C54CE068A10C084373
:100C2000E060E068072149020843E060E0680121D4
:100C300009060843E060E06880098001E060E06840
:100C400009148843E060E06809018843E060E068D7
:100C50004F03B843E060E0680721C9060B305C64CD
:100C600001000000E80B00A000020000E46A00A000
:100C70008843E060E068F9100843E0602068B2490A
:100C8000084320607D20002140020FF03FFF7D26B9
:100C9000F601002130000FF0DBFF002130000FF0E3
:100CA0003BFF002130000FF0D9FFA848016A102651
:100CB0003143016228680C21884328606868610517
:100CC0008843686010F042F8A868E1040843A8600F
:100CD0002869032109068843286128693843286167
:100CE0009B49486800204860486819221206104352
:100CF000486097488030036840229343036003684C
:100D00000F273F02BB430360036803277F023B4377
:100D1000036003680F273F03BB4303600368032797
:100D20007F033B43036003681B091B0103600368E7
:100D300006273B4303602868104328602868302357
:100D400098432860286830432860086801231843C6
:100D500008600868B8430860E068090D0843E0606F
:100D6000A06A1043A062180010F066F9794908687B
:100D7000794A10430860734880308168774A11408F
:100D800081608168D2431143816001200EF07AFBBB
:100D9000F8BD10B50CF076FF7149088071487249B2
:100DA000000C00040860724970480860724971487C
:100DB0000860734971480860734972480860744953
:100DC0007248086074497348086075497348086040
:100DD00075497448086076497448086076497548D2
:100DE000086077497548086077497648086078490F
:100DF00076480860784977480860794977480860FC
:100E00007949784808607A49784808607A49794889
:100E100008607B49794808607B497A4808607C49CA
:100E20007A4808607C497B4808607C487C490860B7
:100E30007D497C4808607E497C4808607E497D4841
:100E400008607F497D4808607F497E480860804986
:100E50007E48086010BD0121080010B50AF01AF99B
:100E600002F04CFB7B494000085A7B49569931FB04
:100E700001000000E40D00A000020000FD92DED0A1
:100E8000086000F05BFA022101200AF00DF9FFF77B
:100E9000D1FE032101200AF007F900F0DDFA042158
:100EA00001200AF001F9FF22714919321C2001F0DA
:100EB00034EA052101200AF0F7F8062101200AF0A2
:100EC000F3F8FFF770FF072101200AF0EDF86949F8
:100ED000E1204002086025F08FFE082101200AF081
:100EE000E3F864490422072025F04EFF0921012080
:100EF0000AF0DAF8604800210A0006C05E4A5F493D
:100F00005F48604B01F00CEA0A2101200AF0CCF89E
:100F100000F022FA0B2101200AF0C6F800F06EF969
:100F20000C2101200AF0C0F800F0AEF80D210120DC
:100F30000AF0BAF80E2101200AF0B6F8002010BD20
:100F400010B500F019FA00F0E9FA00F05BF90020A2
:100F500010BD0000002F00800021008000081C2030
:100F6000002800808026008040230080088902003D
:100F7000FEFFFFFB40AD0004DC1C00B034AF0004FA
:100F80009BB80000D8A9000465670000C8A9000448
:100F9000A5670000CCA90004B7670000D4A900042D
:100FA000BD670000D0A9000495BD000018AB000487
:100FB00035B900001CAB000419B9000020AB0004D7
:100FC0009DB8000024AB0004D550000054B00004CC
:100FD000ED50000058B00004015100005CB0000466
:100FE0003540000050B000047DBC000028AB000478
:100FF0002DBC00002CAB000497BD000038AB0004F2
:10100000ABBD00003CAB0004AFBD000040AB000432
:101010009DBC000008AB00047DBD00001CB50004B1
:10102000D9A7000018AA0004CF11010030AB0004BA
:10103000CD11010034AB000455A7000010AA000434
:1010400005A7000014AA000479A900000CAA000456
:10105000B9AA000008AA0004D1DE000000AB000419
:1010600089DE000004AB00049C860200E8A90004AD
:10107000B8250004F0A90004600700B0F59FF589C9
:1010800001000000E00F00A000020000097A606D7E
:10109000B81B0000000A0004000600B00449034821
:1010A00010B54860080010F0ADFF10BD45E7000026
:1010B000840700B0114910480860124910480860C0
:1010C0001249114808601349114808601349124831
:1010D000086014491248086014491348086015490B
:1010E00013480860154914480860164914480860F8
:1010F0001649154808607047D5A80000CCB3000415
:1011000029A80000BCB3000461A80000C0B300041B
:101110006DA80000C4B3000499A80000C8B300047F
:1011200031A90000DCB300044DA90000E0B30004C5
:10113000D9A80000D0B30004F5A80000D4B300047F
:1011400065A90000E4B300041DA90000D8B30004A1
:1011500010B50124A4021F48EE22210086B001F040
:10116000DEE821F0FDFA012200210C2003AB07C3C9
:101170000200184802920090174A0019002317A194
:10118000019401F0C8E800281DD1194815A101F00B
:10119000D6E818481A4A0168174881601749016162
:1011A000002141618261174AC161026241621649B0
:1011B000816201F0ACE8002805D11449112025F026
:1011C000DFFC002802D0012006B010BD00F03EFC7C
:1011D0000020F9E7782E0004519401004E66635414
:1011E00061736B004E6663466C61677300000000BC
:1011F00020330004E00700B0408E00B03F1D020025
:10120000C92F02004D580200E1F20100E51F010064
:1012100006490020088070470649054808600749CC
:10122000054808600749064808607047809000B08C
:1012300041F100002CBB000411F1000028BB0004A8
:101240008DF0000024BB000410B500F095FE1B4C8F
:101250006060A168002904D0491CA16000F090FEE4
:1012600010BD002101200EF0E3F8A068401CA06032
:101270000020C04320610020E06011480168820B1B
:101280001143016010490F480880091FDC02A19F2B
:1012900001000000DC1100A0000200007761C7DD42
:1012A000088003F077FE10BD10B5094CA068012836
:1012B00002D9401EA06010BD03F050FE0020A060C7
:1012C00001200EF07DF8606800F064FE10BD0000A3
:1012D000C8A0020000210080FFFF0000500600901F
:1012E0000F490E48086010490E48086010490F4821
:1012F000086011490F488968086011490F48086063
:1013000011491048086012491048086012491148F4
:10131000086013491148086070470000D97B00003D
:10132000ECB60004F17B0000F0B60004A17B0000E5
:10133000E0B60004600E00A9300800B0257D000072
:101340002CB70004FD7B000000B70004157C0000F2
:1013500008B70004E57C000020B70004081000A9CD
:10136000A4B0000470B500240B4D04E0401940689F
:1013700025F010FC641CE00029580029F6D170BD4E
:1013800006488168FF22521C114381608168102247
:101390001143816070470000480800B0009000A829
:1013A00010490F4810B5086010490F4808601149EE
:1013B0000F480860114910480860FFF785FE00F0EB
:1013C00061FB00F0C3FB0F490D4808600F490E4850
:1013D000086000F0C2EF0F490D48086010BD000022
:1013E0002FE6000050B4000425E6000048B40004D5
:1013F0002DE600004CB40004655C00004CB3000412
:10140000E1AA000068B70004C9AD00006CB7000491
:1014100011A40000E8BA0004F7B5012082B00D0065
:1014200001900888460826F0A9FF710002980F0075
:101430000FF036FB012409E0029A6000295A801857
:10144000801E0004000C0FF02BFB641CB442F3DD83
:101450007819418802980FF023FB26F0F5FE26F05C
:10146000B7FF49200FF004FB04990842F9D00006A9
:1014700001D50020019026F0F7FE019805B0F0BDDF
:101480002B4970B548680E0C3043486026F0A0FF29
:1014900009200FF0EDFA0C2101430920D0E4E72EDA
:1014A00001000000D81300A00002000083897960C9
:1014B0000FF010FB15200FF0E5FABF2101401520B9
:1014C0000FF008FB4A200FF0DDFA0621050001436A
:1014D0004A200FF0FFFA002447200FF0D3FA641CD3
:1014E0000A2CF9DB2900F92001404A200FF0F2FA1A
:1014F00049200FF0C7FA1021014349200FF0EAFA02
:1015000000200FF0BFFA1049087001200FF0BAFA5E
:101510000E49087026F0B2FE0D4920223000FFF778
:1015200085FF002807D01F200A494022C002FFF78C
:101530007DFF002800D1FEE700F08AFA01200FF0BD
:1015400031F870BD40230080910000049200000437
:10155000DC1C00B07C1300B08D498C4810B50860CD
:101560008D498C4808608E498C4808608E498D48AA
:1015700008608F498D4808608F498E4808609049FF
:101580008E48086090498F48086091498F480860EC
:1015900091499048086092489049C164924AC1625A
:1015A00090491160924A91491160934A91491160A2
:1015B000934A92491160944A92491160944A93491E
:1015C0001160954A93491160954A94491160964A71
:1015D0009449116095490022964B8A71944919608B
:1015E000954B01219977964B944919609549964BF3
:1015F0001960974B95491960974B96491960984B1C
:1016000096491960984B97491960994B9749196009
:10161000994B984919609A4B984919609A4B994986
:1016200019609B4B994919609B4B9A4919609C4BD7
:101630009A4919609C4B9B4919609C4901619D4BDB
:1016400001629B4919609C499D4B0A779B4919602F
:101650009D4B9C4919609E4B9C4919609E4B9D492E
:1016600019609F4B9D4919609E4B052119709F4B36
:101670009D4919609F4B9E491960A04B9E49196076
:101680009F49A04BC14C1960A04B9F491960A14BC9
:101690009F491960A14BA0491960A24BA04919604C
:1016A000A1498164A24B8162A049196004205AC0FB
:1016B00001000000D41500A0000200009A71A710DC
:1016C000A149A34B4163A1491960A34BA1491960EA
:1016D000A34BA2491960A44BA2491960A44BA3498A
:1016E0001960A449A54B4165A3491960A54BA449BC
:1016F0001960A64BA4491960A649A54B0B62A64BDD
:101700004B62A64B2360A84CA64B2360A84CA74B6A
:101710002360A94CA74B2360A94CA84B2360AA4C7B
:10172000A84B2360AA4CA94B2360AA4BAA4C236068
:10173000AB4CAA4B2360AC4CAA4B2360AC4CAB4BDC
:101740002360AD4CAB4B2360AD4CAC4B2360AE4C37
:10175000AC4B2360AE4CAD4B2360AF4CAD4B236024
:10176000AE4B8B60AE4BCB61AF4BAE491960AF490E
:1017700041614162AF49AE480860B049AE48086077
:10178000B049AF480860B149AF480860B149B048B6
:101790000860B249B0480860B148027010BD00004E
:1017A0003998000070BB00041956000078B200049C
:1017B000E1850000D4B90004937B000060B7000409
:1017C0008B7B00005CB70004918300007CB90004AF
:1017D0002197000000BB000449860000D8B900042E
:1017E000FD81000038B900044D70000054B50004BC
:1017F000B16B0000B4AF0004958D0000F8B900048F
:10180000619700006CBB0004DD6C000040B5000473
:101810000176000090B60004A1530000F0B100046E
:101820002D810000FCB70004F9840000ACB900046D
:10183000B161000010B500049984000080B9000473
:1018400040AD0004355D00005CB3000440AA000414
:10185000B57E000094B700045D7E000090B70004E0
:10186000917F00009CB70004917D00008CB70004BC
:10187000495D000038B6000409580000D4B20004E5
:10188000315F000080B3000449610000A0B400048F
:10189000ED93000098BA000425850000C8B9000443
:1018A0007556000088B2000499850000CCB9000488
:1018B000015A0000E0B20004A165000003277C0883
:1018C00001000000D01700A0000200006E9919ADC1
:1018D000A8B500045D790000417A0000A8B60004B4
:1018E000800800B041790000A0B60004496D0000F6
:1018F00054B6000499A5000088BB0004557D000083
:10190000A8AA000479530000ECB1000465AA000401
:10191000C5990000D0B90004515A000004B3000476
:10192000658E00005CBA000461610000A8B4000488
:10193000BD650000ACB5000425650000A0B500043D
:10194000216400007CB50004D198000068B900044F
:1019500001680000D571000060B60004C567000092
:1019600069A400004CB900045981000060B800046B
:10197000E58E000064BA000401940000E4BA00049B
:10198000C1780000BCB500040D6C00005D5D000076
:101990006CB30004BD9D0000E4B90004D19D0000BB
:1019A000F4B90004C35E000054AD0004B95E000049
:1019B000616200004CB60004B1990000A8B90004AF
:1019C000C99E000084BA0004F955000000B200046A
:1019D000C58D000048BA0004B1810000F0B80004D1
:1019E00091800000E8B70004D9960000FCBA00041A
:1019F0004973000088B60004AD5A000014B3000417
:101A00009D6F000058B60004A57100005CB600048C
:101A100029660000CCB50004899D0000DCB90004F3
:101A20005D7200006CB60004095C000028B300047D
:101A3000195C0000755D000065660000D8B5000403
:101A40004D7B0000A563000068B6000435730000FC
:101A500084B600046577000094B60004D5750000D4
:101A60008CB60004A959000058AC0004119900007C
:101A700078B9000490AD0004054810B5007810282E
:101A800004D1044904484C2226F050FE10BD000049
:101A9000920000049E000004CE010004054806499F
:101AA00010B50078097800F08DF804480068804788
:101AB00010BD0000004000AA004000AADC010004A4
:101AC0001649154808601749154808605E6B026B97
:101AD00001000000CC1900A000020000A9801BF04A
:101AE00017491648086018491648086018491748E9
:101AF00008601949174808601949184808601A49C8
:101B0000184808601A49194808601B4919480860B4
:101B10001B491A4808601C491A4808601C491B48A0
:101B200008601D491B48086070470000B15F000055
:101B300000B40004895F0000F8B300049D5F00005A
:101B4000FCB300045960000004B400048560000088
:101B500014B40004A160000018B40004B5600000D3
:101B60001CB400047160000010B40004F5A500006E
:101B700008B40004616000000CB40004755F00004C
:101B8000F4B30004615F0000F0B30004C9A50000D5
:101B900094BB0004B5BD000090BB00040749064893
:101BA000086008490648086008490748086009496C
:101BB0000748086070470000E5340000F4B10004F5
:101BC0009166000000B600049F66000004B60004A1
:101BD00089660000FCB50004064808B5026800925A
:101BE000054A0649130008000C386C3300F0E0EB9E
:101BF00008BD00006C00000428C900B0101100B03E
:101C0000203052E20400005A203062E23002A0E1AB
:101C1000110380E13112A0E11EFF2FE13103A0E1A9
:101C20000010A0E31EFF2FE1194930B417220A600B
:101C300036224A60174A184C0021030C8D001B18ED
:101C40005351164B491C584300193729F5DB30BC5A
:101C500070470120E8E770B40D4C0E4D60682168B4
:101C600083008E00EA58AE59491E401E9219EA5070
:101C700036230029216002DA2360606003E0002837
:101C8000606000DA6360500070BC4008704700007C
:101C9000F01200B0B4A500B0E119D666CD0D010078
:101CA00010B4042A0ED303000B439B070AD108C8C3
:101CB00010C9A34202D1121F042AF8D2A34201D0B4
:101CC000001F091F002A02D1002010BC7047D30753
:101CD00001D0521C05E003780C78401CEE713C7377
:101CE00001000000C81B00A0000200005D68A54DB7
:101CF000491CA34207D103780C78401C491CA3421D
:101D000001D1921EF1D1181BE9E700000000A0E10B
:101D1000230000EB03002DE9830000EB0300BDE886
:101D20004B0000FA0F002DE9820000EB0F00BDE828
:101D30001CC09FE50FC08CE001001CE30DE08F127A
:101D40000FE0A0011CFF2FE101C08FE21CFF2FE17B
:101D500000F01CF82906010001402DE90000A0E177
:101D60006A0000FA0140BDE8000000EA0000E0E37C
:101D70000000A0E10C109FE51800A0E3563412EF1C
:101D80001EFF2FE1C40100002600020010B5C0466E
:101D9000C0460400C046C0462000FFF7DEEF10BC7E
:101DA00008BC18470E40A0E1670000EB04E0A0E18A
:101DB00001402DE97C0000EB0040A0E10140BDE8BE
:101DC00013402DE90100A0E3121DA0E3081084E5F3
:101DD000000084E51340BDE80010A0E1040084E5A4
:101DE0000EF0A0E110402DE903002DE96E0000EB9C
:101DF0000040A0E10300BDE8042094E50D30A0E11F
:101E000000E082E003005EE1002081E50B00008A33
:101E10000E3093E0011A8EE26330A0E1071081E2F8
:101E20000730C3E30710C1E3030051E10310A081B1
:101E3000041084E51040BDE8020041E01EFF2FE1E0
:101E40000020A0E10000A0E30000A0E11040BDE8F8
:101E50001EFF2FE1F0B585B0C046C04605000C005E
:101E600026F0A4EC002001950294C046C0460390E1
:101E700001A8FEF7B2E9040001A80D00009303C811
:101E80001600C046C046C046C046FFF7ECFE002123
:101E90000800C046C046070000F090E8049000210A
:101EA00007600800C046C046411C049841600021FC
:101EB0000800C046C0460100049881600021080067
:101EC000C046C04601000498C16000210800C04619
:101ED000C046010004980161C046C046C046C046E5
:101EE000C046C046C046C046C046C046B90C977FF3
:101EF00001000000C41D00A00002000044907B3DD2
:101F0000C046C046C046C046C046C046C046C046A1
:101F1000009B05B02000049C29003200A646F0BCBE
:101F200001B0704710B5C046C0460020C046C0464C
:101F3000C046C046C046C04610BC08BC184700009A
:101F40000000E0E30210E0E31EFF2FE110402DE966
:101F50000000A0E11040BDE81EFF2FE11EFF2FE1B1
:101F60000E50A0E11F0000EB05E0A0E10050A0E151
:101F70000700C0E30D10A0E10A30A0E100D0A0E10D
:101F800060D08DE220402DE9E32700FA2040BDE833
:101F90000060A0E30070A0E30080A0E300B0A0E335
:101FA0000710C1E305C0A0E1C009ACE8C009ACE876
:101FB000C009ACE8C009ACE801D0A0E11EFF2FE1E8
:101FC00004009FE51EFF2FE11EFF2FE1A0A600B039
:101FD00004009FE51EFF2FE11EFF2FE1B0A600B019
:101FE00010B410BC7047000000009FE51EFF2FE1F9
:101FF00090A600B004009FE51EFF2FE11EFF2FE119
:1020000094A600B010B500F0ECE910BD802810B522
:1020100002D100F0E6E910BD00F0E6E910BD10B510
:10202000040000F0E6E9206010BD000070109FE59C
:1020300070402DE9004091E500000FE1BF0000E293
:1020400000F021E15C609FE5020014E30600000A55
:102050000000A0E3100081E54C2096E50010A0E10F
:102060000100A0E332FF2FE10240C4E30050A0E3EF
:10207000070000EA010014E305219617000052133F
:102080000410A0110500A01132FF2F11A440A0E1FF
:10209000015085E2000054E3F5FFFF1A0000A0E3C1
:1020A0007080BDE8009000A8BCB30200913082E0CF
:1020B0000300A0E10210A0E11EFF2FE100A00047F5
:1020C00054129FE524229FE5DB00A0E300F021E10C
:1020D000021081E00310C1E3041041E201D0A0E14D
:1020E00000A0A0E300B0A0E304229FE5D100A0E39C
:1020F00000F021E1021081E00310C1E311EE1E792E
:1021000001000000C01F00A000020000B078C580E0
:10211000041041E201D0A0E1EC219FE5D200A0E350
:1021200000F021E1021081E00310C1E3041041E25C
:1021300001D0A0E1D300A0E300F021E1BC319FE594
:10214000001083E5B4119FE5000091E5040080E2F2
:10215000BC219FE5000082E5D4219FE5D4019FE5E5
:102160002C0082E50700A0E3300082E50900A0E32F
:10217000000082E50B10A0E3101082E50130A0E31F
:10218000243082E5283082E5AC219FE51030A0E3C1
:10219000083082E51EFF2FE10EF0B0E1FF402DE98F
:1021A00000004FE101002DE990119FE5002091E52D
:1021B0001F2002E288319FE5823193E70FE0A0E122
:1021C00013FF2FE178019FE50810A0E3920102E0E0
:1021D0000410A0E3012082E0021090E724209DE596
:1021E000012082E024208DE50100BDE800F069E1D6
:1021F000FF80FDE8FEFFFFEAFEFFFFEAFEFFFFEAC9
:10220000810000EAFFF71CEF4F480047FF402DE92F
:102210000E00A0E1F40400FAFF40BDE804F05EE225
:1022200024019FE50010E0E3001080E5001090E538
:1022300004619FE50235A0E3083186E50C019FE5C6
:10224000100F01EE08F19FE5900F07EE1EFF2FE142
:10225000E4009FE50010E0E30C1080E5D8009FE566
:10226000F0109FE5081080E5EC009FE5001090E578
:10227000081081E3001080E5001090E5081011E2DD
:10228000FCFFFF0A900F07EE1EFF2FE1100F11EE6B
:102290001EFF2FE1100F01EE1EFF2FE1010050E2A3
:1022A000FDFFFF1A1EFF2FE1B0109FE5A520A0E360
:1022B0000000A0E3040081E4012052E2FCFFFF1AC9
:1022C0009C009FE59C109FE5001080E598009FE52D
:1022D00098109FE5001080E594009FE594109FE51D
:1022E000001080E51EFF2FE100000FE11F0000E25B
:1022F000120050E30100A0030000A0131EFF2FE115
:10230000ACBD000410000000000200003A64461E4C
:1023100001000000BC2100A000020000B8A7345D4D
:1023200000040000E00300009CBD000401C05EE565
:102330000C0053E10330DE370C30DE2783C08EE023
:102340001CFF2FE13CB40200009400A83F1F0000D6
:10235000009000A8B0380080C07600B00016F003EE
:10236000002100807C1700004400000002004000B3
:10237000C42000806CBD0004F4BD0004811F000077
:10238000F8BD00041D860200FCBD0004B52000005D
:1023900004F01FE54038F40304F01FE5D03AF403DD
:1023A00004F01FE52C33F40304F01FE53041F4037F
:1023B00004F01FE5015EF00304F01FE59438F40318
:1023C00004F01FE5D573F00304F01FE57D46F0032C
:1023D00004F01FE5F836F40304F01FE587F2F30379
:1023E00004F01FE5FD7DF00304F01FE5DB80F00342
:1023F00004F01FE5A131F00304F01FE57D93F00325
:1024000004F01FE5015FF00304F01FE58C17F003F3
:1024100004F01FE5A017F00304F01FE5114DF003D1
:1024200004F01FE51817F00304F01FE5EB0BF403AD
:1024300004F01FE5B50CF40304F01FE5DB0CF40316
:1024400004F01FE5830CF40304F01FE5AF0BF40365
:1024500004F01FE5A141F40304F01FE50375F00348
:1024600004F01FE57905F40304F01FE56542F40369
:1024700004F01FE53D42F40304F01FE54708F403B0
:1024800004F01FE5FB07F40304F01FE52108F40343
:1024900004F01FE5FB08F40304F01FE5D907F4037B
:1024A00004F01FE50837F40304F01FE59F5FF00315
:1024B00004F01FE51998F00304F01FE583ECF30323
:1024C00004F01FE575ECF30304F01FE567ECF3037C
:1024D00004F01FE5457EF00304F01FE5637EF00382
:1024E00004F01FE555ECF30304F01FE50FDBF003E8
:1024F00004F01FE559ABF00304F01FE5039CF00363
:1025000004F01FE54D41F40304F01FE537ACF00380
:1025100004F01FE50BAAF00304F01FE525354D6B11
:1025200001000000B82300A0000200004C4F8AE028
:10253000E43AF40304F01FE54B7EF00304F01FE5DA
:10254000939FF00304F01FE5558CF30304F01FE59F
:10255000E99CF30304F01FE51B99F00304F01FE569
:102560009398F00304F01FE5D79EF30304F01FE5F2
:102570008513F40304F01FE5E58BF30304F01FE576
:102580004BADF30304F01FE54DADF30304F01FE57D
:102590007B8CF30304F01FE5CDA1F00304F01FE5ED
:1025A0008532F00304F01FE55C39F40304F01FE505
:1025B0001F9EF30304F01FE50D80F00304F01FE5F8
:1025C0002580F00304F01FE5038CF30304F01FE5FE
:1025D000CD8BF30304F01FE5976AF20304F01FE5C7
:1025E0001970F20304F01FE5D764F10304F01FE54E
:1025F0001F6AF20304F01FE5550BF30304F01FE517
:10260000970BF30304F01FE58B0BF30304F01FE5B6
:102610001D4FF20304F01FE5A119F00304F01FE5BC
:10262000997AF00304F01FE54149F40304F01FE533
:1026300033C5F30304F01FE5D128F20304F01FE5CE
:10264000E9D9F00304F01FE5BFB3F20304F01FE57E
:10265000DB24F10304F01FE50BB8F00304F01FE5E1
:10266000C3ABF00304F01FE585B9F20304F01FE5E6
:10267000ABB9F20304F01FE5FD56F30304F01FE5C8
:10268000CB1BF30304F01FE51DF8F10304F01FE575
:10269000D3C0F20304F01FE57FBAF20304F01FE594
:1026A0001B69F10304F01FE595BAF20304F01FE57E
:1026B0009FC3F20304F01FE5DC37F40304F01FE5C9
:1026C0005DD1F10304F01FE58353F10304F01FE52E
:1026D00035B5F20304F01FE54927F20304F01FE5C6
:1026E0000118F20304F01FE5A114F20304F01FE542
:1026F0002553F20304F01FE54150F20304F01FE5F7
:10270000EF39F10304F01FE5D9A5F20304F01FE54A
:10271000F797F20304F01FE5F187F20304F01FE5D9
:102720009584F00304F01FE5EB86F003470EEEE915
:1027300001000000B42500A00002000055B754902D
:1027400004F01FE52186F20304F01FE513AAF2034B
:1027500004F01FE59F76F20304F01FE52D8CF203D1
:1027600004F01FE54F89F20304F01FE511ACF203FA
:1027700004F01FE5F38CF20304F01FE59DB3F203B0
:1027800004F01FE5C5B9F20304F01FE50D8CF30357
:1027900004F01FE52384F00304F01FE59913F3030D
:1027A00004F01FE565D0F00304F01FE5412AF303B0
:1027B00004F01FE55B34F30304F01FE5B34DF303AE
:1027C00004F01FE5AB48F30304F01FE5F384F303C3
:1027D00004F01FE5539CF30304F01FE5DFB6F2039A
:1027E00004F01FE543A4F30304F01FE585A2F303FF
:1027F00004F01FE59FA3F30304F01FE587CBF30369
:1028000004F01FE5CBC6F30304F01FE5DFC0F303BC
:1028100004F01FE50FA4F30304F01FE573C4F303F2
:1028200004F01FE5B9DDF30304F01FE5FFDAF3035D
:1028300004F01FE51FDBF00304F01FE595ABF00388
:1028400004F01FE5C9ADF30304F01FE5D35BF20309
:1028500004F01FE57BA4F30304F01FE549B9F3037B
:1028600004F01FE58FC0F30304F01FE5C9BEF303B6
:1028700004F01FE5650BF30304F01FE521ACF3033F
:1028800004F01FE5C7EBF30304F01FE5DFA7F30334
:1028900004F01FE523CFF30304F01FE54FA1F3037A
:1028A00004F01FE54DCDF30304F01FE5BBC3F303B4
:1028B00004F01FE549E0F20304F01FE53BA5F30334
:1028C00004F01FE509A4F30304F01FE5D9D1F303D5
:1028D00004F01FE5A5DEF20304F01FE535E0F20386
:1028E00004F01FE5B1DEF20304F01FE517DFF20389
:1028F00004F01FE521A1F30304F01FE5054FF203E7
:1029000004F01FE531A1F30304F01FE50DDDF3032F
:1029100004F01FE5E7B2F30304F01FE521B2F3036F
:1029200004F01FE50B0AF30304F01FE535B4F303CD
:1029300004F01FE5D5B5F30304F01FE55CA999E8A1
:1029400001000000B02700A000020000A15FEA2DF6
:1029500039A7F30304F01FE545F6F30304F01FE580
:102960000923F10304F01FE52312F20304F01FE52D
:10297000BF69F20304F01FE54134F10304F01FE5E1
:102980008169F20304F01FE5E111F20304F01FE591
:10299000E5BCF20304F01FE5293CF10304F01FE558
:1029A0009F69F20304F01FE52731F10304F01FE5EE
:1029B000258BF10304F01FE5558CF10304F01FE5AE
:1029C00001C4F10304F01FE51B0FF20304F01FE53F
:1029D00047DEF10304F01FE5170FF20304F01FE5D3
:1029E000210FF20304F01FE5FB0EF20304F01FE5D4
:1029F00063BCF10304F01FE54341F10304F01FE55C
:102A0000699DF20304F01FE5759AF20304F01FE5D7
:102A1000D97AF20304F01FE52582F20304F01FE5E2
:102A2000BD7FF20304F01FE53911F20304F01FE546
:102A3000DDA5F20304F01FE53195F20304F01FE574
:102A40000B0FF20304F01FE5110FF20304F01FE572
:102A5000FD1BF30304F01FE5CD5FF10304F01FE558
:102A60008F84F00304F01FE50F6DF20304F01FE5FF
:102A70003B97F30304F01FE54B8EF30304F01FE5CF
:102A8000EF9CF00304F01FE5FDF3F10304F01FE5F4
:102A9000711BF20304F01FE51919F10304F01FE59F
:102AA0006581F10304F01FE5251CF20304F01FE526
:102AB000C546F20304F01FE5C971F20304F01FE5F7
:102AC0004D11F20304F01FE5259DF20304F01FE50C
:102AD000A571F20304F01FE5A3A2F20304F01FE5C1
:102AE000E583F20304F01FE5398EF20304F01FE5DD
:102AF000578BF20304F01FE5A9A1F30304F01FE5CF
:102B00002380F30304F01FE511EFF10304F01FE548
:102B1000EDA3F00304F01FE5EF9FF00304F01FE5C1
:102B20008D9AF00304F01FE59D9AF00304F01FE571
:102B3000639AF00304F01FE5EB88F00304F01FE54F
:102B400015ACF00304F01FE58D9BF0038F410210DC
:102B500001000000AC2900A0000200006646E870F9
:102B600004F01FE5350FF40304F01FE57B11F403B7
:102B700004F01FE5556BF00304F01FE5CB74F00380
:102B800004F01FE56B74F00304F01FE55D11F4031E
:102B900004F01FE5E10EF40304F01FE56D6BF00394
:102BA00004F01FE5EB74F00304F01FE5736FF0030E
:102BB00004F01FE5A76EF00304F01FE5690EF403AF
:102BC00004F01FE5190FF40304F01FE5FF0EF403F2
:102BD00004F01FE55B75F00304F01FE5ED75F203EB
:102BE00004F01FE54780F00304F01FE53C39F403CF
:102BF00004F01FE5EF96F00304F01FE56575F003A0
:102C000004F01FE5C83AF40304F01FE58D01F10359
:102C100004F01FE5B742F40304F01FE5A533F00309
:102C200004F01FE55542F40304F01FE57543F20379
:102C300004F01FE5F582F10304F01FE5EDA6F003B3
:102C400004F01FE5D999F00304F01FE5FBDEF30360
:102C500004F01FE575DFF30304F01FE5BDB5F203D3
:102C600004F01FE50F9AF00304F01FE5319AF0031A
:102C700004F01FE5BD7EF00304F01FE5CF9AF003DA
:102C800004F01FE5B79CF00304F01FE5BB9EF003C2
:102C900004F01FE5C19DF00304F01FE56B9DF003F8
:102CA00004F01FE5459EF00304F01FE5019BF003CF
:102CB00004F01FE52B9CF00304F01FE50D4AF00320
:102CC00004F01FE5AD35F00304F01FE5F5B5F203A0
:102CD00004F01FE56571F20304F01FE56770F2036D
:102CE00004F01FE5296DF20304F01FE55F92F20383
:102CF00004F01FE58186F00304F01FE54987F00327
:102D000004F01FE54733F20304F01FE5F947F00331
:102D100004F01FE53743F40304F01FE51C39F40306
:102D200004F01FE5FB42F40304F01FE53394F003C5
:102D300004F01FE5A98FF00304F01FE5BF92F00334
:102D400004F01FE5D58FF00304F01FE58995F0032B
:102D500004F01FE5A817F00304F01FE5EBB8F60D2B
:102D600001000000A82B00A00002000092AE56CD8A
:102D7000B70EF40370B5040008000025E20704D084
:102D8000FFF784EB124911480860124800780128C7
:102D900019D1200702D500F01FF80500600602D502
:102DA000FFF778EB0500200602D5FFF778EB05006A
:102DB000A00502D500F06AF805006007800F02D078
:102DC000FFF770EB0500280070BD0000B1F10000B6
:102DD00064B700046CB000047FB525480078002873
:102DE00043D1FFF764EB00222248D2430021FFF7D2
:102DF00062EB214E1F2230600189520308181F49DF
:102E0000000C009008681E4D90430F22520380185A
:102E100008600A00A8692521FFF750EB68692521A1
:102E20006A46FFF74CEB154AA8692621FFF746EBE7
:102E3000144A68692621FFF742EB134CE0803068A2
:102E400000892081FFF73EEB60814004000C0021E7
:102E5000A0812180618031680A8901905118039115
:102E6000A8692C2101AAFFF72AEB002004B070BD4D
:102E700088B00004C80700B078B00004500000B06B
:102E8000AC0000B05C0000B0B00100B0FEB50024A2
:102E9000334E344D2721686901AAFFF710EB0198E2
:102EA000641CC00701D0B442F4D32F4C2F4E2088AD
:102EB000002822D130680027002803D02C49096857
:102EC000884737602B48FFF702EB002830600FD0AF
:102ED00001890A182849521E89788A18127812071F
:102EE000120F22806780E78000894018A0800DE0E3
:102EF00022490868401C086008E068692D216A467C
:102F0000FFF7DCEAE08800994018E080E1891C487E
:102F10000429218902D162898918FFE70268118199
:102F20002188002913D0016832680A60A088E288ED
:102F3000052380183268108168690122FFF7CAEA08
:102F40006088401C60802088401E208005E000686A
:102F5000018908186189FFF762EA0020FEBD0000C0
:102F6000FFFF0000AC0000B0B00100B0499C43E797
:102F700001000000A42D00A0000200008B5688BDB7
:102F80007CB0000484B000043C0000B0680000B0D5
:102F900090B0000478B0000470B504001A4D002011
:102FA000E20708D06868002802D1194A1748106063
:102FB0000800FFF79EEA1749097801291AD121076D
:102FC00004D515480078002815D00020610604D5E6
:102FD000124900200860FFF790EA210601D5FFF7AB
:102FE00090EAE10501D500F071F86107890F01D081
:102FF000FFF78AEA70BDFFF78CEA68680028E4D121
:1030000000F00EF8E1E70000AC0000B0B1F1000004
:1030100064B700046CB0000488B000042C0800B051
:103020007FB50022D24300212048FFF74EEA204E10
:10303000204D30600189204A0818000C0090E86893
:103040002521FFF746EA286925216A46FFF740EA6D
:10305000194AE8682621FFF73CEA184A2869262120
:10306000FFF736EA164CE080306800892081FFF7D0
:1030700034EA60814004000C0121A08121800021FC
:10308000618031680A89019051180391E8682C2108
:1030900001AAFFF71EEA0B48E1880088FFF7C0E9A4
:1030A0000949C870002004B070BD0000C80700B016
:1030B00074B00004AC0000B0500000B05C0000B080
:1030C000A00100B06EB00004680000B0F8B50024A4
:1030D000534D5448272100696A46FFF7FAE90098E2
:1030E000641CC00701D0AC42F3D34F4D4F4E6888EB
:1030F000F1784F4F4F4C88424BD1236824201881E0
:103100006888E988B2784843310080189880B078A0
:10311000F21C80180278F37812091B0712011B0FAA
:103120001A430270B0783200093A80188278C37866
:1031300012021A43521C130A8370C2703A68130EAB
:103140000371130C4371130A8371C2712268081D45
:103150009288121F8A7122689288121F1212CA71F5
:1031600022689388083B0B729388083B1B124371BB
:10317000108980188A78091DFFF7CEE9C2D9486501
:1031800001000000A02F00A0000200007FBE36005A
:1031900021682E488A8800681123FFF7B0E90020D3
:1031A0006880206002E02068002819D12848FFF7D5
:1031B000C2E9042814D800222548D2430021FFF791
:1031C0008EE911212060C18020300221C170216868
:1031D0002420088100206880B0782430A88003E093
:1031E0001C490868401C0860206800281AD01A4949
:1031F000096808606888EA885043AA8880182268AD
:103200001081E8890428288902D16A898018FFE79B
:1032100008810948012200690423FFF770E96888E2
:10322000401C68800020E8813868401C386000201D
:10323000F8BD0000FFFF0000AC0000B0A00100B02E
:10324000680000B02C0800B080B0000458000004F2
:10325000C80700B08CB0000474B0000400207047B0
:103260000449012010B5087000F034F8FFF766E952
:1032700010BD00004C000004704710B50AF0C0F902
:1032800010BD70B50500FFF75EE9002803D1FFF718
:103290005EE9002801D0012400E00024002D02D0C6
:1032A000FFF758E900E00020204370BD042008B576
:1032B000FFF754E90028009006D004490160044853
:1032C00001686846FFF74EE908BD0000EF130000F3
:1032D0005058F403F8B521484569681C3DD01020CA
:1032E000FFF73CE90028009037D01D49002402C0B8
:1032F000FF220A21FFF7B2E824E0E80720D0601E91
:103300000D281DD8A0000019083800D500200100A4
:103310001A314F2903DD4F210E2C00D03520009AA1
:10332000091A121D41188C4608E04607C108760F9D
:103330000127535CB740BB43401C53548445F4D829
:103340006D08641C002DD8D10098001D00F00CF809
:10335000044801686846FFF706E9F8BD4C00000420
:10336000011400005058F403020003480A2101230D
:1033700010B500F003F810BD89FC0000FFB581B066
:1033800006000D003C292CD82F0009374F9B450320
:10339000010000009C3100A00002000001A591B0D6
:1033A0003806000EFFF7ECE8040024D02089164907
:1033B000001901600021017114492A000968417156
:1033C0001149C7800830783901608680857103997A
:1033D000C01DFFF7B6E80E48002200682100012357
:1033E000FFF796E80498002803D100210120FFF799
:1033F000CCE805B0F0BDB30512219B0DB20A042044
:10340000FFF7C6E8F5E700000A1400005058F4037F
:10341000800900B0034810B5006800224B21FFF777
:103420006CE810BD800900B070B5064C258800F02E
:1034300035F8054A20881388411BC918401A1180A5
:10344000208070BD04AA000406AA00040449054AAD
:10345000497812780120914200D000207047000086
:10346000000002A9000002A9030000208B4201DA3B
:10347000401E70479342FCDD0120704710B5802448
:103480002000641C2404240C00F008F8BF2CF7D999
:1034900001480421017010BDD40900B0F8B5002422
:1034A00006008038104B11490004000C1A5C0D888E
:1034B0000F4F52190A801C5411E0A0003D58A888F3
:1034C0000005000DB04207D11C3D2000FFF764E865
:1034D0002800FFF766E802E0641C2406240E054875
:1034E00000788442E9D3F8BD506A000404AA0004BD
:1034F000906A0004F8A9000410B5C1788278090226
:103500000A4324381C21431801810849C161032161
:103510001971074909685971111D41840100054855
:1035200004230068FEF7F4EF10BD00000B14000048
:103530004C58F403800900B00A4930B409780029D6
:1035400003D009490988002903D00849096830BC1B
:103550000847074A074C11788B00491CE05011704E
:1035600030BC7047F7A9000404AA00040CAA0004A8
:10357000F8A90004906A000470B504000D00002052
:103580000BF032F9052D19D1E188A088091D0A0434
:10359000104900050978000D120C00293663282D0A
:1035A00001000000983300A000020000F54D2F0D2F
:1035B00012D0010080393F290ED80C4B1988491EC2
:1035C00019800B49081880380178491C017003E004
:1035D000E088001F0204120C0648210000681C3914
:1035E0002B00FEF7A0EF70BDF7A9000404AA0004A9
:1035F000506A00045C000004FEB56B46140007002E
:10360000080600161970062605005A700FF084FA95
:103610006B46010A9870D970010C1971000E58712F
:10362000044923000D70310038006A46FFF7BAFEE6
:10363000FEBD0000D40900B070B50600107814007B
:10364000E02886B004D120000BF032F9050000E03C
:1036500011250021481EFEF7B2EF2279E178A0780B
:1036600003AB07C33300627821780191FF210292F6
:1036700021310E2002A20095FEF7A4EF06B070BD26
:10368000526862626262626200000000074841782C
:10369000002909D106490968012209024270090F6F
:1036A00002002832515C817080787047CC0600B0EF
:1036B00000200080F1B500270E4806683400300273
:1036C00002D50BF03DFDFEE70B4800250BE0E007BF
:1036D00007D00949A8000A58002A02D000993000F2
:1036E000904764086D1C002CF1D1002F00D1FEE73B
:1036F000F8BD0000009100A8BCB302000348816837
:10370000012292041143816070470000009000A8DC
:10371000F8B501240025394F788800906AE03849CF
:10372000E000411808784E78420658D503003F3B28
:10373000FEF74CEF0A63161606100A0D1414141740
:10374000641C2404240C55E08878F860F8E7887835
:103750007870F5E72B482022FEF7FCEE301947E0A1
:10376000891C49281CD07F281AD04888000B01D01A
:10377000088815E008780200AF3A072A01D9BF2867
:103780000ED10A7AD303034310091B0400011B0C5A
:1037900000021843B22803D1497A0907090D0843EA
:1037A000184A002120320BE006234B43C43B2DB5C1
:1037B00001000000943500A000020000ECB5F17D8E
:1037C000D35A834203D16D1E2D062D0E04E0491CF1
:1037D0000906090EA942F1D306235943505288180D
:1037E00044804671301904046D1C240C2D062D0EE6
:1037F0000AE0022801D1897839700121002800D01F
:10380000310008190404240C0098844291D3F8BDB7
:10381000ACA0020000A3020000AD020010B504003D
:103820001248134A016812680220904700281AD0F3
:103830000122102C06D20F488168A24011438160FA
:10384000006907E00B484030416A103CA240114338
:103850004162C06AE0400849C4070968E40F0220D9
:103860008847200010BDFF2010BD000088A900047B
:1038700090A900040002009094A900040749401E8A
:103880008A780749424388784978101840182930C7
:103890000006000E442800D343207047E4A900042A
:1038A000540A00B0F8B50C00002706001500401EB1
:1038B00000971528177034D81C20FEF76EEE0028EC
:1038C00000902CD01849016021780172C907477215
:1038D0001CD0012E1AD9072E13D36179102910D8C4
:1038E000A27861781202114381802279E178120274
:1038F0001143C18062794272A11D0A30FEF734EE95
:1039000004E0122028706846FEF76EEE2878002842
:1039100004D1064801686846FEF742EEF8BD07206C
:1039200000E012202870F8BD0E1400004C58F4037B
:10393000F0B506000C001F00002585B001F088F9E5
:10394000002804D0012816D0022814D10C25032EFB
:1039500003D1A17860782A0002E015220021280016
:10396000029101900392227800920021FF205B23B4
:1039700004A2FEF732EE002038700A98057005B0F8
:10398000F0BD0000566262626262000070B588B0ED
:103990000C9D0C001226042820D100206B46D883F1
:1039A00061782078090208431883E178A078090239
:1039B000084358830E481C21006806AACCB62CD7B1
:1039C00001000000903700A000020000185D4FC009
:1039D000FEF7B0ED002800D02E702A78E178A078AC
:1039E00002AB07C362782178019207A2009102E03E
:1039F0002E7007A200960021FF206923FEF7F6ED46
:103A000008B070BD5C0000045662626262626200CF
:103A100056626200F3B50C0081B0344F787800280C
:103A200004D02079FF2801D00FF044F821793048E4
:103A3000FF29017109D17878002804D00FF03AF8F5
:103A400001200EF06BFF0020FEBD2178017061782F
:103A50004170A1788170E178C1702179017161793B
:103A60004171A1798171E179C171217A017200916D
:103A7000657A4572E17AA67A09020E434681217B76
:103A80000173019912290CD3A27B617B12021143AD
:103A9000E27B237C12041B061A4311430161617C03
:103AA00002E00021016104210175114801991530DE
:103AB0001C2905D321000A221231FEF760ED03E034
:103AC000FF220A21FEF7F2EC002E07D00949680018
:103AD000085A864202D800980E2801D91220FEBD4D
:103AE000E806C00FB8700EF0B1FFACE7600A00B096
:103AF000509900B03C5BF403F8B538235843944622
:103B0000524A8418CA7A887A120210430090487A7E
:103B10000B7A00020343A07C257C042801D3002DEE
:103B200074D1087962465700022805D003282FD0A7
:103B3000062879D1002051E0002108250226112B0A
:103B4000617405D0132B03D0192B6FD101252E00E2
:103B5000207C002804D138212000FEF788EC0FE0FB
:103B600000208100625A002A05D1091949880029DC
:103B700001D1E07404E0401C0006000E0428F0D3DC
:103B8000E07C009982001019C153257466744BE0E3
:103B9000E07C6246800006190120002A00D0002047
:103BA0004000305A009A90423ED10222012D02D1AB
:103BB0002274012203E0082D02D1092020746274CE
:103BC000087B002805D1487B002802D1BE9258C648
:103BD000010000008C3900A000020000DF444D9D70
:103BE000A07C401CA074E07C81000819C35325E030
:103BF00081000E19F15B009A914212D101216246B7
:103C0000002A00D000214900715A994209D182004E
:103C1000111900220A804A80A17C491EA17405E086
:103C200016E0401C0006000E0428E1D3002805D150
:103C3000082D05D0092D03D020746074002D08D004
:103C4000207C002805D10AF00FFF00200AF018FFA1
:103C5000F8BD607C0128FBD10AF006FFF8BD00002A
:103C60003C0800040849002010B50400087020003A
:103C700000F060F8002801D000F04AF8641C240429
:103C8000240C082CF3D310BD90000004F1B500996A
:103C90008A884E7B1005000D05000B2822D2920B5E
:103CA00000D00020164AC3009C182279002A19D09F
:103CB000E5808A888968120B002300F035FB002E0E
:103CC00002D16079401C60710E480078012805D04F
:103CD0000D4801686846FEF778ECF8BD0098FEF7DD
:103CE0009CECF8BD88680949096888476846FEF772
:103CF00090EC002EF5D10121280007F007F8F8BD5F
:103D0000F8690004F4A90004B85BF403C8B3000424
:103D1000064810B50178002907D1012101707D20E6
:103D200003490022C000FEF77CEC10BD90000004A7
:103D3000F313000038214143144A70B500258C1854
:103D400029000DF003FC00281ED0207DC11C8A072D
:103D5000411C8000001983698907920F890F002B8D
:103D60000AD1806A002807D1900000198269002AD0
:103D700002D1806A002800D00125002288000019A5
:103D80008261826262752175280070BD3C08000462
:103D900038B504000089011900910A7A052A0CD06F
:103DA000082A01D0142A0CD1C87A097B09020843D9
:103DB000002100F059F8002803D06846FEF728ECEF
:103DC00038BD07490868002802D10C6038BD0800DA
:103DD00001680029FBD1046000202060EE5FD3B3AE
:103DE00001000000883B00A0000200002BACF32083
:103DF00038BD00005C0800B00FB410B50A486B462F
:103E0000197B01715A7B002A09D0198901805989CF
:103E1000418003A94271891C801DFEF7C4EB10BCD0
:103E200008BC04B018470000600800B070B5114D20
:103E3000286800281DD0281D0079C00719D00E4E13
:103E40002968C8880C68022805D12520425C3068A2
:103E5000921C022308E00889052340188278C07864
:103E6000000202433068121DFEF784EB002C2C6028
:103E7000E6D170BD5C0800B05C000004F7B582B00C
:103E8000050000272F480468260053E0E1882089B8
:103E900002292FD1049A0019002A01900BD0037B2C
:103EA000C27A1B021A43037A0498834240D1954296
:103EB0003ED1012729E0027A032A06D01B2A0AD123
:103EC000827AC07A0002024302E0C27A007BF9E7FC
:103ED00095422DD119E0122A0AD0202A28D10A3081
:103EE00003990622FDF786FF002821D1E1880AE028
:103EF0000B30F5E700190278407800020243100504
:103F0000000DA84214D1002912D00E4B20001A68CF
:103F10009442226801D11A6000E0326024680229CC
:103F200003D101A8FEF77EEB04E00DF04DFD01E0AA
:103F300026002468002C01D0002FA7D0380005B03F
:103F4000F0BD00005C0800B012230128137004D1FA
:103F500008780249087000201070704747AD0004CF
:103F600070B506000C001500FEF768EB0200122089
:103F7000062E287039D11D480078012835D1E07807
:103F8000A678000206432378300000F0D5FA002816
:103F90002BD0002B1ED1607800280AD10A20704354
:103FA00080186038007C00281FD13000FEF74AEBF3
:103FB0001AE0012819D16079227900020243100029
:103FC00000F0BAFA002810D01100300000F0E0FA3A
:103FD000002009E00A20704380186038007C012826
:103FE00003D13000FEF732EB287070BD05991F2E0B
:103FF00001000000843D00A00002000032542D505A
:1040000047AD000438B50C00032812D10820FEF794
:10401000ECEA09490090016021780171A278617889
:1040200012021143C180054801686846FEF7E0EAC4
:1040300038BD1220107038BDFD0C0000B45BF403D5
:1040400038B50C0002280FD10820FEF7CEEA084947
:104050000090016021780171617841710548016823
:104060006846FEF7C6EA38BD1220107038BD000061
:10407000F40C0000B45BF4033EB50C000C2810D126
:104080000422210002A8FEF798EA0822211D6846B2
:10409000FEF792EA02A800F0D9FC684600F0EEFCB8
:1040A0003EBD122010703EBDF8B50600FEF7D0EA06
:1040B00004000020FEF7D8EA05000A207043041926
:1040C000603C607C052802D1FEF7D2EA1BE0A07CB0
:1040D000002818D11C2070430C4940180C4947791E
:1040E0000968380088470B49380009688847282044
:1040F0007843094B401901791B6801223000984729
:10410000300000F003F901202074F8BD1082000493
:10411000FCBA0004F8BA000408BB000410B504009F
:10412000FEF796EA0A21614308186038C07C01282E
:1041300000D0002010BD000038B50C000D78497883
:1041400009020D43290080393F2907D82200104B6E
:1041500001001C680D480F4BA04738BD0820FEF732
:1041600044EAFF217E31009001608580A178817151
:10417000A078290000F00AFD074801686846FEF7AC
:1041800038EA29000120FEF74CEA38BD75FC000032
:1041900024AB00043C6B0004B45BF40384461000C1
:1041A000F8B5382362465A431A4BD4188A78C9782E
:1041B00009020A43217C012907D0022905D00829D8
:1041C00001D0092903D1022302E0012300E00023EA
:1041D0000121002800D000214E00A15B914206D1B0
:1041E000012B637402D101200AF052FCF8BD0121B9
:1041F0008D002D19AD5B954206D1012B3B08C2A65F
:1042000001000000803F00A000020000C6BC93ED4A
:104210006374F5D1614609F040FDF8BD491C0906FB
:10422000090E0429EED3F8BD3C08000470B5002542
:104230000C4E2C00002120000DF0A6F9002809D01A
:10424000382060438019007C002800D001204019EC
:1042500005062D0E641C2404240C082CEAD3280027
:1042600070BD00003C08000470B50125134C060029
:1042700063782A00002B00D00022A07829000028B3
:1042800000D000218A4203D1802B01D0607070BD24
:10429000002804D1002E02D12178002902D100F09B
:1042A0006DF970BDE0780028FBD10022012004499F
:1042B00000031300E570FEF7EAE970BD4C0000044E
:1042C0000414000038B504000820FEF798E900281F
:1042D000009007D0044901600471044801686846F1
:1042E000FEF790E938BD0000031400004C58F403B9
:1042F00010B50400FEF7CEE9FE20002C00D101200D
:10430000FFF7E0FF10BD10B50400FEF7ACE90A218D
:10431000614308186038407D002800D0012010BD9E
:104320007CB504000820FEF76AE90C4900900160A2
:10433000002584800A4E857131686846FEF762E97F
:104340000820FEF75CE905490190491C0160848062
:104350008571316801A8FEF756E97CBD9E13000007
:104360004C58F403FFB581B00600082847D2382323
:10437000734324480D781C184878CB780002054315
:1043800088781B029207677C1843920F012A36D067
:10439000012806D000206074049A3000FFF708FF5F
:1043A00003E0049A3000FFF7CFFB607C3200290065
:1043B00009F054FC04980028207D05D080000019E5
:1043C000816A4919816204E08000001981694919F4
:1043D0008161FFF7BBFC607CB84210D0012801D19D
:1043E000012500E0002531002800FEF758E93100E2
:1043F000280002F03DF9607C310009F04DFC05B069
:10440000F0BD00003C08000438B54A7864BCEDE615
:10441000010000007C4100A00002000023EBCEEA76
:104420000C78120214432200803A3F2A07D80E4B20
:104430000A0001001C680B480023A04738BD082073
:10444000FEF7E6E8FF217C31009001608480074898
:1044500001686846FEF7E0E821000120FEF7F4E875
:1044600038BD000074FC000024AB0004B45BF4030E
:1044700070B50400082817D22000FFF783FCFFF76F
:10448000DFFE002809D1094D2878002805D008480A
:104490000021FEF712E9002028703820604305490A
:1044A00040183821FEF714E870BD000090000004A9
:1044B000F31300003C08000471B581B0019A274E47
:1044C000908894680B2839D2254983001B18591805
:1044D0008B78002B32D0FF23F73300921360009AC1
:1044E0002389D3800A79521C0A711E49097801294F
:1044F00005D01D4801686846FEF78EE81BE021895B
:104500001C230D1958431949401819494079096865
:104510008847009AA978D180AA78E91CFEF760E85C
:104520000098FEF7CEE82000FEF78AE83069002206
:104530001421FEF732E8002001907CBD2000FEF738
:1045400080E8306900221421FEF726E8019800284F
:10455000F3D001A8FEF784E87CBD00004C00000405
:10456000C06A0004F4A90004B85BF40310820004DC
:10457000D8B3000401000839022904D803494000D7
:10458000085C012800D00020704700006E71000414
:1045900038B5040007F01EFE0820FEF73AE8084987
:1045A0000090002C016001D0002100E00121017188
:1045B00004484470044801686846FEF72EE838BD98
:1045C000CE0C00004C000004C05BF40370B5040086
:1045D0000D00FEF752E80A22624301211218603AE8
:1045E00051750A226A431018603841752000FFF7A0
:1045F0006FFD2800FFF76CFD70BD000038B50C00A2
:104600000D78497809020D43290080393F2907D8E0
:1046100022000F4B01001C680C480E4B1D18FC5665
:1046200001000000784300A000020000D70370578B
:10463000A04738BD0820FDF7F6EFFF21803100903C
:1046400001608580A1788171E178C17107480168B6
:104650006846FDF7ECEF29000120FEF700E838BDC1
:10466000E9FC000024AB00043C6B0004B45BF403E1
:10467000026801231104090C9B07491C1A401143CD
:104680000A009A43082A01D3594019400160704733
:104690001CB50024E44307480122032101AB009428
:1046A000FEF71CE801980028F5D00128F3D10DF0A1
:1046B00071FDF0E704AC00B070B508F065FA094888
:1046C000002200680D21FDF772EF074D2C6804E011
:1046D0006068002800D080472468002CF8D108F0DA
:1046E0004BFAF3E754000004580700B0134810B524
:1046F00001680800FF306130C28803231B039A431E
:10470000C280C28801231B031A43C2801622CA84B6
:104710000B4ACA870188402211430180094800786A
:10472000012802D100200CF02DF8074948680A0C36
:10473000904348600CF0FEF810BD000000AF00048C
:1047400040800000540A00B040230080F7B51300F9
:10475000140415003E4E0700240C3668010082B098
:10476000039A30A0B04703993800FDF7C8EE00293E
:1047700055D10398854234DD03992800FDF7B2EF47
:10478000681A334E04043268240C210031A090478B
:1047900023E003992000FDF7B2EE002919D1002F84
:1047A0003DD02B4E009736682B00039A210033A092
:1047B000B047BC4205D939002000FDF7A0EE002922
:1047C0002DD0BC4205D821003800FDF798EE002915
:1047D00025D00398201A0404240C03988442D8D2CC
:1047E0001DE01B4A00261268290034A0904710E003
:1047F000174B019A1B6839003AA098470199380075
:10480000FDF77CEE002901D1019C08E0B61C3604BE
:10481000360CA81B0004000C06280190E8D22000EA
:1048200005B0F0BD756954736E696666292D48E759
:1048300001000000744500A000020000CEFBAE277E
:104840002025642C207569546573636F2025642CC2
:1048500020756954617267657454736E6966662069
:1048600025640A00D8A900044361736520313A2009
:10487000496E697469616C2075694E65775461721F
:1048800067657454736E696666203D2025640A006E
:1048900075694E657754617267657454736E6966A5
:1048A00066202564207569546573636F2025642034
:1048B000756954617267657454736E696666202504
:1048C0006420756954736E6966662025640A000069
:1048D0004361736520323A20496E697469616C20C6
:1048E000756954617267657454736E696666203DBC
:1048F0002025640A000000004361736520323A20DD
:10490000756954736E6966662025642075446976FE
:1049100069736F72202564203D2025640A00000021
:10492000002807D0012803D0022805D0032800D092
:10493000002070470220704701207047FEB5FDF748
:10494000E0EE05008007800FFFF7EAFF0D490C4EEF
:104950000190096830008847012801D0012400E057
:10496000002409497D270968BF0130008847074BAB
:10497000009021001C683A0001982B00A047FEBD62
:10498000FFFF000028B5000424B5000434B500047E
:1049900038B504002AD016481C23408815495843CE
:1049A00040180079A04221D11348007800281DD07A
:1049B00012490120C875FDF7A8EE11496000096889
:1049C0004018018D022211430185FDF7A2EED12589
:1049D0002D0121002800FDF7A0EE0A4829000268F9
:1049E0000092220004200023FDF79AEE38BD00005B
:1049F000E0AC0004108200044CAF0004800800B05A
:104A0000B0AE0004C05BF4031C235843134910B537
:104A100040180079124C002809D1E17E1148FDF7B9
:104A200084EE1048E17F0838FDF77EEE10BD0D489A
:104A3000617F001FFDF778EE0320FDF7C3C4102847
:104A400001000000704700A0000200003A13109A15
:104A50007AEE0028F4D10948006801884908490025
:104A6000018007480068018849084900018010BD9D
:104A7000108200044083000404AD0004ACAE0004C6
:104A800098AE0004F8B505000E001700FDF75EEEC5
:104A9000882169430C182034A07C012806D13A00F3
:104AA00031002800FDF756EE0020A074F8BD00008C
:104AB00001784278C907D206C90F920E1143827855
:104AC000C078D207D20DC0061143800C01430348C1
:104AD0000068FF30FF30801CC183704700AF0004C6
:104AE0000178CA074178D20FC906890E0A43817836
:104AF000C906490D0A43C178C9020A430A490B682D
:104B00001121490159180A8002794379D207DB063D
:104B1000D20F9B0E1A438379C079DB065B0D1A43D3
:104B2000C00202434A80704700AF00040249488136
:104B30000249088070470000540A00B098AD000494
:104B40000849C97900290BD00749FF220968521C7E
:104B500040310028888801D0104300E090438880CD
:104B60007047000040660004E0AE000410B5040089
:104B7000FDF7F4ED74216143425C002A06D0081869
:104B800040300079032801D1012010BD002010BD64
:104B9000042008B5FDF75AED04490090016004486F
:104BA00001686846FDF756ED08BD0000A40F00003F
:104BB0003058F40370B504000C4E008A01252A0019
:104BC000B1788240114203D0FDF7CCED607600E071
:104BD0006576208A2900727881402B000A4203D032
:104BE000FDF7C4ED207670BD237670BD10A40004DF
:104BF0000122054B8A40597E002802D00A435A768A
:104C00007047914359767047800800B0F7B582B07D
:104C1000060000200190308A0F001C214143164AF3
:104C2000164D89188C7801212A7881408A432A7090
:104C3000FDF7A0ED124A11006339002813D0105D72
:104C40000B5D98420FD11000A1000D3060845ABE58
:104C5000010000006C4900A000020000FD0A12C71C
:104C600040580499381A88420DD901200190318AA0
:104C7000884029780843287005E0085D10550548EC
:104C8000A1000D304750019805B0F0BD108200041E
:104C9000A00800B0D39100B030B50122054D064BFD
:104CA000285C9C688240002901D0144300E09443B2
:104CB0009C6030BDA0AF000450A0000470B50C0093
:104CC0000978144D01290AD0022908D003291FD1DF
:104CD00001281DD12878012816D0022202E00128DF
:104CE00004D10122002108000B0008E003280FD1A5
:104CF000A07863780002034300210122080009F034
:104D0000ADFD2078002801D020782870012070BDEA
:104D1000002070BD800700B038B500240878F12865
:104D200007D0F22805D10320009001206946FFF743
:104D3000C5FF200038BD0000F8B505000600114F82
:104D40000C0038781C3E00280AD00F480079C007B4
:104D50000BD0002009F050FC002806D0032C04D012
:104D60003000F480FFF764F8F8BD002009F0B4FDCE
:104D7000FFF7A2F86A7A3869921C23003100FDF728
:104D800040ECF8BD4C000004600800B0F1B500989C
:104D9000C17A857A047A4068090206060D43360E08
:104DA0006846FDF786EC2A002100300009F094FCEB
:104DB000F8BD0000F8B5150006000A4C3020217837
:104DC0001A004843084B069FC018491C30602170E8
:104DD00000922B003A00611CFDF7DAEC0006000E91
:104DE000F8BD000068000004708E00B00C4900207F
:104DF00010B508700B48016900290FD1012101612C
:104E0000002000F0A5F8002801D100F0C9F900F059
:104E100091F8002000F06CF8FEF7E8FC10BD0000EF
:104E200000AD0200ACA00200FFB5FF210024050088
:104E3000491C204881B0FDF774EB1E4A2868082100
:104E40001060042029E02B5CE340A41C9B0724068F
:104E50009B0F240E082C03D1401C0024D4BF7003E8
:104E600001000000684B00A00002000009E2AC7ADB
:104E70000006000E032B12D12B5C002C04D1401C29
:104E80000006000E53540FE0401CE3400006000EE5
:104E9000082753542E5C3F1BBE401E4303E0FF26F1
:104EA000022B00D01E005654491C0906090E029B15
:104EB0009842D2D304980170039802600498007855
:104EC000508005B0F0BD000000A102000B4910B5F4
:104ED0000888702210430880094B002005240A88A6
:104EE0001A400A800A8822430A80401C3C28F6DBCC
:104EF00008882F22D2431040088010BD240600905D
:104F0000F0FF0000F8B504000D4D0E4F13E0A001B6
:104F1000060000F027F800280AD0300000F00EF953
:104F2000EA88D300DB1903C3601C521CA880EA8006
:104F3000641C2404240C68888442E8D3F8BD000073
:104F4000ACA0020000A302000249FF2040304880CC
:104F500070470000ACA00200014840787047000094
:104F6000ACA0020010B50400FCF79AFA0021200062
:104F700000F00EF805480088800701D5012400E004
:104F80000024FCF7B3FA200010BD000018060090C2
:104F90000C4A1369984209D010610B4B0204920D20
:104FA0001A80094A8006800E2032108008010649C6
:104FB000401C0C3108800449091D08880004FCD5F8
:104FC00070470000C8A002001C060090F8B5144D00
:104FD0002888702108432880124F002426003B2097
:104FE000021B11493800FCF706EFC007C00F310063
:104FF000001871418100014328880F22D2431040DC
:10500000084328802888052108432880641C3C2CFC
:10501000E5DB28882F21C94308402880F8BD00001F
:1050200024060090C61A6BACB1C61A0B70B5060008
:105030000D0000F00DF80C00FDF7B8EB0004000CBB
:1050400030602000FDF7B2EB2860012070BD000049
:105050000C4A00200DE07F2908D1062358430A4955
:1050600080184088C000411803C97047EC01AD6347
:1050700001000000644D00A000020000101A720A36
:10508000401C202804DA06214143515C0029ECD160
:105090000020C0430100704720AD020000A30200C1
:1050A000FEB58C461D001400802107000300089EF9
:1050B00000220F432F3B072B01D93F2803D1634622
:1050C0001F0207430F431F49002C39D033E0085A11
:1050D000B8422DD1062050431B4B41184888C000D0
:1050E000C0188288170B07D1AA42328028D8488876
:1050F000C000C118891C12E01106144B120B92005B
:10510000D218090E801C403AD76B6A4601ABB847EB
:105110006B46187930801A79AA4211D8009920007C
:10512000FDF79AEA20784006400E20700120FEBD6F
:10513000521C202A04DA062050430B5C002BC6D1F7
:105140000020FEBD20AD020000A30200C0A00200AE
:10515000002110B500F002F810BD0000F8B50024E1
:1051600006000F002500FCF7A5F939003000FFF715
:1051700019FF0E48C068002812D10D480488E217B4
:10518000001D0388DD17001D0188001D00881E0C0E
:105190002D04354315431B040D4300041C430543F4
:1051A000FCF7AEF920002900F8BD0000C8A00200FD
:1051B0000806009002480349006808637047000031
:1051C000C8A002000021008010B50400FCF772F9AD
:1051D0002000FFF7D1FEFFF703FF02212000FFF7B9
:1051E000E1FEFFF77DFEFCF78BF910BD0A4810B514
:1051F000006B0A49086009F049FC0A490848088020
:105200000948091D0880091D08880722520310401B
:10521000064A1043088010BD00210080C8A002008B
:10522000809800002C0600903F4900003F090000D4
:10523000F8B504681748218AC07EFDF7C6EA442104
:10524000095D052925D1002823D0208A1249085C50
:1052500003281ED1114D14236878114E58430B2793
:105260008019FF01C019016A200001F0F3FAA87843
:10527000142358438019C019016A200062AB6A796F
:1052800001000000604F00A000020000E4F2CCB773
:1052900001F0EAFA2879142358438019C019016AE9
:1052A000200001F0E1FAF8BDD0A0000498AF00049E
:1052B000A0AF00045099000470B500210648FDF726
:1052C0005EEA064D04480024210012306C74FDF79C
:1052D00056EA2C7670BD0000C30B0000C0AC000481
:1052E000FFB585B008980168002005000090394896
:1052F00003910280039941600A20684336494618A9
:1053000070884408F079002858D1307A022855D1A5
:1053100006992000FDF72EE9002905D00698210006
:10532000FDF728E9002949D106982700844200D3D7
:10533000069F069920008C4200D806980490280009
:1053400011300004000CFDF74EEA0499FDF706EA5F
:1053500004980C18B188601E0818029004990398EC
:10536000FDF7FCE904980E1800E0F619A642FCDBF4
:1053700000E0F61BA642FCDC0598029A3018401E9D
:10538000019021003000FEF705F90700029A01980C
:105390002100FEF7FFF8002F01D087420ED0022037
:1053A000A64200D0012000900198011B0398401AEA
:1053B000401E039008998001800908606D1C0098C8
:1053C0002D042D0C002801D1022D95D3009809B091
:1053D000F0BD000064B00004A4A4000410B5074CA4
:1053E00001232478044200D00023180004D0044B89
:1053F0001C880C805968116010BD00004CB000047E
:1054000064B00004010000220348D243083110B503
:10541000FDF704E910BD0000047500B010B50400EC
:1054200000681C38FDF752E90020206010BD000024
:105430000100044810B5006800220123FDF7FEE8D2
:1054400010BD0000800900B0F8B50400FDF7CEE9FA
:105450000021C9430091C088A04215D00B4D0C4ECD
:105460000024EC72B07F01280ED10948203000786A
:10547000002809D1074AB06B1268001D69469047A1
:10548000012801D1B477E872F8BD0000F63A5D5307
:10549000010000005C5100A0000200009AE96B07C7
:1054A000800800B040AC000460B2000410B50400F5
:1054B000FDF77EE9074A0649126892881206520FE4
:1054C00003D0882161430918C91DC87810BD0000A8
:1054D00026AD0004A0AE000410B504000848047016
:1054E0002000FDF792E92000FDF792E900F090FE20
:1054F0003F22002104204823FDF7EAE810BD000008
:1055000065AA00040EB5074B02894168D87801915D
:105510000292009025211B8889014E2002A2FDF7EE
:10552000E8E80EBD8471000468627768000000003E
:10553000074810B50088074942000A71C009487140
:105540000322002106208023FDF7C2E810BD0000E1
:105550003EAD0004586B0004074810B500880749A9
:1055600042000A71C00948710322002106207E23EF
:10557000FDF7AEE810BD00003CAD0004586B000420
:10558000084810B5006803220178407881230002A2
:10559000014348080449088000210420FDF798E8E9
:1055A00010BD0000B0AA00043EAD0004084810B5CC
:1055B00000680322017840787F23000201434808F5
:1055C0000449088000210420FDF782E810BD000096
:1055D000B0AA00043CAD000410B54A780B78120262
:1055E0001224134306280DD10A4A00241380887818
:1055F0009070CB78D3700B79137149795171117612
:105600000DF086FB0522210004200D23FDF760E844
:1056100010BD0000847100047CB5C41DC579007AFA
:10562000000205430820FDF744E86F220190026064
:1056300001008580E078A278000202430D48CA800C
:10564000016801A8FDF738E829000120FDF74CE8C2
:1056500009490020085609490978884208DA0022D9
:10566000FF21009241310F20002305A2FDF740E801
:105670007CBD0000B45BF40361AA00046EAA0004C0
:105680006252680070B584880A4D285D00280FD0EA
:105690002000FDF7C2E800280AD107484CD846018F
:1056A00001000000585300A0000200006E01D5BAAE
:1056B000806A005D002805D128552000FDF7BAE872
:1056C000012070BD002070BDC6AA0004800800B093
:1056D00010B5FDF7B4E800F0A5FD05480121017003
:1056E00000214170802141800249416010BD0000CD
:1056F000E8AA000400EE0200F0B585B006000C0038
:105700000293FDF760E80500022E71D16B461889FF
:10571000042827D1A6880022E01D02A9FDF792E8FF
:10572000002201A9FDF792E807006B4698880B2834
:1057300018D10020FDF78EE8A188FF2319335943C3
:105740000818807C0F280DD13C7800213000FDF72F
:1057500086E8062C00D00524754A21001268300026
:105760009047DFE06B4618890B280CD1E01D01AA99
:1057700002A9FDF768E8A48801006B461A792000A9
:1057800000F058FECEE018286ED1E0798823C607D5
:10579000A08800905843F60F47190397403778794F
:1057A000092826D00920787108203E71FCF78AEF7D
:1057B00060490190016000998180002181715E48FB
:1057C000016801A8FCF782EF002200993120130044
:1057D000FDF748E80398007D012802D10098FDF705
:1057E00046E83106009818220916FDF744E899E0CA
:1057F0009BE00098FDF71AE8092802D1787B002881
:1058000032D00098FDF712E809282DD1787B0028C6
:105810002AD00398007D002805D1310618220916E8
:10582000009823237CE00820FCF74CEF41490190CD
:10583000016000998180002181713F48016801A8C1
:10584000FCF744EF0098FDF712E8310600981822A3
:105850000916FDF710E8374800996438FCF7A2EF05
:105860000098FDF70CE85DE06B461889172824D1F5
:10587000A08888235843401940304179092901D034
:10588000072952D1417C052915D300214174E079C3
:105890001722C107A088C90F1F23FCF7F4EF274880
:1058A00088228178A08842435219127D8925843349
:1058B00001000000545500A00002000077F90BCA57
:1058C000914239D1FCF7ECEF36E0491C41746B464C
:1058D00018892049884213D1A18888235943695CDB
:1058E00001290DD11820FCF7F8EE182221000190B3
:1058F000FCF7DAEF1848016801A8FCF7F2EE1BE0AC
:1059000013281CD1A0888821414376224919525C72
:10591000012A14D1097D002911D11049C97B01291F
:105920000DD10F4A2A23518C491C5184E17913224D
:10593000C907C90FFCF7B0EF012005B0F0BD00208A
:10594000FBE7000098BA00047C0C0000BC5BF40389
:10595000E88500047F100000B45BF403C0AC0004D1
:10596000800800B070B50500FCF7A2EF0400012824
:1059700005D9280006F0AAFB002800D00124200049
:1059800070BD00007CB50600FCF726EF346805000A
:10599000E01D6A4601A9FCF760EF6B469888242851
:1059A00018D1A088882358434019C0780B4D00288F
:1059B000207A03D1C007C00F0CD104E0C006800FCD
:1059C0000BD0012806D10CF0ABFC002805D12878BB
:1059D000012802D83000FCF770EF7CBD44B0000411
:1059E000FFB583B01400091D0025584A584B029199
:1059F00029000193635C9B0602D56D1C2D062D0EBC
:105A0000029B5B5C1E07360F1B099E460023B446B3
:105A10000FE0504EB6893702BE1B36024D4F360C92
:105A20000128BE8102D1565C760056545B1C1B06D1
:105A30001B0E6345EDD3002312E0464EB6893702B4
:105A4000BE1B454FF6193602424F360C0128BE8167
:105A500003D1565C7600761C56545B1C1B061B0E4D
:105A60007345EAD3491C0906090E4F29C2D33949A7
:105A70008B8906990B8039494B789D4202D3CD78AA
:105A80000E7907E08B789D4202D94D798E7901E03D
:105A9000CD790E7A012856D10020235C990610D5C5
:105AA000115C2F008F4301D1082101E0019F795C37
:105AB000B14203D359084900215402E03005BAA588
:105AC00001000000505700A0000200008311B577CC
:105AD00001210B432354401C0006000E4F28E6D33F
