:100000000100000000000000000400000094511AEC
:100010001CF09FE51CF09FE51CF09FE51CF09FE5A0
:100020001CF09FE51CF09FE51CF09FE51CF09FE590
:1000300024440E1AC0720200987202009C720200E0
:10004000A0720200A4720200A8720200AC72020048
:10005000B9720200000000EA8E8500EA28008FE2F3
:10006000000C90E800A08AE000B08BE001704AE24A
:100070000B005AE18785000A0F00BAE814E04FE24E
:10008000010013E303F0471013FF2FE1D8780200BB
:10009000187902000030A0E30040A0E30050A0E384
:1000A0000060A0E3102052E27800A128FCFFFF8A44
:1000B000822EB0E13000A128003081451EFF2FE1E3
:1000C00004309FE503308FE013FF2FE10D1902008C
:1000D0000020704710B5144C206800280CD100F0A7
:1000E00027FD2060114A2021A0600BF3A4F9104ADB
:1000F000606820210BF39FF910BD10B50A4C2068F1
:10010000002808D0002213210BF395F920680BF387
:1001100076F90020206010BD0200034810B5006889
:1001200068210BF388F910BD74EE00C00D1A0200AF
:100130002B1A020010B527F010E905F33FFF00204D
:1001400010BDB64810B5006800022FD5B44CB54AB2
:100150000020C11C09016161236981005350031D06
:100160001B01636123698918801C0C284B60F0DB3C
:10017000AD48FFF7D1FF27F054E9FF21AB4A2D31FD
:1001800002E0401C8842FCDB50780028F9D0A848E7
:100190006061A8482061012040036061A648206199
:1001A000A348E03860610520206105E09E48401CBE
:1001B000FFF7B2FF27F034E9012010BD9B4910B5CD
:1001C000486000F03BFF10BD202800D3FEE79B4AAB
:1001D00080001358002B00D0FEE71150002070471C
:1001E000964A002180001150080070470268836819
:1001F000C1681000184770B5052804D2904D8400DE
:100200002B59002B01D0012070BD2C238C4E434371
:10021000DC3E9B192B5135000401F0352851601943
:10022000C2608160002141608649196158610020E7
:1002300070BDFEB50E001700052815D280490201D9
:100240001431551869687E4B840000290DD10122B4
:1002500001970096029218594369026907F390FAD0
:10026000002801D101206860FEBD18591D0007F368
:10027000C3FA28593A00310007F370FA285907F3F6
:100280005DFAFEBD694970B50878401C0006000E95
:100290000870012149044018FFF73EFF6A4D6C6A5F
:1002A000E00705D003F388EF0BF318F9A81768628D
:1002B000664EA0070CD5A86A02218843A8622020B8
:1002C000F060491F6962B1680143B1600BF3FEF849
:1002D000600705D5A86A04218843A8620BF31FFCB8
:1002E00020070AD5A86A08218843A8628020F06008
:1002F000C9436962B1680143B160012070BD70B546
:100300000124524D8440EC60002022F015FBA868C7
:100310002043A860012070BD01214C4A814010B5E6
:10032000D1600F3800D5FEE7022800DBFEE7484C1D
:100330000023800004192360454C403400190362F7
:10034000906808439060012010BDF8B5414DEC68FD
:10035000E00702D0A817E8600440200606D58020F8
:10036000C043E8608020844300F03BFD200407D5B3
:100370000126F603300000F034FDF043E860B4439A
:100380006003400F06D00720000421000140C9434C
:10039000E96084432002000F09D00F273F052600A3
:1003A0003E40300000F0D2FCF043E860BC43E00087
:1003B000400F09D00727BF0626003E40300000F05E
:1003C0005FFCF043E860BC43E0060FD51020C0435B
:1003D000E8601020844322F09FF9002806D004F042
:1003E0009AFD002802D0102000F0ACFB002C05DAAA
:1003F0000120C00700F05FFC1748E86013498868D7
:100400000122920510438860F8BD104BA6D53DE44B
:1004100001000000FC030000000400005AEF5E131E
:100420000122920510B5DA60FFF799FF012010BD97
:100430000031008080290080005502C0400001008A
:1004400094790200F0200000FF0C0000070080FFFC
:10045000503D0004B87B0200DD0100000034008044
:100460000030008040E8008080220080FFFFFF7F96
:1004700030B504002020208165692018AD7A057010
:100480006469E47A44700171090A4171110A827148
:10049000C171190A8370C17030BDF7B50700487883
:1004A0000E00097805020D43203528003430010480
:1004B000090C0022FF481DF36BF8040021D028002E
:1004C0001430A08067612027E019142127811CF3D4
:1004D0009EEB2B04029A1B0C14212000FFF7C8FF8F
:1004E0003420208120182A0031001CF3CAEA0021A0
:1004F000200021F036FB207B202804D1200021F0B1
:1005000021FB0020FEBD278123F0A3FF002802D09D
:1005100005200AF0E8FA21F0D9FAE84B0500E64890
:1005200021001C68002200680523A047280021F054
:10053000D1FA0120FEBDFFB50120904083B0039F9A
:100540000406240EFF374137F8790E0015002042CB
:100550002FD1FF229132462301A902A804F095FF72
:10056000002826D0F87917212043F871019C103417
:1005700020001CF34CEB0698002801D1052000E078
:100580000D20607225722000627A0C990A301CF3EB
:1005900078EA310006220C31A01C1CF372EA607A62
:1005A00001990A308872000AC8720299039804F00F
:1005B00037FF07B0F0BDFFB59FB0060008003768F1
:1005C0000021179121997C69002910D040301E909C
:1005D0001CF398EB229905004118C07820314006A1
:1005E00002D4B88823B0F0BD2888682801D800203C
:1005F000F8E719AA18910092219918981AAA17AB2E
:1006000010F308F9280010F32CF9002853D0AC4857
:10061000002104AA01AB07C318ABAA4A00921D79B6
:1006200010AB1A7F38002B001AA90EF34CFB050003
:100630002DD12000FF304130C179090624D5002C8E
:100640000CD0092189016118C96B002906D018ABAB
:100650001A79920068328B585B1C8B50C17949061D
:10066000490EC1711E981CF34EEB18AB1D792199F0
:100670002A01521B52180E320092010010AB1B7F50
:100680002A002000FFF757FF00203060AFE73560F9
:1006900028891E9940191CF346EB0088A880200089
:1006A000FF30413018AB1B7901263200C1799A40E6
:1006B0009143C1711DE010AB197F009101952A880B
:1006C00018991898643A091D1AAB12F3A8FD060090
:1006D0001CD0200018AB1A79FF3041300123C179BA
:1006E00093409943C171288808382880B888083811
:1006F000B880002C08D0092080012018C06B002889
:1007000002D0416E491C416630006BE7002C14D0CA
:10071000092080012018C16B00290ED018AB1A796E
:10072000920068328B585B1C8B50C16B0A69521C5B
:100730000A61C06BC168491CC1601E981CF3E2EAE3
:10074000010018AB1879219A03011B1A9A180E326E
:100750000092020010AB1B7F2000FFF7ECFED3E7F6
:1007600000280CD0092189014118C86B002806D047
:100770000269521C0261C86BC16C491CC16470479C
:10078000FFB583B004001E000C9F0E9D24F002FCF8
:10079000002820D0607A02281DD0082E1BD3082FF5
:1007A00001D3012005E738001DF378FB030080002A
:1007B000A9250019AD00119A109940196D4607C579
:1007C0005800AD210019890043180D9A0599049825
:1007D0000FF374FFEDE60FA807C86C462B0007C4A3
:1007E000F3E7F7B592B014000F00129800680D906F
:1007F00000200A900D9845690800403011901CF3C4
:1008000082EA06002430099028000DF021F9210029
:100810002C311091091D203700280F9188472D4851
:1008200001000000F80700000004000009358D7F7A
:1008300022D0109807AA08A903AB07C36B46E0793A
:100840000F9A0107387E090F4007400F07C30021A8
:10085000B078099A03092800FFF79CFF00280BD005
:10086000002D08D0092080012818C06B0028F8D07E
:10087000016D491C016595E030886828FBD922008C
:100880004C3268380304111F081F0692021F05919D
:10089000049003920C3938381C3A0291019000926E
:1008A000387E1B0C47077F0F1A00099930003B0068
:1008B00012F3D7FB070030000FF3DDFF002849D00B
:1008C00000200BAA0AA909E04400000478EE00C049
:1008D000B4EE00C0305502C0C81B01C000910192A7
:1008E0000A900D9B099A310038000FF3A4FE0028EE
:1008F00058D0934A0092934A934B0D9831001CF3C1
:1009000053FF002802D1129908604BE012990600AB
:1009100008600189081811991CF30EEA0E900A98D4
:1009200000284AD00BAA009209990E9823003200A1
:100930000FF3B0FE070040D1002D08D00920800140
:100940002818C06B002802D00168491C01600E986D
:10095000807922E0002F28D03807800F0FD0002D9B
:1009600020D0092080012918C86B00281AD0C26C39
:10097000521CC264C86B0169491C016112E0B807CE
:1009800010D5002D08D0092080012818C06B002840
:1009900002D00168491C0160B079C107C90F280065
:1009A00026F056ED002015B0F0BD308814383080A8
:1009B0000D980D99808814388880079C6B461A8C96
:1009C00010990F9823000FF380FE002F0AD1002DFD
:1009D00008D0092080012818C06B002802D0416E81
:1009E000491C41660120DEE7F7B582B0140007001C
:1009F0000068009001900398002540301CF38CE9BA
:100A000006000198F1784069490605D42030807EBF
:100A1000400731D401252FE0002C02D1002005B081
:100A2000F0BDA17AC90720D0E0790007000F0128A6
:100A300005D1039922006846FFF7DDFE05E0039922
:100A4000220004236846FFF7C0FD050000983860C7
:100A5000B079C00710D1002D0ED0A07980070BD53A
:100A6000A07AFD210840A07206E009218901401802
:100A7000C06B8168491C81602800D0E7F3B589B05C
:100A800005000A98002814D02C896E69611920226B
:100A900001A81CF300E86B46987901AF0007810FAD
:100AA0000120884029490988084204D1280021F002
:100AB00053F80BB0F0BD200020216C18203829819C
:100AC0002071000A6B466071988B00092072000A41
:100AD0006072B07A2070F07A6070A0360E20305EBE
:100AE00023F0D5F920730A20305E23F0C3F9607338
:100AF000FF20A0720A9A3B002100280021F03CF957
:100B00000520A0710020E071012060742074A88885
:100B1000A070000A22000B32E0700A98D11C1DF36D
:100B200062F820F0DDFF0B4B060009481C6800222C
:100B3000290000680523A047300020F0D5FFB8E762
:100B4000BC1B01C0C41B01C0305502C00000000422
:100B500078EE00C0B4EE00C0010002A010B50AF3A8
:100B600032FC10BD7364696F0000000010B5040012
:100B7000C0200DF09EFB00F008FAE00602D50BF055
:100B800080F910BD0BF021F910BD0020EEE7000048
:100B9000052803D259498000085C7047FF20704740
:100BA0000A00032010B5FFF7F3FF904201D1FFF7D1
:100BB000ECFF10BDFF280BD0504A00218B00D35C06
:100BC000834202D10806000E7047491C0529F5D35F
:100BD000FF207047FF280CD0484A00218B009B184B
:100BE0005B78834202D18800105C7047491C05295C
:100BF000F4D3FF207047052804D2404980004018F4
:100C000040787047FF207047FF280CD03B4A0021F6
:100C10008B00D35C834203D18800801840787047F2
:100C2000491C0529F4D3FF207047FF28006922C022
:100C300001000000F40B000000040000FD5AF8CB96
:100C40000CD0334A00218B00D35C834203D188004F
:100C5000801880787047491C0529F4D3FF2070471D
:100C60002B4A00218B00D35C834206D18800801878
:100C7000C0784007C017401C7047491C0529F1D3B4
:100C80000020704770B505000C00100000F041F91D
:100C9000200000F0C4F82800FFF7A6FF022805D0C6
:100CA000032803D0042801D0052803D1200000F038
:100CB0006BF870BD20000DF038FB70BD10B504005E
:100CC000C00005D50122120311040C20FFF7DAFF42
:100CD000200105D50122D20211040B20FFF7D2FF1B
:100CE000600105D50122920211040A20FFF7CAFF14
:100CF00010BD0120C00310B500F00BF90120C007A2
:100D000000F08DF80349C86880229043C86010BD88
:100D100048F100C000280080F3B581B00F000198B1
:100D2000FFF752FF05000198FFF778FF06000198D2
:100D3000FFF785FF0400032D07D1042E05D11020F5
:100D400000F0E7F8B00400F073F8002F16D1019816
:100D5000FFF786FF002811D0231F1CF3C2E8060FFF
:100D60000F0F0F07040F0021102005E02649A800EF
:100D70004018C0780021C00809F323FEFF22019922
:100D80001000FFF717FFFEBD10B50400C00203D529
:100D900001210220FFF7C0FFA00203D5012103209B
:100DA000FFF7BAFF600203D501210420FFF7B4FF6B
:100DB000200203D501210520FFF7AEFF0120000727
:100DC000844205D04010844202D0401084421AD19F
:100DD000FF208206A11808D0891804D0C2068918FD
:100DE00004D10C2002E00B2000E00A20FFF7FCFEFB
:100DF000022805D0032803D0042801D0052802D1F9
:100E00000121FFF789FF10BD48F100C013490A68AE
:100E100002430A608A6802438A60012070470F49D2
:100E20000A6882430A608A6882438A6001207047A8
:100E30000A49C043C8600120704710B5074C803490
:100E4000216962690F23DB0199439A43002801D08D
:100E50001A4300E019432161626110BD80220080C5
:100E60008348006841680122520491434160704701
:100E70007F48006841680122520411434160704775
:100E80007B480068816B0901090C01D00020704784
:100E9000816B002904DA816B0906090FFBD100E0A0
:100EA000806B01207047724909688A69120C12042C
:100EB00002438A6170476E480068816BC907FCD0A5
:100EC00041680122D2039143416070476849096833
:100ED0000A6B086348680122D203104348607047D8
:100EE00063480068406A70476149096880314A6A0E
:100EF0000001120F1207000902434A6270475C4862
:100F00000068C06A70475A490968CA698243CA6161
:100F1000704757490968CA690243CA617047544912
:100F200009680A6A02430A627047514909680A6AF5
:100F300082430A6270474E48006880304168490821
:100F40004900416070474A4800688030416801228A
:100F500011434160704770B5454D28688030016885
:100F60000122114301600168424C490205D5016824
:100F7000A14301600A2026F008EA28688030016851
:100F80002143016070BD3A480068010080310A6861
:100F9000520852000A60816BC900FCD47047344883
:100FA000006880300168334A9143016070473048DF
:100FB00000688030C068704770B52D4D29680E6993
:100FC0000C00012109040E432661210080310E69C5
:100FD000086148694B618869F0208861C869CA6105
:100FE000A06810210843A060A06820229043A06060
:100FF0002868416B436B8B42FCD0FFF7D8FF002879
:10100000F6D128688168114381604168012252034A
:101010001143416070BD1648006880300069704718
:10102000134800688168202211438160704710488E
:10103000006881682022914381607047C1E08BB9CC
:1010400001000000F00F000000040000AE802BA79C
:101050000C49096880310A681F23DB05C0069A43E2
:10106000000902430A600868012212071043086061
:1010700070470448006880300168FF22521C114309
:101080000160704788EE00C00000400038B50024C1
:101090000C4D01E08047641CA00028580028F9D1BD
:1010A00009480B4902680092084A0A480A4B07F3AC
:1010B00057FC0AF0B4FD09480168002901D000205E
:1010C000884738BD50B602C074F100C0B84800046B
:1010D0003C00000430000004008002C08CEE00C020
:1010E000FEB50D001600089F0A9A0999002800D144
:1010F000FEE70468002C00D1FEE702920191320065
:101100002900200000970EF007FEFEBD10B506F383
:101110001BFA0006000E10BD10B506F3A7F9000675
:10112000000E10BD002810B501D006F3DBF910BD8C
:1011300038B514006A4606F335F90098207000208F
:1011400038BD10B5040006F387F82060002010BDFC
:1011500010B506F357F910BD7CB50D001600079ABF
:101160000699002800D1FEE70468002C00D1FEE7B4
:10117000019200913200290020000EF0ABFE002801
:1011800000D165637CBD10B5416B0EF0BAFE10BD99
:101190007CB50C001500069A002800D1FEE7006817
:1011A000002800D1FEE70021019200912A002100D1
:1011B0000EF0E0FD7CBD10B50EF0FBFD10BD00286B
:1011C00010B500D1FEE70068002800D1FEE70EF060
:1011D00067FE10BD002810D0092189014218D16B8B
:1011E00000290AD00B695B1C0B61D16BCB685B1CBF
:1011F000CB60D16B0A6E521C0A66FF304130C17958
:1012000080221143C171704770470648142110B500
:101210001BF3F0EC04480121017000218160C160E2
:1012200010BD0000305502C0BC1B01C09048416891
:1012300010221143416070477047F1B582B000261B
:1012400020F062FC00908B4800210068012806D144
:101250008848029A00694369934200D141618648F7
:101260004468019425001BE0A0008718B868029B21
:101270004169994206D1761C002120F035FC0020FE
:10128000B86008E0A900891888600020102D019539
:1012900000D0681C05000020102C00D0601C040049
:1012A000754A00201168102900D0481CA042DBD1EB
:1012B000002E07D070484168A94201D1446001E086
:1012C000019901606B484068012807D16B48029979
:1012D000006842698A4201D10021416166484C3070
:1012E000446801942500002728E024206043029BE5
:1012F0008618F0684169994208D17F1C21F0AEFC44
:1013000030000C3024211BF376EC12E024216943D9
:101310008B18D8603069186131001800143114300E
:101320001C221BF336EC0020372D019500D0681CE1
:1013300005000020372C00D0601C04004E4A00201D
:101340004C321168372900D0481CA042CDD1002F63
:1013500008D049484C304168A94201D1446001E0BD
:1013600001990160009820F0D3FBFEBDF8B505009F
:10137000002420F0C9FB3F490A68012A04D1096909
:101380004969A94200D101243B4F00263B68796896
:101390000BE08A00D21992685269AA4200D1012456
:1013A0003200102900D04A1C1100002C05D1320057
:1013B000102B00D05A1C8A42EBD120F0A9FB200050
:1013C000F8BD70B50E0004981D0001890C18207836
:1013D0004007400F90420FD1E06D2900FF31801D82
:1013E00006224A3120F0B4F8002805D168200655BD
:1013F0002100280021F08CFC70BDFFB581B01E00DB
:101400001C480168012906D1026901A8009207C899
:101410003300FFF7D6FF184900270D683800102D5C
:1014200000D0681C4C68A04215D00EE01249A00004
:101430004018826801A8009207C83300FFF7C1FF77
:101440003800102C00D0601C04003800C65AAC1BB9
:1014500001000000EC1300000004000011450E1410
:10146000102D00D0681CA042EAD105B0F0BD07489D
:101470000021C943002206C0443042600160044993
:101480008160704700A00090080000045C02000426
:10149000D03D00040020704710B512F0B7FB10BD1E
:1014A0000100FD4810B5C068072221F07DF9002039
:1014B00010BDF8B50700F84D0AF320F804000E003F
:1014C000F64938000FF3FDF90AF318F8041BE86B2E
:1014D000B1410B000021001B994100D3EC6BEC6380
:1014E000F8BDF1B584B0EC4CA06A401CA0620AF3D0
:1014F00005F8EB4F0290FE6A0D00EA48F862EA48F0
:10150000406921000190E9481E221C310FF3E7F9E0
:10151000002802D0A06B401CA063FE62E2488069F4
:10152000606209F3EBFF029A676B861AA9410D000E
:101530007A1C0020206B616B002348430021801936
:1015400069411BF3A4E82063606B401C6063E06AA0
:101550000021801BA94100D3E66AE662E069216AA6
:10156000884201D9E06900E0206A2062049A01996A
:10157000CE481143884301D0FFF79BFFA26BE16A7D
:10158000112019F097F805B0F0BDC948008800286F
:1015900004D0C84901200978042900D000207047F0
:1015A00020207DE7F8B50024BB4D6868002801D1F4
:1015B0002000F8BD20F0B2FA0090A86901273B0096
:1015C000002800D00023002039008140AA690E00C5
:1015D000164202D10C000A43AA61401C002C01D122
:1015E0001F28F1DD002B04D010F36DFCFF20FFF766
:1015F00078FF009820F096FADAE770B5040020F042
:101600008DFA0500A44800224168002901D122601A
:1016100070BD2368816999438161226007D1FF20F1
:10162000FFF747FF10F347FC0120FFF739FF2800C1
:1016300020F078FA70BD38B5040041696A4622F09E
:10164000EDFD002802D12000FFF726FF002802D17F
:1016500020001BF39BFF38BD38B505228E4C0021BE
:10166000E06821F0A1F8944805220068002121F0EB
:101670009BF802E000981BF389FF206904220023F5
:10168000694621F08DF80F28F4D18C4800250570AB
:101690008B4812211BF3B8EA8A48257005600020A8
:1016A00038BD60235843884A10B58418A088E28862
:1016B000824201D1012010BD8200A21892680A6006
:1016C0001421401C1BF354EFA180A06D401EA065A7
:1016D000002010BD70B50C00417A160002290AD115
:1016E00006F0E7F8012806D130001C3802210AF084
:1016F000E8FA01280BD06021614373480C18E58893
:101700001421681C1BF334EFA088884201D101200A
:1017100070BDA80020188660E180A06D401CA06507
:10172000002070BD6848602110B51BF36EEA5A496D
:101730000020486110BD001F10B50406240E042CC3
:1017400013D2602060436049401860211BF35CEABB
:10175000514A01205169A04008431021A140014392
:10176000FF20401CA0408143516110BDF8B5041F0B
:10177000042C24D220F0D2F90600474DFF20401C53
:101780006969A04008420AD003E000981C3821F0A3
:10179000E9FA20006946FFF784FF0028F5D0FF2111
:1017A00012316869A14088436861602060434649FE
:1017B000401860211BF328EA300020F0B3F9F8BD8F
:1017C000F8B5041F042C25D220F0A8F90600324DEC
:1017D000FF20401C6969A04008420BD004E000983B
:1017E00000211C3820F08AF920006946FFF759FFD4
:1017F0000028F4D0FF2112316869A1408843686154
:10180000602060433049401860211BF3FEE930003E
:1018100020F088F9F8BDF8B5002425002A4EFF27EE
:101820007F1C602060431C49355438004969A04042
:10183000084202D00120FFF733FE641C042CF0DBC9
:10184000F8BDF8B5050020F069F906001F492048E9
:1018500025F020EEFFF7A6FE009028001E044B9E08
:1018600001000000E817000000040000429FDD783E
:10187000FFF7F7FC00242006000E290011F06EFE91
:10188000641C042CF7DB6846FFF7C1FE300020F033
:1018900053F9F8BD0B480088002805D00A480178A4
:1018A000032901D10421017070470000EC79020086
:1018B000FFFF0000C0A60080FF7FFF7F40A20080E6
:1018C000FF0300009C3601C09DF000C0487A020072
:1018D0002C0000049C3F00043C7A02001C3E0004E3
:1018E0001111FFFFBBBBBBBBFF4900204860704725
:1018F000FD49002088607047F7B582B00600FA4DB8
:10190000A86800284AD1FF21F84800222D311BF396
:1019100071FE040042D001200221A860217366619B
:10192000617B0143F2486173A061AC202081FF20FC
:101930005130825BEF480092006832000379B12099
:10194000800031187E3220000EF333FE07001C2089
:1019500025182081702128001BF360E928006030E1
:101960000499019041723000EF6512F06AFAE34A7F
:10197000A8701279E049920605D4002803D0A8681F
:101980004A071043A860019803220272200012F057
:10199000BBF9002805D120001BF302FE002005B092
:1019A000F0BD0120FBE7FFB587B0070000200490E1
:1019B0000A98002803D0CC48406800287ED1FF2434
:1019C0002D3402E00120FFF7C1FB2100380004F0B4
:1019D00032FD0500F6D028894619380023F00CFBAB
:1019E000002801D00C2000E00420B1210590387AB5
:1019F00089003A0079187E320628019200910AD1B6
:101A00001300059ACB33022130000EF30FFEF0785D
:101A10004008400008E01300059A022130000EF350
:101A200005FEF07801210843F070F078EF210840BE
:101A300008992C00C907C90E0843F070FF20C01C8C
:101A40003071000A70710020307070701C20288185
:101A500002202900287330311C34039170212000AA
:101A60001BF3DCE821006031119806917728487259
:101A700001D0782804D1A068012149060843A0605C
:101A8000E6650A9800280AD00120C0079649A060A0
:101A900001204860697B014399486973A86100206F
:101AA000208005980C2821D10999380023F0B0FA3C
:101AB00041072078490FC008C00000E06CE00843EF
:101AC00041072070490F380023F0BEFB0101E06D93
:101AD000028B1207120F0A430283E06D017E09098F
:101AE0000901017620789F2108402070099A210081
:101AF0003800002323F0BAFA1098804E002806D14F
:101B0000069909200872380012F09BF91FE00021A5
:101B1000380016F095FF0328A0701CD93079C00654
:101B200004D576484030807D40060CD5787A02286E
:101B300011D10B2080013818006A13214901401887
:101B40000079000707D50321380012F024F9A070AE
:101B50000120000304903079800607D4A078002883
:101B600004D0A068012189070843A0600399049864
:101B7000C8613900280002AA22F05AFB01280BD0C4
:101B80000499280012F0C0F8002805D128000CF0B4
:101B9000C7FA28001BF304FD0BB0F0BDFFB5FF2111
:101BA0002D31060085B004F046FC07007ED03000E1
:101BB000FF30317A4A300129049002D0707A02282D
:101BC00004D10499300023F00BFA02E0300023F036
:101BD00013FA6B460390187EF321084008301876FC
:101BE0000399002903D00007000FC03002E000076E
:101BF000000F40306B46187638893200C519B12085
:101C000080007E323118019200911C7E049B2007D7
:101C1000810F220928000EF309FDFF20C01C287146
:101C2000000A68716B46AC70587EE870707A0228C2
:101C30000DD10221300025F03CECE9788A06D20F64
:101C40001043C007DF22800E11400143E9701C20C1
:101C500038813C183800BD6708997C3041720E9974
:101C600001720398002835D06B46988B49E423C84D
:101C700001000000E41B000000040000B6F0A8CC46
:101C80002080707A032820D130001CF0E7FB01008F
:101C9000300023F0C7F941072078490FC008C00081
:101CA000084341072070490F300023F0E7FA010193
:101CB000E06D028B1207120F0A430283207800E0C6
:101CC00033E09F21084020700EE00C4A508801014B
:101CD000401C5080687E2A7E000210430007000FDF
:101CE00008432876000A68760021300016F0B2FE1C
:101CF000A070089831281BD002AA0DE0CC1B01C0AF
:101D00006C00000469180000C0F400C00214000058
:101D100082550004611800003100380022F092FA68
:101D2000012805D1029800280CD0012009B0F0BD8F
:101D30000021380011F0F2FF012803D038001BF316
:101D400039FCF2E70020F1E70200894810B500688D
:101D500004210023FFF74DFA002804D10220FFF7E9
:101D6000B3FB002010BD012010BD70B50400814DF3
:101D700028680079A04201D000F073FB2868047144
:101D80007D48446170BD10B522F097FB002801D159
:101D9000012010BD002010BD784970B50125096BE8
:101DA000490719D5FF2804D1002412F017FA0100C1
:101DB00001E001000400724B1E1F0AE0E000C2189F
:101DC000126880190068824200D00025641C012D31
:101DD00008D18C42F2D905E06A48816AC06A814222
:101DE00000D00025280070BDFF2010B5FFF7D4FFFC
:101DF000002801D012F068F810BD634870B5007873
:101E000000284BD1614800220068082109F359FBE2
:101E1000002843D1FFF7E8FF00283FD05C4806F3D5
:101E20000CFE04005A48082106F396FD05005848A8
:101E3000102106F391FD281884422FD1554806F34E
:101E4000FCFD04005348082106F386FD05005148B7
:101E5000102106F381FD281884421FD14E4806F355
:101E6000ECFD04004C48082106F376FD05004A48C5
:101E7000102106F371FD281884420FD1474806F35C
:101E8000DCFD04004548082106F366FD05004348D3
:101E9000102106F361FD2818844201D0002070BD96
:101EA000012070BD70B501200BF015FB00285ED13C
:101EB0003B4C354D354E08E02078401C2070012009
:101EC000FFF702FB0120FFF74BF928780028F3D138
:101ED00030680022082109F3F4FA0028ECD102E06E
:101EE0000120FFF73DF9FFF77FFF0028F8D02848D1
:101EF00006F3A3FD04002648082106F32DFD050086
:101F00002348102106F328FD28188442E8D12148EF
:101F100006F393FD04001F48082106F31DFD05008C
:101F20001C48102106F318FD28188442D8D11A48FD
:101F300006F383FD04001848082106F30DFD050093
:101F40001548102106F308FD28188442C8D113480B
:101F500006F373FD04001148082106F3FDFC05009B
:101F60000E48102106F3F8FC28188442B8D170BD41
:101F7000FC790200C0F400C040A6008040A30080AD
:101F800034A9008000A000802C00000474EE00C082
:101F9000300000046C0000044C010004FC0000044C
:101FA000CC1B01C0FF305D3089080E2210B516F33E
:101FB000C0FE800010BD10B504000C235843FF493B
:101FC000401800210A000B000EC0200010F30AF98F
:101FD000200010F312F9200010F3F9F810BDF7B546
:101FE00086B004001600F64A0025009207983100DA
:101FF00004AA03AB04950EF3EAF86B46187C001FA5
:10200000032859D83006000E05901BF383FF1BF3FD
:1020100092FF0600607A032806D16B461B7B059968
:10202000320020001CF029FA6B46187C31001CF0AD
:10203000A7FA1FF087FD0700FFF7C8FA6B4602906A
:10204000187BA423DD4958433031401880306B465B
:102050000576DC4A187C68390EF36FF86B46197CFC
:10206000187B11F3C8FB6B46187CFFF793FB6B469C
:10207000187C059A31002300FFF7DDF9608268A320
:1020800001000000E01F000000040000E52A7BA022
:102090006B46197B300011F3C6FA6B46187C2200A0
:1020A000310011F0AFFA02A8FFF7C5FA38001FF0AF
:1020B00057FD6B46197B079A200012F039FD6B46DD
:1020C000187BFFF782FF012009B0F0BD0020FBE77D
:1020D000F7B584B005001600BE4A009200240598AA
:1020E000310003AA02AB03940EF37BF8BC4FBB494B
:1020F000380025F0EEE96B46187B001F032847D80F
:10210000F913380025F0E4E93006000E1BF30CFF4C
:102110001BF31BFF01006B46187B1CF03BFA1FF002
:102120001BFD0600FFF75CFA6B460190187AA423AA
:10213000A74958433031401880306B460476A64A90
:10214000187B68390EF303F86B46197B187A11F384
:102150005CFB6B46187BFFF751FB2800FFF795F8F7
:102160006B46187A11F3F9FA6B46187B290011F0C7
:1021700009FA01A8FFF75FFA30001FF0F1FC6B4687
:10218000197A059A280012F0D3FC012007B0F0BD9F
:102190000020FBE7F8B50D00060000241FF0DCFC72
:1021A0008C4A07002906090E603230001BF316FC2A
:1021B0000A280DD2874A002100016032115480188C
:1021C000C1602900300011F36AFC0BF028F90124EA
:1021D00038001FF0C5FC2000F8BDF0B50500002058
:1021E00085B0019008780C000007400F16D111F35C
:1021F000F9F80700042811D077480DF3DAFF06003C
:10220000401C0BD03806000E3106090E0200049067
:102210000F00200011F3A3F9002802D1002005B01F
:10222000F0BD687A022831D1280022F011FE132176
:1022300049014018807B800706D56320405D8007F8
:10224000002801DA012001900199049811F002FAA6
:10225000220004991432280012F054FC201D1AF3B5
:1022600098ED0006000E1BF35FFE1BF36EFE02905E
:10227000687A03280DD1201D1AF38AED0106049B0C
:10228000090E3A0028001CF002F908E0E868000690
:10229000D6E7022803D1029930001CF085F902200C
:1022A0001BF353FE010030001CF074F94D484E4AF8
:1022B000416A029840003030085A904200D1886A42
:1022C0000104090C380011F06CFA380011F35EFBC0
:1022D000300011F34DFB3E4A0120B100383A505016
:1022E0003C4A0092049A3B00210028000DF360FE56
:1022F0003800FFF73EFA1FF02FFC0600FFF770F9D9
:102300000390201D1AF344ED02060298120E2B00D2
:102310003900FFF79AF8201D1AF33AED02060299E8
:10232000120E2B00380011F079F903A8FFF783F99A
:1023300030001FF015FC012071E7F3B581B00600F5
:102340001FF00AFC234F0024009018206043395CE2
:1023500000290BD0C51968781BF3E6FD1BF3F5FDCA
:10236000B04203D1E878029911F01BFA641C2406EC
:10237000240E042CE9D300981FF0F2FBFEBDF8B543
:102380000025144F18206843395C002933D0C41944
:10239000201D22F0D6FD06002DD0617800223000ED
:1023A0000BF097FA6B46198800010907090F0143E2
:1023B00000911878000900011870A078009911F3B5
:1023C0009AF86B46188800096081002020730DE0A0
:1023D000C07F0200887E0200307A02006666FFFF3E
:1023E000BBBBBBBB38520004FFFF00006073290079
:1023F000300001F0E8F96D1C2D062D0E042DC1D31F
:10240000F8BD70B505000C000FF301FF0C21694306
:102410004E4B5A5812185A50226070BD70B50500C4
:102420000C000FF3E9FE0C226A43484951188A68F0
:1024300012188A60226070BD70B505000C000FF3A1
:10244000D0FE0C226A43414951184A6812184A606A
:10245000226070BD10B504001FF07EFB3C4A0121D4
:102460001368A140194311601FF07AFB012080021C
:10247000FFF734F810BD36490F2010B50860012071
:102480008002FFF72BF810BD70B51FF051E6E25542
:1024900001000000DC23000000040000CDBBFE1D95
:1024A00065FB2F4D00212F4E0C0030353268D307CD
:1024B00004D0A4234B435B1980331C765208491C7B
:1024C00004293260F2D31FF055FB70BDA4232449C8
:1024D0005843303140187047F7B505000026204FAB
:1024E00034003037A4206043C0198030017E0129B8
:1024F0001ED16978027D91421AD12978827D91425C
:1025000016D1297B427D914212D1C17D002902D191
:10251000697BC90608D501690198FF314A31062255
:102520001FF048F8002803D102980126047002E049
:10253000641C042CD6D33000FEBD30B51C00A4238F
:102540005843074B4D783033C018030080331D7556
:102550000D789D751A61097B5975DC7530BD0000D9
:10256000C07F02002C7A0200F8B50324260003285D
:1025700001D1002439E0032837DA0400461C34E096
:10258000FC4861010A1882206043FB4B95680021DA
:10259000C0188173C173417CF84B4906490E4174E0
:1025A00001211888A14088431880202110001AF3C7
:1025B00054EB002D18D00B2080012F183869002112
:1025C000FF30C94321304181280000F0DFFA0028A4
:1025D00004D0E868012109048843E8603869FF30C5
:1025E00021304189E5488160641CB442C8DBF8BDF4
:1025F000F0B50C0007000120002985B003D10320AD
:10260000FFF7B2FF75E0E178A278090211430A00F2
:10261000FF3A193A6ED1617A4D066D0E032D69DAD3
:10262000D44A6901891803918968002901D0B94207
:1026300060D1E07AA17A000208430B218901791860
:102640000028029103D12800FFF78EFF4AE0822183
:102650006943C9480E186079217902020A433000A3
:10266000921D210008301AF35CEAF17BB27B08026C
:1026700010437D23DB0058430090C11701910822CD
:10268000300069461AF34CEA039820211AF3E4EA71
:102690000398BA49876001200A88A840104308803F
:1026A000607AC0091ED0F07BB17B0002084319D0CC
:1026B000F868012109040843F860F07BB27B01024D
:1026C000029811430469E01DF930806B1AF378EF2A
:1026D000FF3421346189AA4A0004000C914200D0E1
:1026E0000818608102980069FF3021304189A348B1
:1026F0008160002005B0F0BDF8B506009D4F0024B4
:10270000822161439C480818C17B827B08021043E8
:1027100007D06001C519A868B04202D10FF3CCFA06
:1027200003C5641C032CEBDBF8BD032010B5FFF7D9
:102730001BFF9048002160300A000B000EC00EC045
:1027400008008E4948608860C86010BDF0B5002060
:1027500089B0040007900FF3AFFA0E0006908221B3
:102760006143854808180890C27B817B10020843AA
:1027700045D0804861010D182A6806986B683100C1
:10278000801A994106D32A6806986B683100801A2E
:10279000994106E028686968069AC043C9438018D1
:1027A00071417D220023D20019F398EF049006981E
:1027B0000F0041C50822089902A81AF3B2E902A83D
:1027C00007C83B00121A8B4110D20899082202A8B0
:1027D0001AF3A6E902A807C8801AB941019100902E
:1027E0000898082269461AF39CE908E0089808222C
:1027F00064A11AF396E90798012108430790641C25
:10280000032CACD3079809B0F0BDF3B581B08E1C92
:102810000A270024574861010818816801988142FD
:1028200017D18221614354480D18687B297B02022D
:102830000A432900121D0A3130001AF372E9687B3D
:10284000297B00020843361D86193F1DC019070465
:102850003F0C641C032CDDDB3800FEBDF8B54201E3
:1028600082234449584354184349A6684018407C81
:10287000C0094042304253D00B20800135182869EE
:102880003F4AFF3021308189914249D02269A169B4
:10289000914232D8E1686069884237D9A6B37FB6E1
:1028A00001000000D8270000000400009E612D7187
:1028B0000FF30CFA2A69364FFF32213293895B1CE1
:1028C0001B041B0C93812A697B6029D0D31DF9332B
:1028D0009F6B334BFF325F4331320CCA801A9941F0
:1028E00000233A1A8B411BD229490122C8680223CE
:1028F000401CC86028690021FF30C9432130818114
:102900003100FF314A31300017F0E6F808E00021CD
:1029100081810FF3DBF92A69FF32521C5163106386
:102920006069E060A06920612869FF3021308189F9
:1029300017484160F8BDF7B582B00D001400029849
:10294000410111480F18BE68002D7ED0002C7CD0AC
:10295000002E7AD00298FFF78BFFFF21114800224A
:102960002D311AF36FFE0028206008D1FF210E4898
:1029700000222D311AF366FE0028206065D0687AA7
:10298000C009786912D113E0802F01C0F82D01C071
:1029900098EE00C0FFFF00000000000000000000F3
:1029A00040420F006C000004FC000004401C7861F1
:1029B0000299944A8900505020684661216802209B
:1029C000087321681C20088120685A217C304172DC
:1029D0002168AC20088124681221AC3420001AF34D
:1029E00070E9142027180190B07A2070F07A210045
:1029F0006070083100201AF3F0E90020A073A07184
:102A0000E07101982071000A6071E87AA97A0002E9
:102A10000843010AA0700E28E1700CD2E87AA97A66
:102A2000000208430E21091AC0191AF34AE90E20C0
:102A3000A0700020E070300022F006FB002800D0DB
:102A4000287A2073607B400800E02BE04000F121F1
:102A500008406073E87AA97A02020A4329000C311F
:102A60000C0038001AF366E8200018F035F9B1249C
:102A7000A40000280BD0687AC00902D006223119C0
:102A800002E0062231007E3138001AF354E82800B3
:102A9000123018F021F9002804D006223119B81D8F
:102AA0001AF348E830E6FEB50027574E3C0002977F
:102AB000822060438519E87BA97B0002084322D06D
:102AC0000822290068461AF336E8019900987940EF
:102AD000084318D18220604302AA811908312000DE
:102AE000FFF729FFE87BA97B00027D230843DB0079
:102AF00058430090C11701910822280069461AF333
:102B00001AE80298FEBD641C032CD1D30020FEBD40
:102B10003E48008870473D4A010012880020002A84
:102B200005D0002903D0C968C90400D50120704729
:102B300070B500281BD0334C0C34002918D1216803
:102B40000022491C21600B21890144182069FF30B3
:102B5000213082810FF3BAF82269FF32521C51638F
:102B6000106320692949FF3021308089486070BD99
:102B7000244D0021603D4B015B199E6886420BD1BC
:102B80009E69761C002A9E6103D063685B1C6360AB
:102B900002E0A3685B1CA360491C0329EBDB70BD4A
:102BA000F8B506000B2080013018056901270024C4
:102BB00014486101603808188068B0421CD1822135
:102BC000614311480818417CC90915D0C17B807B3D
:102BD0000027090201430FD0E81DF930806B1AF37A
:102BE000FAEC01042800FF3021304289084B090C1F
:102BF0009A4200D051184181641C032CD8DB380064
:102C0000F8BD0000E02F01C0F82D01C098EE00C013
:102C1000FFFF000070B50500002422F02DF906002A
:102C2000280009F057FE2B7A1AF3A0E907050F05D3
:102C3000051818141800697A022902D13400643486
:102C400013E0002911D004680FE00B208001281840
:102C5000046A0AE0172040012C1806E01EF090FFDD
:102C6000FF48FDF7BDFA24F040EC200070BD70B5C0
:102C70000500002409F02EFE297A002908D0012938
:102C800008D003290CD1697A032901D001290FD179
:102C900044680DE00B2080012818046A183407E00E
:102CA0001EF06EFFEE48401CFDF79AFAC3E0D6F620
:102CB00001000000D42B0000000400006A0E58C57B
:102CC00024F01CEC200070BD70B50500002409F054
:102CD0000BFE297A002908D0012908D003290CD13C
:102CE000697A032901D001290FD1C4680DE00B20B6
:102CF00080012818046A253407E01EF04BFFDD48E8
:102D0000801CFDF777FA24F0FAEB200070BD017A01
:102D1000012905D10B2189014018006A353070471F
:102D20006130704770B50400FFF77EFF050020009A
:102D300022F0ACF8617A022904D11321490140182C
:102D4000807B0CE003F0BEFA0B2189016118012899
:102D5000086902D16030807801E060300078C006F8
:102D6000C10F08D02000290061300DF365FE002856
:102D700001D0012070BD002070BD70B504000D00B1
:102D800022F084F8617A022904D113214901401804
:102D9000807B12E0207A062802D16320005D0CE0DF
:102DA00003F090FA0B21890161180128086902D10A
:102DB0006030807801E06030007881064006C30F03
:102DC000CA0F2000290061300DF344FE70BD10B51C
:102DD0000400407A022802D0207A062805D120007B
:102DE000FFF722FFC07840070DE003F06BFA0B21DC
:102DF000890161180128086902D16030807801E0FA
:102E0000603000788007C00F10BD603040798007C7
:102E1000800F7047C0684006C00F70470100C96846
:102E200000204A0602D5090600D501207047F7B5F3
:102E300084B0002406000F00FFF7F6FE0500300006
:102E4000FFF71FFF03903000FFF73EFF0200300046
:102E5000FFF75DFF0300F0684006C00F0AD003983B
:102E600000216E4607C61A00069938002B000DF3A4
:102E700008FE0400200007B0F0BD08B50168836AB1
:102E800001290AD10022026001007B4A1800009249
:102E90007A4A7B4B1C310DF36BFE08BDF8B50D0073
:102EA000FF21040017002D3103F0F7FA00282860F5
:102EB00011D00189220046187E32B121890000928A
:102EC0003A0061180D2303F03DFB032020363070DB
:102ED0002968AC200881F8BDF7B5FF210500060080
:102EE000FF364A362D3182B003F0D7FA04001BD0EA
:102EF00020892A007E32B121271889000092200003
:102F0000320069180D2303F01DFB042020373870B0
:102F1000AC202081049A039920000EF383F920004D
:102F200003F066FB05B0F0BD0020C043FAE7FFB533
:102F300087B01C0006000020069052484068002818
:102F400002D0504817F37AFC4E4F089818370028E3
:102F500030D12079E178000208432BD1307A012862
:102F600004D0717A022901D0062807D160790022A5
:102F70008006010F30000AF0CAFC05E06079800687
:102F8000010F30000BF028F9050060796B461875C9
:102F9000A0795875384AB120800003923749099AC0
:102FA00030180291019000927A89059B2900300027
:102FB0000DF350FF300024F0B2EA05006079C32120
:102FC0000840397A23008906090F89000843607197
:102FD000069A0092099A089928000DF30CFF280020
:102FE00024F0A0EA0BB0F0BD7CB504001EF0D2FDC9
:102FF0002549050048686B46401C4860E079987098
:10300000207AD870A07A617A000208439880E0683C
:10301000631C0122694624F08AEA28001EF0BEFDE6
:103020007CBD7FB504001EF0B5FD0500164A2100E9
:1030300001A80EF3E1F8002807D0012200922069D0
:10304000621C022101ABFFF772FF28001EF0A6FDF3
:103050007FBDF8B50D000124417A022922D10B2150
:1030600089014118096801291CD121F036FF0600A9
:1030700028000BE0030001008F2D0000887E020075
:10308000E87E0200105802C0D81B01C01AF36AFF84
:103090007D21895D00910100009804F0ADFB0028BE
:1030A00000D000242000F8BDFEB50400401C21F033
:1030B00066FF0500FF4F57D0E8684006C09DB08A04
:1030C00001000000D02F00000004000039D48BA9BB
:1030D000C00F53D0207A8006010F2800FFF7C3FFEE
:1030E00000284BD0207A8006010F0191687A0328CE
:1030F00001D001280BD1280021F0C6FF217A06005B
:10310000C32001403007800E0143217200E00E0011
:10311000EE49320020000DF349FF411C46D0621CED
:10312000280002A9FFF7C4FE0298002826D0287ABA
:10313000012804D0697A022901D0062805D100228D
:10314000310028000AF0EDFB03E0310028000BF00D
:103150004DF80100029822000DF300FF207AC321F0
:10316000084001990907890E08432072D848E1797F
:103170000170029803F046FA401C01D1380013E0B8
:10318000D4480E22210019F3EAECD2480561183820
:1031900017F3EEFACF4864220092CF4ACD4B0121BB
:1031A000183817F324FB0120411C16D1617B227BC8
:1031B00009021143E181E17AA27A090211432173E4
:1031C000090A6173217AA172617AE17201210022F8
:1031D000217262722170BE490A70FEBD7CB5040086
:1031E000401C21F0D6FEB84E050012D0E86840061B
:1031F000C00F0ED0621C280001A9FFF759FE0198EC
:10320000002806D021000DF3EBFE019803F0FAF937
:103210000600701C02D1012020700CE0607A217A37
:103220000002084307D1AD4A0092AD4A00212B00AD
:1032300020000EF320F830007CBDFEB50400401CD9
:1032400021F0A7FEA04E050003D0E8684006C00F9D
:1032500001D13000FEBD687A032801D001280AD1CF
:10326000207A0109280021F00FFF217A0907090FB0
:10327000000101432172E0796B461872207A58727E
:1032800002980190A07A617A07020F43621C28001D
:103290006946FFF70DFE0098002801D1300006E0D6
:1032A00001993A000DF3F5FC009803F0ABF9411CCD
:1032B00002D101212170FEBD0028FCD185480B22DE
:1032C00021002C3019F34AEC82482C30C5601838A4
:1032D00017F34EFA7F486422143003000092814AAB
:1032E0000121183317F383FA0120FEBD70B50B00DE
:1032F0004A780D7811020B2292018018006900248F
:1033000029438030012902D10422991C02E00100E6
:103310000422981C19F322EC200070BD10B5FFF7B1
:10332000E5FD002800D1012010BDF7B582B00500F1
:103330000E004F6B8C6BFFF781FCE9684906C90FE3
:103340000BD0297A012909D1674A2B0000926748DE
:10335000049A7E3331000DF389FEEDE5697A032985
:1033600001D00129F9D1002CF7D0002FF5D0017937
:103370004A07D30F22795207D20F934204D0FB237E
:1033800019409200114301710179CA06D30F2279C5
:10339000D206D20F934204D0EF23194012011143F9
:1033A0000171C1780A07D30FE2781207D20F934256
:1033B00004D0F7231940D2001143C170017922795A
:1033C0008B0792079B0F920F934203D089088900C5
:1033D000114301712800FFF7AFFC02000021280013
:1033E00015F0A5FCA8E510B50400C8798A79030298
:1033F0000B2080012018006913438A786030012B6C
:1034000002D0022B1BD107E00270CA7842700A7901
:1034100002714979417106E08270CA78C2700A79F6
:1034200082714979C171200015F0B5F82000FFF7CD
:1034300083FC02000021200015F079FC10BD027011
:10344000CA7842700A7902714A7942718A78E3E750
:10345000CA798B7912021A436030022A08D1827825
:103460008A70C278CA7082790A71C07948717047CF
:1034700002788A704278CA7002790A714079F5E759
:10348000F8B505000E000024154B310020006A46F7
:103490000CF314FE012808D121003000FEF7A2FE33
:1034A0000022210030000DF3ACFB084A310020005F
:1034B0000CF333FE01281ED1220031002800FEF754
:1034C0002FFE0122210013E0FFFFFFFF5C3FA8F366
:1034D00001000000CC330000000400008611AE1A89
:1034E000887E0200D81B01C0285802C0372F000078
:1034F0008F2D0000E87E0200FD2E0000404B4C00A6
:103500008655000430000DF386FB641C2406240E4F
:10351000082CC3D3F8BD38B50400FFF799FB0500AC
:10352000E068C021884300221100E060FF481300DA
:1035300000920DF3E2FD207A01280AD100220B202F
:10354000800120180092006A1100353013000DF33D
:10355000D4FDF74A20000092F64A2900613000238A
:103560000DF3CBFD2100FF314A312000FFF792FF20
:1035700000221100200015F0E4FB38BD02004032AB
:10358000002110B511849184030051846033D184EB
:10359000197820221143197099786830114342221A
:1035A00011439970182119F380EB10BDF8B50E0086
:1035B000018945690918CC6D2700203738000DF3C3
:1035C000FCFD002813D0D94AA31D483200921C00EC
:1035D0002A00390030000DF3B3FD0006000E05D0BF
:1035E000230032003900280023F0B4EFF8BD380082
:1035F0000DF3EDFD0028F9D0287A0228F6D032002C
:103600003900280023F0AAEFF8BDFFB583B01400FD
:10361000039821F04FFC8F21890040180290002070
:1036200001906078217800020843052864D9401F82
:1036300004060498240E401D00900398C17A007A75
:1036400008F0AEFD21F05DFC092686570700007AE0
:10365000083780063500800F0B2101280BD1F21EA0
:10366000012A00DDF01E050608002D16F11D0B29AC
:103670000FDAF01D0DE0032839D10120F21F012AD5
:1036800000DDF01F050608002D16F11C0B2900DADD
:10369000F01C060636162AE00098220049210CF09C
:1036A000B5FD010028D04A78901C0006000E844623
:1036B0000020521E96460EE00B18DA78AA4207DB6D
:1036C000B24205DC7B78934202D00120019004E0F5
:1036D000401C0006000E8645EED80098081A221AF3
:1036E0006046101A0406240E604608180090002C4C
:1036F00002D001980028CFD002982030807C80072B
:103700000BD5049800794007800F02D10198012859
:1037100003D10398002123F026EF049809210079B2
:1037200008420BD048206B461870012058700020CA
:103730009870039803226946FFF7E2FB012007B067
:10374000F0BDFEB50500160048780C0001270C36C8
:1037500000280CD001282FD0022842D1E868C004EC
:1037600040D52200310028000DF313FB3AE0E86851
:103770004006C00F0BD020F099FC002816D00B207B
:1037800080012818006980300078C0070ED0320010
:1037900028006946FFF796FB0098002822D02100F8
:1037A0000DF396FA009802F037FF1BE02A00210083
:1037B00030000DF3AAFA15E01EF000FA01905D4802
:1037C000A178401E0278914207D1002101702300A8
:1037D000320028000091FFF7BEFB01981EF0F2F9BD
:1037E00000E000273800FEBDF8B501250700524E65
:1037F00000242D03FF374A37182060438119305CBD
:103800000A000A3200280BD01088A84208D0091DEF
:10381000062238001DF0F6FE002801D10120F8BD77
:10382000641C042CE8D30020F8BDFEB504000D0094
:10383000407A02280CD1200004F08BF8002807D031
:10384000FF205130015B0122200023F090EEFEBDED
:1038500018216943384802AA0D1868892F000D37CE
:103860000190781E00900821200002F049FE060019
:10387000EDD002980421C06D01700021417020300C
:103880000421040019F33AEA207804210843207047
:10389000607801076878090F000101436170E078E2
:1038A000A1780002084301990007000F09010843AD
:1038B000A070000AE0702149300010F06BFA002877
:1038C000C5D03878401C3870009801210170FEBDC9
:1038D000F8B505001EF072F9174E0700F38C59B0C9
:1038E00001000000C837000000040000D5CB7D7641
:1038F00000241820604381190A00305C0C32931EAA
:10390000002815D01078002812D11888012212033F
:1039100090420DD02800FF30091D06224A301DF0CC
:103920007BFE002804D12106090E2800FFF787FF3F
:10393000641C042CDDD338001EF04EF9F8BD0000E5
:10394000F45702C0445502C0D91B01C0887E020052
:103950000210000010B5FA4C606B002805D123F06E
:1039600014EE002801D001206063606B10BD10B51B
:1039700023F00EEEF2490020486310BD30B5002060
:10398000F04D0D21040003008901691814E0E86876
:10399000401CE8601000526B8A62002A00D1CB62A2
:1039A0000279052A0BD12A69521C2A6183620360BD
:1039B00003710020002C02D18A6A002AE7D130BDB1
:1039C00010B50A68DF4B002A03D11868401C186044
:1039D00010BD8A6A824203D05868401C586010BDEE
:1039E000D7480024026A002A0FD08A4210D09A6871
:1039F000521C9A6004220A71C26A002A01D05163E3
:103A000000E08162C1624C6310BD012201620A7153
:103A1000006A07228462CC48402100681EF01EFF25
:103A200010BD10B50A68002A10D0C54A936B8342B6
:103A30000CD1106A002809D0884207D10020906379
:103A4000C1480722006880211EF008FF10BDF0B5B4
:103A5000050085B000F0C4FB002000F0CFFB04009F
:103A60007ED0286B2063B6480490416A491C4162AD
:103A7000216000F0BDFB0EF351F903910290206824
:103A800000272E0039002036002803D1049A012097
:103A90005062206000232371307A6071A079717ABE
:103AA000800889078000890F0843F321A07108402E
:103AB000B17A8907090F0843CF21A0710840F17A34
:103AC0008907890E0843A07169692869594008432C
:103AD0000DD02A6902986B690399121A8B410AD397
:103AE000029A2869039B6969801A994102E0A869D2
:103AF000002800D00700029A039B0021B818594102
:103B0000E160A060E8692061286A6061686AA0617C
:103B10002868E06168682062A86860622000203040
:103B2000417B327B490892074900D20F1143FD22A5
:103B300041731140327B5207D20F52001143FB22D6
:103B400041731140327BD206D20F92001143417370
:103B500002218173317B090701D50621817300E0C1
:103B600012E0327B0121D20700D102210173827B56
:103B700023000092754828333A00210008F396F894
:103B8000002806D1206001E000F032FB002005B0E3
:103B9000F0BD2068FBE7F8B505250E0000F02EFB10
:103BA00004006748016AA14216D1A06A002803D028
:103BB00008F3DFF80020A062002E66610CD000221E
:103BC00023000092614828333200210008F36EF888
:103BD0000325002800D104252800F8BD70B505256F
:103BE00000F00CFB04005648016AA14207D1A06A0C
:103BF000002804D008F3BDF800200325A0622800A7
:103C000070BDF8B50F00052600F0F8FA4C4C050021
:103C1000216A814215D1A06B002803D008F3A9F8CE
:103C20000020A063002F0CD0454B00220092484892
:103C300038333A00290008F339F80326002800D168
:103C400004263000F8BD70B5052500F0D7FA3C4CCD
:103C5000216A814207D1A06B002803D008F389F8BC
:103C60000020A0630325280070BD38B50120FDF7B2
:103C700071FC334C2C20236AC15C5A6A1868DB69DA
:103C80009847206A006B02F059FA00F0A9FA1DF07B
:103C90009FFF216A05000020086000F0A9FAFFF7E5
:103CA0006DFE206228001DF097FF216A002909D0CF
:103CB0002E20425C0B000092264A2448283307F34A
:103CC000F5FF01E0FFF753FE032038BDF8B506000D
:103CD000072021F009F91A4F05004CE0386A006B03
:103CE000A84204D0280023F058EC002874CAEA8CBB
:103CF00001000000C43B00000004000021A408C231
:103D00003ED13400162E10D1280023F054EC0028A8
:103D100031D0687A02282ED1386A2030407B4007A3
:103D200001D52A2427E0282425E0192E03D01A2EB5
:103D300001D0182E1FD10B20800128180069817B2B
:103D4000002901D02C2416E0C07B00280ED02924A5
:103D500011E00000583301C0183001C0D8F400C091
:103D600099380000FB380000A0860100386A006B1B
:103D7000A84200D0182422000021280002F0B4FC40
:103D80000721280008F0CAF90500002DB0D1F8BDC0
:103D9000F8B505250F0000F03BFA040064D0A06AD6
:103DA0000026002802D007F3EEFFA662FA4D286A2B
:103DB000A04257D100F01EFA2079022801D0032832
:103DC0001ED1267100F01EFA286A2030072F0773D3
:103DD00008D0082F0BD11A20FFF782FF272006F00A
:103DE0000EFF40E01920FFF77BFF2620F7E7286A47
:103DF000006B23F0E4EB1820FFF772FF2520EEE7BD
:103E0000012801D004282AD100F0FCF9E369626A94
:103E100020680B219847286A006B02F099F900F09E
:103E2000E9F91DF0DFFE26600700267100F0EAF9CF
:103E3000FFF7AEFD286238001DF0D8FE296A002980
:103E400009D02E20425C0B000092D44AD44828337B
:103E500007F336FF01E0FFF794FD0320F8BD00F003
:103E6000D1F900E0266003252800F8BD70B50400F4
:103E700004251DF0B7FE0600C748006AA04219D00D
:103E8000217920680325042906D105212171E369E0
:103E9000626A0B2198470DE0A06A07F374FF0128BE
:103EA00008D1E369626A20680B2198470021A1626A
:103EB0002160217130001DF099FE280070BD70B5A1
:103EC0000500042400F096F9280000F0A1F900286C
:103ED00002D0FFF7CBFF040000F094F9200070BD82
:103EE000F8B505000E0000F085F9AE4F002438202B
:103EF0006043C019816900290ED0002D03D04521EF
:103F0000095C890705D4002E06D04521095CC90744
:103F100002D01830FFF7AAFF641C0F2CE7D300F083
:103F200071F9F8BD01210020DAE710B523F04AEB62
:103F3000002801D1012010BD002010BD38B523F0AC
:103F400046EB1620FFF7CCFE1520FFF7C9FE924C7A
:103F5000206A4179002906D0817900914179009841
:103F60000022FFF7E2FF216A03200871206A8069BE
:103F7000002808D00DF3DCFE256AAA68EB68801AD9
:103F80009941A9690860216ACB694A6A08680321D6
:103F90009847216A4869002809D08A6A002A06D110
:103FA00000920B0002007E48283307F389FE0320AD
:103FB00038BDF8B507007C4E774D306800281ED11B
:103FC0002C6A23F008EB2C20015DE369626A20680B
:103FD0009847022824D0002F05D01620FFF780FE36
:103FE0000120306005E01720FFF77AFE242006F05C
:103FF00006FE296A022008713068002817D0286A56
:104000002030407B40070DD5042009F0B4FA002889
:1040100008D108F0C9F8040008F0D3F8844201D0B0
:104020000220F8BD00203060232006F0E8FD0320C8
:10403000F8BDF7B586B004001600002513002F0068
:1040400003AA04A905A81FF0DDFE059B002B14D0D0
:104050006069002802D1306801256061039A0799E0
:1040600001920091220000211E0004980B00B0472D
:104070000700002D01D000206061380009B0F0BDBC
:1040800070B586B00600002503AA04A905A802ABF6
:104090001FF0B8FE059C002C09D0039A0021019264
:1040A0000A000091310004980023A0470500280071
:1040B00006B070BD38482030017F491C0177364971
:1040C000096A00290AD00A79032A07D1427F521CC3
:1040D0004277CB694A6A08680921184770472E4819
:1040E00010B5006A00280BD02030017B032907D1CE
:1040F000012101732D4807220068402111ED55E888
:1041000001000000C03F000000040000727EDBAE32
:104110001EF0B8FB10BD70B50420244C236A002BA0
:1041200024D02C21C95C18680325012909D1FFF787
:1041300025FC002810D001200AE0206A20300573F9
:1041400013E0022913D1FFF719FC002804D0002046
:10415000FFF739FF0328F0D00120FDF75BF818487E
:104160000722006840211EF08DFB032070BD03294B
:104170000ED1186B0B21890140180069022101F052
:104180005EFF206A042120300173FFF7E1FEECE7B7
:10419000062901D1062006E0072913D100210120BC
:1041A000FFF7A8FE0720FFF774FDDEE7583301C0D4
:1041B000A086010099380000183001C0A8EE00C0A8
:1041C000D8F400C0082901D10820ECE75A6ADB695D
:1041D0009847CAE71D490420096A002907D00A79CF
:1041E000032A04D1CB694A6A086805211847704739
:1041F0001648006A002800D0012070471348006A62
:10420000002800D0012070471048002110B5006B35
:10421000C9431EF03BFB10BD0C4810B5006B1EF0EF
:104220003CFB10BD30B50400094D002001003822D0
:104230004A4352199369A34201D110001830491C16
:10424000002801D10F29F2D330BD0000583301C03E
:10425000183001C010B5002420290FD065290BD1DA
:10426000084819F3BDFA002805D10648143019F39F
:10427000B7FA002800D00124200010BD0248826057
:10428000FAE70000B03F0004ACEE00C0012210B518
:10429000FF48062142700170FE48016893051943EA
:1042A0000160FD48016811430160FC480FF3D4FE32
:1042B000012010BD002010B50FF3A8FEF449491FDE
:1042C000487010BD012010B50FF3A0FEF049491F42
:1042D000887010BD002070474042022900D9022199
:1042E000EB4A890023328918ED4A1268012A01D16C
:1042F0008A5601E000228A56101802228A5682420B
:1043000003DB03228A56824200DD100000060016FD
:104310007047E349DE4A09684042921C012901D1F5
:10432000515601E000215156081802215156814290
:1043300003DB03215156814200DD08000006001610
:104340007047D3490278891C0A7002794A708278D2
:1043500021310A7082794A7042780A7142794A7131
:10436000C2780A72C07948727047C9490220C043B6
:10437000891C0870487021310870487008714871B4
:10438000087248727047002801DD002004E06421B3
:10439000C943884200DA0800404200060016704710
:1043A000002070477CB56B460024B94E1970F61D8D
:1043B0005870009801A910F0E1FF00280BD0A5006B
:1043C0006B465979705B0FF33EFEA8196B4619795D
:1043D00040880FF338FE641C012CEADB7CBD7CB501
:1043E0006B460024AA4E19700B365870009801A92C
:1043F00010F0AFFF00280BD0A5006B465979705B19
:104400000FF321FEA8196B46197940880FF31BFEA4
:10441000641C012CEADB7CBD7CB56B4600249C4E01
:1044200019700F365870009801A910F0BBFF0028D2
:104430000BD0A5006B465979705B0FF304FEA819E9
:104440006B46197940880FF3FEFD641C012CEADBF2
:104450007CBD3EB56B460C0019705870009801A9E0
:1044600010F0CAFF002803D001A8FFF76AFF3EBD85
:104470002000FFF77AFF3EBD002800B511D1022AC7
:1044800005D1092901D8481C00BD082000BD032A18
:1044900005D1052901D3C81E00BD022000BD481E5C
:1044A00000BD022A01D0032A40D1702938D011DC86
:1044B0008807800F38D18B10093B18F394ED132730
:1044C00027292935352B2B35353535353535352FDC
:1044D0002F31350088290DD00EDC7C2922D005DC57
:1044E000742901D078291FD1762000BD802919D0E8
:1044F000842919D1862000BD95290DD099290BD08A
:104500009D2901D0A1290FD19F2000BD810B57F11A
:1045100001000000BC43000000040000708703B8E5
:10452000262000BD2E2000BD3E2000BD972000BDEE
:10453000662000BD6E2000BD7E2000BD362000BD7F
:10454000080000BD10B50400FFF7A0FF002C00D14B
:10455000401C0006000E10BD002804D0012802D027
:10456000554A904205D14F4A921E1070002051705A
:1045700070470120704710B54A4CA41E2078FF28D0
:104580001ED0012804D1042170200FF385FD03E023
:10459000042170200FF38DFD5F200FF341FD617842
:1045A00040180106090E5F200FF357FD60200FF33E
:1045B00037FD617840180106090E60200FF34DFDAC
:1045C00010BDF7B582B004000D003C4E01200490F0
:1045D000B06A3B490840B062706A3A490843706269
:1045E00010F016F90190802102200FF355FD0120F3
:1045F0000BF01EF8802102200FF35BFD01200BF071
:1046000017F8290020000FF0C9FF29480FF32EFDED
:104610002F063F0E04993A0020000FF03BFF002CBC
:104620000CD10E2D01D1284806E010F038FC0128ED
:1046300001D1264800E026480FF318FDFFF79BFF45
:10464000019810F0ECF8049A21002800FFF7EEFE24
:10465000049A21002800FFF7CCFE049A21002800CC
:10466000FFF7AAFE049A21002800FFF7FCFE706AFB
:104670001449C943084070620BF02EF804992A00CF
:1046800020000EF079FF0BF062F820000BF00EFB1B
:104690000BF022F8049A39002000FFF753FF0700BF
:1046A000200017E0C1EE00C080210080002D0080B6
:1046B000E81D01C004000004FFFF000000A8008006
:1046C000FCFDFFFFC0000080E81E01C0E01E01C02D
:1046D000E41E01C00AF075FE0600010020000FF084
:1046E00013FF310020000EF06BFF022107200DF3B5
:1046F00079F80FF01FFF002E04D0102107200DF3D2
:1047000071F803E0102107200DF361F83900200053
:104710000EF05EFF04992A0020000EF0A5FE0EF0B8
:104720007FFE0FF019FF234D002E1FD02248006896
:10473000002817DB07200DF311F88009012803D1A9
:10474000E869401CE8610AE0022803D1286A401C9D
:10475000286204E0032802D1686A401C6862A869E4
:10476000401CA861022107200DF331F80AF0EFFF89
:10477000124E002C01D1124800E012483061287816
:10478000A0420BD020002C700AF0C0FE20000FF0D9
:10479000D9FB20000FF0E3FB6B461870306908214D
:1047A00008433061012005B0F0BD0249FF200870C8
:1047B00070470000BCEE00C0002B0080C0A200804B
:1047C00008A800000868000070B5FF4D6969FF483F
:1047D0004165FF4909688165FE4800248461FCF752
:1047E0003EFC1020FCF721FCE80CFCF71EFC2C60C2
:1047F00070BD10B5F54C0200616B206B18F3F8EB3F
:104800007D22D20018F3F4EBE36AA26A17F3B6EF45
:1048100010BDF8B57D220700EC4CD200616B206B17
:1048200018F3E6EB05000E00E16AA06A3A0018F3FF
:10483000E0EB33002A0017F3A2EFF8BD10B5E34C0C
:104840000200616B206B18F3D4EB7D22D20418F3C5
:10485000D0EBE36AA26A17F392EF10BD10B5040023
:1048600009F075FD21001CF0BCEFDB4A002317F3B3
:1048700086EF10BD70B50400D44D01206872D74892
:104880000168820C114301600BF023F8D449400009
:10489000085A64235843A8616043FCF7A3FB70BD2A
:1048A00010B50124FCF793FB200010BDC748007928
:1048B000704770B5FCF7A0FB0600FCF7ACFBC34CDF
:1048C000002526636563A169E5624143C348A1628F
:1048D0000168820C914301602079002804D10120F5
:1048E000FFF7ACFFFCF78CFB657270BD70B5B74C81
:1048F0002069FFF77EFF618918F3B2EEE0610500E1
:10490000B848A16918F3ACEE0100A84201D8E069EB
:1049100001E00800E1617D21C90018F3138A19A3A1
:1049200001000000B847000000040000235DD0D45F
:10493000A2EE206270BD0A2010B5FFF7A5FFFFF7B9
:10494000B9FF040010D0FFF7BEFFFFF7D9FFA4485E
:10495000016A08000A2907D9FFF796FFFCF741FB17
:10496000FFF7B1FFFFF7CCFF200010BD70B50400CA
:104970009B4D012068729E480168820C11430160C2
:104980000AF0B1FF9B494000085A64214143002CC2
:10499000A96102D00800604305E0E86948437D2131
:1049A000C90018F368EEFCF727FB70BD8C490A6A52
:1049B000824206D84A7A002A03D14979002900D1D7
:1049C000D4E77047F3B583B0002785490D006B6BC2
:1049D0002A6B390018F30AEC02900C00E96AA86A05
:1049E000049A18F310EB05000E00062218F30AEBE8
:1049F0003B00052217F3CCEE0191AA0FB100114341
:104A00000090A8003B00052217F3C2EE029A230093
:104A1000121A8B411AD3684607C8801AA14115D3D0
:104A200007223100280018F3EEEA029A801861414B
:104A30006B4C4A07C0081043636B226BC90817F31D
:104A4000A8EEE162A06204986763206305B0F0BD40
:104A500070B5634C6079002811D1FCF7C2FAFCF7FD
:104A6000D5FA0500FCF7E1FA614A01001068930CE1
:104A700098431060A06948432900FFF7A3FF2079FD
:104A8000002804D10120FFF7E3FEFCF7C3FA002061
:104A9000607270BD70B5FF24514D5A342B68C31A33
:104AA0001B1BFF3BFF3B1B1F002B04DC5349886A89
:104AB000401C886203E0814201D8824201D200207A
:104AC00070BD1800FFF7AFFE06002000FFF7D0FE14
:104AD00004002868FFF7A7FE821923000021300098
:104AE000FCF700FB2879002806D12868FFF79BFE19
:104AF0000004000CFCF76DFA012070BDF8B505004C
:104B00006846FCF7AAFB3E4800990068814201D044
:104B1000FCF788FB3B4800990068814201D0FCF714
:104B200081FB394C394E2078FF280AD105F0AFFFC0
:104B3000002806D0002D04D0306822000D21FCF79B
:104B400083FB00993068814201D0FCF76BFB304851
:104B500000990068814201D0FCF764FBF8BD284849
:104B600038B50068FCF764FB26480068FCF760FB7A
:104B7000264D2868FCF75CFB25480068FCF758FBCD
:104B8000214C2178FF2905D028686A46FCF75CFB98
:104B9000FF20207038BD1C4810B560380078C00771
:104BA00005D00AF0A3FD0EF0F9FA0AF0DAFD10BD07
:104BB000F8B50BF094F8114E00257560FFF7CFFFA4
:104BC00008488030016B0822114301630E48114FE1
:104BD00060380078044CC0073DD01DE000A500807F
:104BE000983301C08022008040A6008040420F0020
:104BF00000210080E4770200002D3101F4EE00C0B6
:104C0000F4790200447A0200E2550004D4F400C0B2
:104C1000DCF000C0EFFFFFFF1DF002F800902069FC
:104C20000B21884320612069F16808432061A56158
:104C3000FCF71FFAFCF791FAFF48C760FF480168CC
:104C4000082211430160FE4908681043086000987B
:104C50001CF0EAFF06E0A561FCF70BFAFCF77DFA11
:104C6000F548C7600DF3A9F9F648F749406D48616A
:104C7000206910218843206105F004FF002800D03E
:104C8000022020F099F904000DD0200008F0B3FCB8
:104C9000002801D0042100E005210B20800120180C
:104CA000006901F0E0F907F3ECF8F8BDE34810B54E
:104CB000C03801690B22914301610169E34A92689E
:104CC00011430161002181610AF010FD0EF066FAC6
:104CD0000AF047FDD94A1068082108431060D84AF5
:104CE00010680843106010BDFFB583B004000027B2
:104CF000D74D05F0C7FE002800D0022020F05CF957
:104D0000060002D0F068C004C00FFFF7F7FE1CF0E9
:104D100087FF00220290CF480092006808220121FC
:104D200001AB1DF0B7FD0198002817D1150E463FC5
:104D300001000000B44B000000040000D732A56061
:104D4000CA48002200684A2106F333FC002802D03A
:104D50000C9800280CD0C049C54B086E496EFF2244
:104D60001840F932002311405940584008430AD0F6
:104D7000B948BF4C016E426EFF23F93321401A40FF
:104D80004266016620E0002C2AD00CF3F9FF009067
:104D90000498226863680F00101A00218B41009A62
:104DA00019003B00121A8B410AD2009A20686168F0
:104DB000801AB941069A0599FFF776FE002806D1B8
:104DC000A7488169491C8161FFF7FCFEE7E0A24822
:104DD000626821688030C260816000F05FF907007E
:104DE0009C4A1068082188431060994A10688843DB
:104DF00010609748C0380169994A04231940D1606E
:104E0000016999430161016903221143016143E092
:104E10009348416A491C6D1E41623AD10500006AFF
:104E2000401C286205F042FE0028924812D0816999
:104E3000816901690B2291430161864A1168082347
:104E4000194311600169864AD2681143016107F371
:104E500022F8A4E080698006800F012802D1286929
:104E6000401C2861FFF72CFF07F040F8794A1068D2
:104E7000082188431060764A1068884310607D4896
:104E80000169042291430161016903221143016117
:104E9000744D01200AF0E0FB764880698006800F9F
:104EA0000328B5D1002C0DD000F0F8F806990700C2
:104EB000884202D80598874204D26948C169491CD2
:104EC000C16168E065484169634A516502214161F9
:104ED0006948FCF73BF80DF382F85C498031086BB8
:104EE000082290430863634801691022114301615D
:104EF0005B480078022801D1022500E04025002C03
:104F000002D000F0CBF80700002F01D001200543AC
:104F1000002E04D00B2080013018006900E0002032
:104F2000012101F0AAF80AF044FEE807C00F01D001
:104F3000FCF7A1F8422005401BD068060AD51020D6
:104F4000FCF781F81020FCF78AF80420FCF716F92A
:104F5000FCF725F9A8070CD501252D032800FCF73F
:104F600072F82800FCF781F80C20FCF707F9FCF731
:104F700016F93B4D01206860002C16D000F08EF829
:104F80000699884202D8059988420ED2E869012123
:104F900009044018E861FFF715FEFFF706FE0298C6
:104FA0001CF04CFE002007B0F0BD0AF0B0FEC0209F
:104FB00009F0AEF902981CF041FE0022D2432A48C3
:104FC000009200680822012101AB1DF06DFC012058
:104FD000E9E710B505F06AFD002803D020484068D5
:104FE000002801D0FFF7EEFD10BDF8B5194A1D48A5
:104FF00011680826B1431160154A1168B143116068
:105000001C4C2169164D04273940A9602169B94318
:10501000216121690B2211432161401E33D1FFF729
:105020004FFE06F063FF20693840A8602069B8434E
:10503000206108490868B043086005490868B04322
:105040000860A0698006800F012817E08022008098
:1050500000A7008000A30080983301C000A5008055
:10506000F4EE00C0881300007C1D01C074EE00C087
:105070001800040040A600801000100002D16869EA
:10508000401C68610E48A1698906890F0329C0D1B7
:10509000F8BD012070470B48407A704710B5FCF707
:1050A0005AF80400FCF723F8201A05D50649C86A07
:1050B000401CC862002010BDFFF7AFFB10BD000010
:1050C00088130000983301C0F4EE00C0704710B59B
:1050D000012403200DF3CDF8FF49096B0205090CEB
:1050E0000B05120D1B0D9A4204D1220310401140F2
:1050F000884200D10024200010BD24214143F74AFA
:1051000010B58C180DF3B5F8E2690100D204C9049A
:105110000120D20CC90C8A4200D1002010BD10B56C
:1051200002E00120FCF794F80420FFF7E6FF0028D6
:10513000F7D102E00120FCF78BF805201BEEAE034F
:1051400001000000B04F00000004000084E8760C6D
:10515000FFF7DDFF0028F7D102E00120FCF782F81D
:105160000620FFF7D4FF0028F7D1E24C0BE022F035
:1051700068EA002804D020680022622106F323FA9E
:105180000120FCF76FF80320FFF7C1FF0028EED1E4
:1051900010BDD948402110B517F3CCED10BDF8B5BE
:1051A0000D00070024205043D14940224418390003
:1051B000280017F324ED28001EF028FF28004030B7
:1051C00017F35EEE3900403120220D00009017F3F6
:1051D00016ED29882269A0690D00603D0026521E47
:1051E000904207D1E0680A1D824203D90500643D60
:1051F0000E1A361D0098390020302A0064310090C4
:1052000017F3FCEC002E06D000986169401949683C
:10521000320017F3F4ECF8BDFFB581B000240500AF
:105220000E001700052018F3D3FD4188B34A9142C0
:105230001BD10100403128603160098840390904E0
:10524000090C0AD00F229201914206D864303860CE
:10525000049820390124018007E005200EF318FE90
:105260000004000C05210DF321F8200005B0F0BD6D
:1052700038B504001CF0E8FC05009C48403080690B
:105280009B49000CC03148610520694618F3B7FD01
:1052900000280BD04188994A914207D19849418012
:1052A00005222100FFF77BFF012400E000242800F5
:1052B0001CF0CEFC200038BD38B504008B484030CF
:1052C00000698B49000C803108630420694618F39B
:1052D00096FD002812D04021095A8A4A603991422D
:1052E00007D92000403017F3CCED0021C9430180DD
:1052F00003E004222100FFF752FF012038BD38B53A
:1053000004007A484030006A7949000CC031886353
:105310000620694618F373FD00280BD001004031C8
:105320000A88682A01D968220A8006222100FFF72C
:1053300036FF012038BD6E49F0B56C310A006B486C
:105340006C32006B040C08001430C46067484030B5
:10535000006A2705030C080054308363CE690120DE
:1053600031050500090D3F0DB94200D10025012787
:105370003F0301003E403C40A64200D00021D269DC
:10538000294315051E0504002D0D360DB54200D12B
:1053900000240C433A403B409A4200D00020204376
:1053A000F0BDF8B500210327574A51481060574A0D
:1053B00051481060564A37201060564AFF20401C62
:1053C0001060554A10201060494804228030026164
:1053D000524A42613F028761514DC76102224562D4
:1053E00002620022026301221203C2624B4A4D4E46
:1053F000CB005C196260D219491C0129EE50F7D329
:10540000474BC900CC1862605E5039490622C03152
:105410008A61454ACA6102221E008A62D201203690
:105420000A62CE624A6200228A63012212033E4B64
:105430003E4F4A630022D400A5196B60FF335B1C0A
:10544000521C012A3751F6D3354CD200203415199D
:105450006B60364BA35005224263220028328263E0
:10546000022253024A6025009F00C363103D0F6172
:105470008D6000220B604A6122002D4E28320021EF
:10548000CB005C1962600124A4021219491C012995
:10549000EE50F5D3224BC9001033CC1862605E5039
:1054A00013490322CA66234A0A673722CA67FF22C2
:1054B000521C8F674A67204D002187601D4E056092
:1054C0000C00C1600421300017F35EECE0004119CC
:1054D0004E60FF361549761C641C362C2950F1D3DA
:1054E0000421300017F350ECE00027E0C0A3008057
:1054F0003040000474EE00C0E0410004EFBE000044
:10550000BAAB00004C07000048BB02004CBB0200D5
:1055100050BB020054BB020058BB0200007401C023
:10552000B86B01C000300080007A01C0001000801C
:1055300000400080000F02C0006A01C041194E60A7
:105540000F49104A0024295014600E48709843DB1C
:1055500001000000AC530000000400003B2D53BFCD
:105560000E494030C161022383610B4940394F62CB
:105570000A4E103E466103610F62203646620362A6
:105580008F625563372010630F610CF357FA04489C
:105590008460F8BD00000180C0A30080C86B01C01A
:1055A000C0A400809948142110B517F3CEEB10BDAC
:1055B00070B505000E0001D1012070BD308984193D
:1055C000607A217A0002084301280DD1607B217B9B
:1055D00000020843032807D1002D11D0280022F033
:1055E0003EE8002813D001E0002D03D0E87AA07334
:1055F000A87AE073607A217A0002084301280AD170
:1056000000223100042000F0A6F9002803D1300068
:1056100018F35CF8D0E7002070BDF8B50D00040069
:10562000110000267A481F00320018F379F800288C
:10563000206014D002210173216820200881206895
:105640000121203028600172002141722868390A46
:10565000077341732968002088720126C8723000E0
:10566000F8BD1CB50C0003006422694601A8FFF7D1
:10567000D4FF00280FD0009800210174002C417441
:1056800005D0019901234A7B1A434A738C61022198
:1056900081720021C17201981CBD10B50400080080
:1056A0001100FFF7DEFF002803D001002000FFF704
:1056B0007FFF10BD0022F0E77CB5140005000B0051
:1056C0006422694601A8FFF7A8FF00280BD00098C4
:1056D000210A04744174022181720021C17201996E
:1056E0002800FFF765FF7CBD7CB5040015000B00AA
:1056F000FF229132694601A8FFF78FFF002811D0E1
:10570000009800210174417406222900123017F319
:1057100080EA0099082088720020C8720199200050
:10572000FFF746FF7CBD7CB51C00160005000B0092
:10573000FF229132694601A8FFF76FFF00280DD0C4
:10574000009822003100103017F362EA0098210A15
:105750008472C17201992800FFF72AFF7CBD7CB5D5
:1057600014001E0005000B006422694601A8FFF723
:1057700054FF002811D00098210A047441740622B5
:105780003100123017F344EA009908208872002093
:10579000C87201992800FFF70BFF7CBD70B50600A9
:1057A00010891500841800222274200062740622D9
:1057B000123017F32EEAE07AA17A0002084308308B
:1057C000A072000AE07229003000FFF7F1FE70BD00
:1057D000FEB51D0006000F0014000B006422694690
:1057E00001A8FFF71AFF00280ED0742F0CD10098E3
:1057F000E521017444740321857481720021C17212
:1058000001993000FFF7D4FEFEBD0000303401C026
:10581000B000000470B50500008944191EF0E1FED7
:1058200000280AD0607B217B000208430B2804D0AB
:105830000A2802D0052005F01EFA00222900FF48A0
:105840000068FF4B1C680223A04770BDFD48011F84
:105850000860FD4801214170002101707047F9493D
:105860000020091F0860F849487008707047F64822
:105870004178002901D001210170704770B51CF0FA
:10588000EDF90500F14817F3B4FF040028001CF0FF
:10589000E9F902250DE020002573FFF7BBFF1CF09E
:1058A000DDF90600E94817F3A4FF040030001CF0FE
:1058B000D9F9002CEFD170BD70B51CF0CFF9E24CD6
:1058C00005006078002809D0DE4904200856411CF4
:1058D00004D0811C02D0012105F327F9DC480078AF
:1058E000012802D1142005F0B2F900202072042012
:1058F000FBF776FED748002200680C2105F36DFE09
:10590000FFF7BCFF28001CF0ADF970BD10B5FFF724
:10591000D3FFCD49002008704870CF49086010BD02
:10592000C948017A032901D0032101727047FF2879
:1059300000D008407047C94910B509681BF078EFDE
:105940007D22D20017F37CEB8905800A084301D041
:1059500021F0CEED10BDF8B50024160037B9DBFA02
:1059600001000000A85700000004000068F780D381
:1059700005000F002200002901D03889C2191EF04D
:10598000EFFB00287ED0B549087A03287BD0022897
:10599000FCD0680726D5002F24D0507B117B040251
:1059A0000C430B2C08D010DC032C0BD0082C09D096
:1059B000092C07D00A2C13D1AE48AF4900880978CA
:1059C00008430BD0FF25052615E0102CFAD0122C29
:1059D000F8D04F2C04D1FF2507260CE00420854386
:1059E000042608E0062E06D19B48001F006817F326
:1059F0005CEAC00554D49848001F006817F354EAC5
:105A000001002800FFF79DFF002849D0934840304F
:105A1000818A002900D18682984E0025002C1AD058
:105A2000308800280DD08C4904200856401C08D12D
:105A3000081F00684079FFF788FFFFF771FF358086
:105A400045E01CF015F904008548390017F333FFD1
:105A500020001CF011F9804C0420241F2168022230
:105A600008567E490A72411C04D0811C02D00021D4
:105A700005F365F820684079FF282BD0FFF765FF14
:105A8000308801E01DE00DE0002823D01EF068FB07
:105A9000002803D0FFF744FF35801BE0308819E071
:105AA0000020F8BD680715D5002F13D01CF0E0F8D2
:105AB00004006B48390017F3FEFE20001CF0DCF8F0
:105AC00008E0680706D5002F04D0FFF7E1FE380094
:105AD000FFF7AAFE0120F8BD6048582110B517F362
