:1000000001000000000000A0000200000AB6BD1BB5
:100010001CF09FE51CF09FE51CF09FE51CF09FE5A0
:100020001CF09FE51CF09FE51CF09FE51CF09FE590
:10003000041C0F2FC02000004420000048200000B6
:10004000A0200000A4200000A8200000AC20000098
:10005000B9200000000000EAFA0600EA28008FE25A
:10006000000C90E800A08AE000B08BE001704AE24A
:100070000B005AE1F306000A0F00BAE814E04FE261
:10008000010013E303F0471013FF2FE104110300F5
:1000900084110300102052E27800B0287800A128D3
:1000A000FBFFFF8A822EB0E13000B0283000A1288B
:1000B00000409045004081451EFF2FE10030A0E345
:1000C0000040A0E30050A0E30060A0E3102052E253
:1000D0007800A128FCFFFF8A822EB0E13000A12821
:1000E000003081451EFF2FE104309FE503308FE093
:1000F00013FF2FE1151E00001E4801214903416135
:100100001D4901611D4941610521016170471C487C
:10011000802110B502F090E81A48582102F08CE8CE
:10012000194800210A0006C020211648583002F064
:1001300084E8002010BDF0B50024134F134E08379B
:1001400008E0C51968682DF053FD696801208840F2
:10015000B060641CE00039580029F2D10C491F201E
:100160002DF046FDFFF7C8FF0120C007B06000205A
:10017000F0BD000080290080070000FF1020000073
:10018000DC170300E00400040C000004009000A849
:100190009D45010053480121032201704270017204
:1001A000427270474F48F8B500241838046000F0D8
:1001B000AEF803F0ADF94C490D5C0DF099FD290046
:1001C00002F03EE8494E2300320002F03EE8401CB7
:1001D000614105042D0C03F09BF9454940000F5A7D
:1001E00016F0CAFC390002F02CE82300320002F0BD
:1001F0002CE8401C61410004000C290000F096F836
:1002000003F086F93B490D5C0DF072FD0B6FD81AB7
:1002100001000000FC0100A000020000CE6362307B
:10022000290002F018E82300320002F018E8401C10
:10023000614105042D0C03F075F934490F5C0DF094
:1002400061FD390002F006E82300320002F006E802
:10025000401C61410004000C290000F088F80820CF
:1002600000F074F80DF04EFD310001F0FCEF401C81
:100270000004000C00F073F80DF044FD052101F0BE
:10028000EAEF234A230001F0EAEF192280186141C6
:100290000006000E00F071F8601E14F0A5FDFF24AA
:1002A000641C200015F0AAFC200015F0AFFC14F02F
:1002B00049FD14F06BFD402018F0CEFB00F090F8E3
:1002C00000F07CF80C200DF075FDC0200DF072FDE3
:1002D00015F024FC15F046FC15F066FC15F036FC14
:1002E00030200DF067FD032000020DF063FDFFF7E5
:1002F0005BFF00F045FAF8BD780600B090F7020009
:1003000040420F007AF70200A6F702009BF70200B6
:10031000C0C62D0052484068C168524A1143C160AE
:10032000704700B5FFF7F6FF4D484068416801226D
:100330005202114341604168D2001143416000BD47
:10034000090401434648406881617047444949684F
:10035000CA681204120C00040243CA607047404984
:1003600049684A69120C120402434A617047090441
:1003700001433B484068C1637047394949684A684E
:10038000120A120202434A60704735484068016908
:100390000122120411430161704731484068C030A6
:1003A0000168402211430160704770472C48406843
:1003B000C030416837221143416070472848406887
:1003C000FF30413041681D2291434160704724480D
:1003D0004068FF30413041681D2211434160704741
:1003E0001F484068FF30413041680222914341601C
:1003F00070471B484068FF3041304168022211437A
:100400004160704716484068803041680622914339
:100410004160704712484068803041682CC1641CBC
:1004200001000000F80300A0000200003A8BDC8D00
:1004300006221143416070470E4A52688032536A67
:1004400009011B0F1B0709090B435362116A400383
:10045000C90CC904400B0143116210681F21090433
:1004600088430121090540181060106849000843BD
:1004700010607047B00600B08F0300000121092012
:10048000000701600021416070477448012101604C
:100490000021416070477248016B80221143016363
:1004A000704770476F4800B50068002801D0FFF71B
:1004B000F2FFFFF7EAFF00BD10B56B4C04F0ECFD56
:1004C000A0421BD069496A4B084099690F22D205A6
:1004D0009143020752090A439A61654B40331968F8
:1004E0003022914302400A431A60000A4107614AE0
:1004F000490F0007117001D54842107010BDFF234D
:1005000010B5C133202403F017F8052803D003F0F9
:1005100013F8012801D101235B022100180014F017
:1005200056FB10BD10B5544C207900280BD101208A
:1005300020712EF019FE062015F020FFC006C00F16
:1005400060712EF043FD607910BD70B50600FFF7B5
:10055000E9FF474D803D2C0D002811D02EF004FE00
:100560008021262015F016FF2EF030FDA8682043CC
:10057000A86042488168220211438160002003E0A4
:10058000A868A043A860300015F0EDFD70BD70B5FF
:1005900015F02EFE15F052FF13F0B4FC7D24E4019B
:1005A0000021200015F056FF0021200015F058FF13
:1005B0000021200015F0F0FF0021200015F0F2FFCF
:1005C0002F4C0221200015F04BFF0221200015F0D6
:1005D000E9FF0221200015F03DFF0221200015F067
:1005E000DBFF204D274C2868002804D0206801211B
:1005F000C905884320606068234908406060E0685E
:10060000172149020843E06015F0D2FF2168C206B5
:100610001E4801D5014300E08143606860602160AD
:100620002868002802D0B520FFF78FFF4ACE6D3B27
:1006300001000000F40500A000020000237302FD89
:1006400070BD7047704770477047704710B516F01F
:10065000B7FA0E4C002802D016F0BCFA01E016F0F2
:10066000CBFAE06010BD10490E48086070470000EA
:10067000003000A8400C0090941400B0FFFF000070
:100680003F0F000000290080B10600B0C40600B092
:1006900040230080409C000000210080FF7FFF7FFE
:1006A00000000020694C01008C0700B010B504F078
:1006B00041FC3B4C2068002806D0FFF707FF20686C
:1006C000002801D016F00AFB00F048F9002015F0D0
:1006D00037FDFFF766FF0020FFF7EDFEFFF7ECFEAA
:1006E0002068002801D0FFF714FFFFF7AAFF00F0F1
:1006F000FEF82068002803D0FFF7A8FF16F014F8D2
:10070000FFF7A2FF002010BD10B500F009FA01F0BC
:10071000C2ED15F08BFF00F0DDF9002801D00120BB
:1007200010BD17F04FFB002010BD10B5FFF758FDAE
:1007300001F01AFC0400042014F020FA200001F05B
:1007400017FC002010BD10B517F0A8F910BD30B58A
:100750009408002203E09300CD58521CC550A242D9
:10076000F9D330BD9308002210B502E09400521C6A
:1007700001519A42FAD310BD4B220A4812020021BD
:1007800010B5FFF7EFFF03220B20520200210007F4
:10079000FFF7E8FFFFF767FF00F020F8002010BD2B
:1007A000941400B0605E000470470000084810B563
:1007B0000168084B0A000C3108001960111D5960CE
:1007C0001C2101F058ED0449022017F0D1FA10BDA8
:1007D000CC7300B0140700B02DFD00000F490E4887
:1007E00010B508600F490E48086010490E480860AF
:1007F00010490F48086011490F48086010488021CF
:1008000001F038ED0E488021803001F034ED0D48C4
:10081000802101F030ED10BD354C01008CA90004A1
:10082000254C010090A90004714B010094A900041B
:100830004054890084A90004A08601005EBB07AB78
:1008400001000000F00700A000020000D79BBC40A0
:1008500088A900048C7400B08C7500B010B5084CE9
:1008600000206062DF200002E0620648A0620121F1
:100870000548490201F008ED01206062002010BD2A
:10088000C09B00A800ADDEEF0C7600B0034903204A
:1008900010B517F077FA002010BD000031F4020007
:1008A000F8B5304800680002000F082828D12E4C07
:1008B0006069E50428436061606940004008606148
:1008C00020680826304320602068EF12B84320607B
:1008D0004821452015F08EFD0421482015F08AFDA1
:1008E000206830432060206838432060322014F0B4
:1008F000EBF9606928436061606921050843606124
:10090000F8BD1A4810B5006800282AD02EF040FC27
:10091000FFF7C6FF2021192015F050FD02211620F7
:1009200015F04CFD3721332015F064FD942124206F
:1009300015F060FD262015F035FD800880000221AD
:1009400008430106090E262015F054FD66214120BA
:1009500015F050FD2EF04EFB15F0EEFB642014F068
:10096000B3F910BD0020008000280080941400B06E
:10097000F8B5534C534D2068002809D0E81728607B
:1009800068600BF0CFFC2068002801D015F018FA41
:100990004D4F386A4000400838624C4807210161D9
:1009A00005214161062181614949002088600B20B1
:1009B0004849000701221204036880188842FBD3CB
:1009C0000020016880189042FBD301208006006857
:1009D0002068002872D02EF0DBFB2EF00BFB39488C
:1009E000416B020D1143416301686F229143016025
:1009F000C16889098901C1603748416A7022914301
:100A00004162816991438161816A020C1143816273
:100A100015F0E2FD81070DD53049CA68120109D5EC
:100A2000CA680F231B059A43CA60CA6807239B053F
:100A30001A43CA6028490322294E05078039120249
:100A40000F23002D17DA450610D48307E58E30B347
:100A500001000000EC0900A0000200001082BE1D91
:100A600024D433680225AB4333600B6993430B6195
:100A70000A69AA430A610A690D231A430A6115E04B
:100A8000850713D4450611D407E0450601D4850730
:100A900003D50D6915430D6105E00D6995430D61A1
:100AA0000A691A430A61316819433160800605D426
:100AB0000948C168192292039143C1602068002847
:100AC00006D0012040047862801CB8620A48F862AF
:100AD0000020F8BD941400B000210080C090009068
:100AE000000800A800230080000001B00029008059
:100AF000802F0080802700800202020000B50D498F
:100B0000002087B00860020001001E2003AB07C36D
:100B100002000948FF21491C6B4607C3A838074A51
:100B2000002307A101F0CEEB0006000E00D001204B
:100B300007B000BD840700B0447900B0ED46000066
:100B400049646C650000000010B500F0DFFA0EF09B
:100B500089FC17F00FFC17F09BFB17F0DDFB10BDB5
:100B600011483C2110B501F09AEB0F48104A426041
:100B70000E49104A016082608161002101620163B7
:100B80000D4A4163C262816300F072FB0B4C0C485A
:100B9000EE22210001F09AEB09480A4B04222100C1
:100BA00001F098EB10BD0000000000B0512E0000D5
:100BB000412C00000131000069CC0000DC05000080
:100BC000001203005FF2F303F8B5A84D28680C216A
:100BD00088432860A64CE068A10C0843E060E06808
:100BE000072149020843E060E06801210906084343
:100BF000E060E06880098001E060E06809148843F3
:100C0000E060E06809018843E060E0684F03B843B2
:100C1000E060E0680721C9068843E060E068F910F9
:100C20000843E06020689349084320607D2000214C
:100C3000400215F02DFC7D26F6010021300015F054
:100C4000C9FC0021300015F029FC0021300015F00E
:100C5000C7FC8949086A102630430862F80FD93268
:100C600001000000E80B00A000020000E46A00A000
:100C700028680C218843286068686105884368609B
:100C800015F030FDA868E1040843A8602869032135
:100C90000906884328612869384328617C494868E7
:100CA00000204860486819221206104348607848BE
:100CB0008030036840229343036003680F273F029C
:100CC000BB430360036803277F023B430360036861
:100CD0000F273F03BB430360036803277F033B43A6
:100CE000036003681B091B010360036806273B437D
:100CF00003602868104328602868302398432860E0
:100D00002868304328600868012318430860086891
:100D1000B8430860E068090D0843E060A06A10432A
:100D2000A062180015F054FE564880308168594A78
:100D3000114081608168D24311438160012013F02A
:100D4000D7FFF8BD10B50EF0E1F9534908805348BC
:100D50005349000C00040860534952480860544944
:100D60005248086054495348086055495348086040
:100D700055495448086056495448086056495548F2
:100D8000086057495548086057495648086058490F
:100D900056480860584957480860594957480860FC
:100DA0005949584808605A49584808605A495948AA
:100DB00008605B49594808605B495A4808605C49CB
:100DC0005A4808605C495B4808605D495B480860B8
:100DD0005D495C4808605E495C4808605D485E4962
:100DE00008605F495D4808605F495E480860604987
:100DF0005E48086060495F48086061495F48086074
:100E000061496048086010BD10B502F0BDFB5F4944
:100E10004000085A5E49086000F076FAFFF7DEFEEF
:100E200000F004FBFF225B4919321C2001F060EA4C
:100E3000FFF788FF5849E120400208602DF0B0F824
:100E40005549042207202DF06DF9544800210A006D
:100E500006C0524A52495348534B01F04EEA00F043
:100E600061FA00F0B1F900F0A1F8002058E5CEF0E9
:100E700001000000E40D00A000020000FD92DED0A1
:100E800010BD10B500F068FA00F03CFB00F0AAF9C4
:100E9000002010BD002F00800021008000081C00F1
:100EA0000028008080260080FEFFFFFB40AD00048C
:100EB0003C1E00B034AF000487CE0000D8A9000467
:100EC000196E0000C8A90004596E0000CCA90004E6
:100ED0006B6E0000D4A90004716E0000D0A900045C
:100EE00079D3000018AB000421CF00001CAB000434
:100EF00005CF000020AB000489CE000024AB000425
:100F0000D955000054B00004F155000058B0000459
:100F1000055600005CB00004D942000050B0000447
:100F200041D2000028AB0004F1D100002CAB00043A
:100F30007BD3000038AB00048FD300003CAB00042F
:100F400093D3000040AB000461D2000008AB000462
:100F500041D300001CB50004F5B5000018AA000438
:100F6000676B010030AB0004656B010034AB00041B
:100F700071B5000010AA000421B5000014AA0004F5
:100F800095B700000CAA0004D9B8000008AA000414
:100F90004DF3000000AB000405F3000004AB0004B7
:100FA00064F70200E8A9000468380004F0A900040E
:100FB000940700B0B81B0000B01C0004000600B08D
:100FC0000449034810B54860080016F00DFF10BD35
:100FD000B1FC0000B80700B0114910480860124980
:100FE0001048086012491148086013491148086008
:100FF00013491248086014491248086014491348FC
:1010000008601549134808601549144808601649D6
:10101000144808601649154808607047F1B600008A
:10102000CCB3000445B60000BCB300047DB600009C
:10103000C0B3000489B60000C4B30004B5B6000014
:10104000C8B300044DB70000DCB3000469B700006A
:10105000E0B30004F5B60000D0B3000411B70000FF
:10106000D4B3000481B70000E4B3000439B7000032
:10107000D8B3000410B50124A4021F4859E26670D9
:1010800001000000E00F00A000020000097A606D7E
:10109000EE22210086B001F038E928F021F9012282
:1010A00000210C2003AB07C30200184802920090F5
:1010B000174A0019002317A1019401F022E9002822
:1010C0001DD1194815A101F030E918481A4A4168A4
:1010D0001748816017490161002141618261174A07
:1010E000C161026241621649816201F022E9002871
:1010F00005D1144911202CF0CBFD002802D001208D
:1011000006B010BD00F0CCFC0020F9E72841000437
:1011100009F801004E66635461736B004E666346C6
:101120006C61677300000000D0450004340800B013
:10113000588D00B0CF880200759B02006DC8020078
:10114000E95D0200CD7F0100F8B516F0ADFB204D42
:10115000204E002427002049A0000F500C390958C8
:1011600030206043801902000832B2C2002C87612F
:10117000C76101D11949316219498762416201F0A1
:10118000D8E8154901200F390855641C2406240E9F
:10119000012CE0D30F484C1E14213030A76001F021
:1011A0009CE81048C068002809D0411C07D00E49AF
:1011B000020C0A72020E4A728872000AC8720B4848
:1011C000C079800602D50120E060F8BDE760F8BD77
:1011D00065F60200A48F00B0780800B07DFB000027
:1011E000D1F50200001500C0414000C05D4000C0C4
:1011F00006490020088070470649054808600749ED
:10120000054808600749064808607047089000B024
:10121000814901002CBB00045149010028BB000496
:10122000CD48010024BB000410B500F0CFFE1B4CDC
:101230006060A168002904D0491CA16000F0CAFECA
:1012400010BD0021012013F021FDA068401CA0600A
:101250000020C04320610020E06011480168820B3B
:101260001143016010490F480880091F088004F0ED
:1012700009F910BD10B5094CA068012802D9401E1B
:10128000A06010BD04F0E2F80020A060A33FB77199
:1012900001000000DC1100A0000200007761C7DD42
:1012A000012013F0A7FC606800F09EFE10BD000056
:1012B000201B00C000210080FFFF000050060090AE
:1012C0000F490E48086010490E48086010490F4841
:1012D000086011490F488968086011490F48086083
:1012E0001149104808601249104808601249114815
:1012F000086013491148086070470000D18700005A
:10130000ECB60004E9870000F0B600047D8400001C
:10131000E0B60004600E00A9A40900B01D89000019
:101320002CB70004F587000000B700040D8800000A
:1013300008B70004DD88000020B70004081000A9E9
:10134000A4B0000470B500240B4D04E040194068BF
:101350002CF0A8FC641CE00029580029F6D170BDCF
:10136000064881680122D2051143816081681022FC
:101370001143816070470000C40900B0009000A8CC
:101380001149104810B50860114910480860124909
:1013900010480860124911480860FFF731FE00F05C
:1013A0009BFB00F0FDFB10490E48086010490F48F8
:1013B000086000F0CCEF10490E4808600F4901208A
:1013C000087010BDF7F5000050B40004EDF5000002
:1013D00048B40004F5F500004CB400046D62000050
:1013E0004CB3000401B9000068B7000425BC00003C
:1013F0006CB700042DB20000E8BA000468AE000427
:10140000F7B5012082B00D000190088846082DF044
:101410009DFE710002980F0014F04AFD012409E0BE
:10142000029A6000295A8018801E0004000C14F0F3
:101430003FFD641CB442F3DD78194188029814F032
:1014400037FD2DF0E9FD2DF0ABFE492014F02CFD09
:1014500004990842F9D0000601D5002001902DF032
:10146000EBFD019805B0F0BD2B4970B548680E0C36
:10147000304348602DF094FE092014F015FD0C2136
:101480000143092014F018FD152014F00DFDBF21B3
:101490000140152014F010FD4A2014F062F0DF9195
:1014A00001000000D81300A00002000083897960C9
:1014B00005FD0621050001434A2014F007FD002424
:1014C000472014F0FBFC641C0A2CF9DB2900F920EE
:1014D00001404A2014F0FAFC492014F0EFFC1021DE
:1014E0000143492014F0F2FC002014F0E7FC1049FD
:1014F0000870012014F0E2FC0E4908702DF0A6FDE2
:101500000D4920223000FFF785FF002807D01F205B
:101510000A494022C002FFF77DFF002800D1FEE704
:1015200000F0C0FA012014F0D5FC70BD402300800B
:10153000990000049A0000043C1E00B0DC1400B0C6
:1015400070B500259949984808609A4998480860FC
:101550009A49994808609B49994808609B499A486C
:1015600008609C499A4808609C499B4808609D49CE
:101570009B4808609D499C4808609E499C480860BB
:101580009E4C9D48E0649F49E0629D4808609F49E9
:101590009D4808609F499E480860A0499E48086091
:1015A000A0499F480860A1499F480860A149A048F8
:1015B0000860A249A0480860A249A1480860A24862
:1015C000A3498571A1480860A24901208877A349F1
:1015D000A1480860A248A3490860A449A24808603D
:1015E000A449A3480860A549A3480860A549A448A0
:1015F0000860A649A4480860A649A5480860A7490C
:10160000A5480860A749A6480860A849A6480860F8
:10161000A849A7480860A949A7480860A949A84857
:101620000860A9482061AA492062A8480860A94822
:10163000AA494576A8480860AA49A9480860AB4964
:10164000A9480860AB49AA480860AC49AA480860A4
:10165000AB4905200870AC49AA480860AC49AB48C2
:101660000860AD49AB480860AC48AD490860AE4978
:10167000AC480860AE49AD480860AF49AD48086065
:10168000AF49AE480860AF49AF4816F023F9AF48FC
:10169000A064B049A062AE480860AF48B04960633A
:1016A000AE480860B049AF480860B1490F4A806849
:1016B00001000000D41500A0000200009A71A710DC
:1016C000AF480860B149B0480860B249B048086006
:1016D000B148B3496065B1480860B349B148086092
:1016E000B349B2480860B448B2490162B349B54A47
:1016F0004162B3491160B54AB3491160B54AB44972
:101700001160B64AB4491160B64AB5491160B74A8A
:10171000B5491160B74AB6491160B84AB649116077
:10172000B84AB7491160B94AB7491160B94AB849CE
:101730001160BA4AB8491160BA4AB9491160BB4A46
:10174000B9491160BB4ABA491160BC4ABA49116033
:10175000BB498160BB49C161BC49BB480860BC480A
:101760006061BD496062BB480860BD49BB48086014
:10177000BD49BC480860BE49BC480860BE49BD4878
:101780000860BF49BD480860BE48C0490570BE48F2
:101790000860C049BE480860C049BF480860C149E8
:1017A000BF480860C149C04808602000C049803077
:1017B000C160C048A065A06370BD0000BDA400006A
:1017C00070BB0004215C000078B200043592000078
:1017D000D4B900046F84000060B70004678400007F
:1017E0005CB70004898F00007CB900048DA3000061
:1017F00000BB00049D920000D8B90004F58D0000E4
:1018000038B900046D77000054B50004E57100009C
:10181000B4AF0004E9990000F8B90004E5A30000A2
:101820006CBB0004D973000040B50004197E0000B1
:1018300090B60004A9590000F0B10004258D000005
:10184000FCB7000441910000ACB90004216800001D
:1018500010B500049D90000080B9000440AD000464
:101860003D6300005CB3000440AA0004AD8A0000A0
:1018700094B70004558A000090B70004898B0000DB
:101880009CB70004898900008CB7000451630000F4
:1018900038B60004115E0000D4B2000439650000BF
:1018A00080B3000489670000A0B4000459A00000C0
:1018B00098BA000479910000C8B9000462306E92B1
:1018C00001000000D01700A0000200006E9919ADC1
:1018D0007D5C000088B20004ED910000CCB90004EA
:1018E00009600000E0B20004556C0000A8B50004D7
:1018F000198200001D830000A8B60004E00900B0B2
:10190000FD810000A0B600044574000054B6000438
:10191000B5B3000088BB00044D890000A8AA0004EC
:10192000CD580000ECB1000465AA0004CDA600006B
:10193000D0B900045960000004B30004B99A000053
:101940005CBA0004A1670000A8B40004716C000038
:10195000ACB50004D96B0000A0B50004C56A000056
:101960007CB50004DBA5000068B9000401D148285B
:101970000C9BF303B56E00005979000060B60004BB
:10198000796E000085B200004CB90004518D000052
:1019900060B80004519B000064BA00046DA0000010
:1019A000E4BA000411810000BCB50004817200009B
:1019B000656300006CB30004C5AA0000E4B900042C
:1019C000D9AA0000F4B90004CB64000054AD0004AF
:1019D000C1640000056900004CB60004B9A600000F
:1019E000A8B90004C5AC000084BA0004015C000082
:1019F00000B20004A98D0000F0B80004199A00009C
:101A000048BA000491AA0000DCB90004898C0000E7
:101A1000E8B7000445A30000FCBA0004597B0000AD
:101A200088B60004B560000014B30004BD76000061
:101A300058B60004297900005CB60004DD6C000093
:101A4000CCB500040D7A00006CB6000411620000F1
:101A500028B30004216200007D630000196D0000BE
:101A6000D8B5000429840000496A000068B6000463
:101A7000017B000084B600047D7F000094B6000462
:101A8000ED7D00008CB60004B15F000058AC00048E
:101A900019A6000078B9000490AD000499A50000D3
:101AA000D0B70004E57A000078B60004F9790000A8
:101AB00064B60004F1670000C8B40004F1660000D9
:101AC0006CB400044172000071810000B1A7744B36
:101AD00001000000CC1900A000020000A9801BF04A
:101AE000054810B50078102804D1044904484C2258
:101AF0002DF006FD10BD00009A000004A6000004B1
:101B0000D60100040548064910B50078097800F0B0
:101B10008DF804480068804710BD0000004000AA0E
:101B2000004000AAE401000416491548086017495E
:101B30001548086017491648086018491648086093
:101B40001849174808601949174808601949184882
:101B500008601A49184808601A49194808601B4962
:101B6000194808601B491A4808601C491A4808604F
:101B70001C491B4808601D491B480860704700004D
:101B8000B965000000B4000491650000F8B30004DA
:101B9000A5650000FCB300046D66000004B40004F9
:101BA0009966000014B40004B566000018B400047F
:101BB000C96600001CB400048566000010B400046F
:101BC00011B4000008B40004756600000CB40004F1
:101BD0007D650000F4B3000469650000F0B3000403
:101BE000E5B3000094BB000499D3000090BB00044F
:101BF0000749064808600849064808600849074838
:101C00000860094907480860704700007D350000FA
:101C1000F4B10004456D000000B60004536D0000EF
:101C200004B600043D6D0000FCB50004064808B58C
:101C300002680092054A0649130008000C386C330C
:101C400000F0B0EB08BD00007400000468C700B0ED
:101C5000C81200B0203052E20400005A203062E284
:101C60003002A0E1110380E13112A0E11EFF2FE15B
:101C70003103A0E10010A0E31EFF2FE1194930B4A9
:101C800017220A6036224A60174A184C0021030CBA
:101C90008D001B185351164B491C58430019372906
:101CA000F5DB30BC70470120E8E770B40D4C0E4DF9
:101CB0006068216883008E00EA58AE59491E401EB4
:101CC0009219EA5036230029216002DA236060600D
:101CD00003E00028606000DA63605000593C65E76B
:101CE00001000000C81B00A0000200005D68A54DB7
:101CF00070BC4008704700008C1400B05CA400B0B9
:101D0000E119D666CD0D010010B4042A0ED30300EC
:101D10000B439B070AD108C810C9A34202D1121F66
:101D2000042AF8D2A34201D0001F091F002A02D1C1
:101D3000002010BC7047D30701D0521C05E0037887
:101D40000C78401C491CA34207D103780C78401C36
:101D5000491CA34201D1921EF1D1181BE9E70000F2
:101D60000000A0E1230000EB03002DE9830000EB5D
:101D70000300BDE84B0000FA0F002DE9820000EBE4
:101D80000F00BDE81CC09FE50FC08CE001001CE304
:101D90000DE08F120FE0A0011CFF2FE101C08FE2C8
:101DA0001CFF2FE100F01CF8A565010001402DE9A2
:101DB0000000A0E16A0000FA0140BDE8000000EA6E
:101DC0000000E0E30000A0E10C109FE51800A0E394
:101DD000563412EF1EFF2FE1C4010000260002005E
:101DE00010B5C046C0460400C046C0462000FFF7FC
:101DF000DEEF10BC08BC18470E40A0E1670000EB06
:101E000004E0A0E101402DE97C0000EB0040A0E1EE
:101E10000140BDE813402DE90100A0E3121DA0E33D
:101E2000081084E5000084E51340BDE80010A0E13F
:101E3000040084E50EF0A0E110402DE903002DE937
:101E40006E0000EB0040A0E10300BDE8042094E533
:101E50000D30A0E100E082E003005EE1002081E5BA
:101E60000B00008A0E3093E0011A8EE26330A0E18D
:101E7000071081E20730C3E30710C1E3030051E11B
:101E80000310A081041084E51040BDE8020041E089
:101E90001EFF2FE10020A0E10000A0E30000A0E170
:101EA0001040BDE81EFF2FE1F0B585B0C046C0462A
:101EB00005000C002DF0DEEC002001950294C046D8
:101EC000C046039001A8FEF79CE9040001A80D009C
:101ED000009303C81600C046C046C046C046FFF780
:101EE000ECFE00210800C046C046070057F6E9D3C3
:101EF00001000000C41D00A00002000044907B3DD2
:101F000000F090E80490002107600800C046C04639
:101F1000411C0498416000210800C046C0460100F1
:101F20000498816000210800C046C0460100049862
:101F3000C16000210800C046C0460100049801614C
:101F4000C046C046C046C046C046C046C046C04661
:101F5000C046C046C046C046C046C046C046C04651
:101F6000C046C046009B05B02000049C29003200FA
:101F7000A646F0BC01B0704710B5C046C046002070
:101F8000C046C046C046C046C046C04610BC08BC9D
:101F9000184700000000E0E30210E0E31EFF2FE11D
:101FA00010402DE90000A0E11040BDE81EFF2FE128
:101FB0001EFF2FE10E50A0E11F0000EB05E0A0E1A5
:101FC0000050A0E10700C0E30D10A0E10A30A0E13D
:101FD00000D0A0E160D08DE220402DE94D2D00FA27
:101FE0002040BDE80060A0E30070A0E30080A0E313
:101FF00000B0A0E30710C1E305C0A0E1C009ACE850
:10200000C009ACE8C009ACE8C009ACE801D0A0E167
:102010001EFF2FE104009FE51EFF2FE11EFF2FE1B1
:1020200048A500B004009FE51EFF2FE11EFF2FE131
:1020300058A500B010B410BC7047000000009FE528
:102040001EFF2FE138A500B004009FE51EFF2FE121
:102050001EFF2FE13CA500B010B500F0BCE910BD9B
:10206000802810B502D100F0B6E910BD00F0B6E945
:1020700010BD10B5040000F0B6E9206010BD0F4897
:1020800070B504680E4EA10706D500210161F26CFF
:10209000012090470220844300250AE0E00706D093
:1020A000A8003258002A02D0210028009047640876
:1020B0006D1C002CF2D1002070BD0000009000A823
:1020C000DC170300913082E00300A0E10210A0E1E0
:1020D0001EFF2FE100A0004734129FE5F8219FE585
:1020E000DB00A0E300F021E1021081E00310C1E376
:1020F000041041E201D0A0E100A0A0E3FFFAE23524
:1021000001000000C01F00A000020000B078C580E0
:1021100000B0A0E3D8219FE5D200A0E300F021E1C8
:10212000021081E00310C1E3041041E201D0A0E1FC
:10213000D300A0E300F021E1AC319FE5001083E57E
:10214000A4119FE5000091E5040080E2A8219FE52D
:10215000000082E5D0219FE5D0019FE52C0082E5BB
:102160000700A0E3300082E50900A0E3000082E55B
:102170000B10A0E3101082E50130A0E3243082E5CB
:10218000283082E5A8219FE51030A0E3083082E5E1
:102190001EFF2FE10EF0B0E1FF402DE900004FE1FE
:1021A00001002DE98C119FE5002091E51F2002E23E
:1021B00084319FE5823193E70FE0A0E113FF2FE127
:1021C00074019FE50810A0E3920102E00410A0E36F
:1021D000012082E0021090E724209DE5012082E0AA
:1021E00024208DE50100BDE800F069E1FF80FDE8F5
:1021F000FEFFFFEAFEFFFFEAFEFFFFEA7F0000EAC4
:10220000FFF747FF4E480047F34612F06FFA000011
:102210002C019FE50010E0E3001080E5001090E540
:1022200020019FE5100F01EE1CF19FE5900F07EED6
:102230001EFF2FE1F8009FE50010E0E30C1080E5A1
:10224000EC009FE504119FE5081080E500019FE583
:10225000001090E5081081E3001080E5001090E583
:10226000081011E2FCFFFF0A900F07EE1EFF2FE19E
:10227000100F11EE1EFF2FE1100F01EE1EFF2FE1D8
:10228000010050E2FDFFFF1A1EFF2FE1C4109FE581
:10229000A520A0E30000A0E3040081E4012052E2B5
:1022A000FCFFFF1AB0009FE5B0109FE5001080E52D
:1022B000AC009FE5AC109FE5001080E5A8009FE50D
:1022C000A8109FE5001080E51EFF2FE100000FE140
:1022D0001F0000E2120050E30100A0030000A01361
:1022E0001EFF2FE1100F6FE11EFF2FE1ACBD0004B8
:1022F0001000000000040000E00300009CBD00048A
:1023000001C05EE50C0053E10330DE37FE7E6D3127
:1023100001000000BC2100A000020000B8A7345D4D
:102320000C30DE2783C08EE01CFF2FE13F96A0E338
:1023300019FF2FE14C909FE519FF2FE15C18030076
:10234000009400A83F1F0000009000A8B038008053
:102350000C7600B00016F003002100807C1700000E
:102360004400000002004000C42000806CBD000456
:10237000F4BD0004991F0000F8BD0004DDF3020065
:10238000FCBD0004B12000000000FFFF04F01FE5C9
:102390004038F40304F01FE5D03AF40304F01FE5DD
:1023A0002C33F40304F01FE53041F40304F01FE57F
:1023B000015EF00304F01FE57D46F00304F01FE525
:1023C000F836F40304F01FE587F2F30304F01FE589
:1023D000FD7DF00304F01FE5DB80F00304F01FE552
:1023E000A131F00304F01FE5D573F00304F01FE5FD
:1023F0007D93F00304F01FE5015FF00304F01FE597
:102400008C17F00304F01FE5A017F00304F01FE59C
:10241000114DF00304F01FE51817F00304F01FE559
:10242000EB0BF40304F01FE5B50CF40304F01FE517
:10243000DB0CF40304F01FE5830CF40304F01FE548
:10244000AF0BF40304F01FE5A141F40304F01FE512
:102450000375F00304F01FE57905F40304F01FE5AC
:102460006542F40304F01FE53D42F40304F01FE568
:102470009438F40304F01FE54708F40304F01FE563
:10248000FB07F40304F01FE52108F40304F01FE543
:10249000FB08F40304F01FE5D907F40304F01FE57B
:1024A0000837F40304F01FE59F5FF00304F01FE515
:1024B0001998F00304F01FE583ECF30304F01FE523
:1024C00075ECF30304F01FE567ECF30304F01FE57C
:1024D000457EF00304F01FE5637EF00304F01FE582
:1024E00055ECF30304F01FE50FDBF00304F01FE5E8
:1024F00059ABF00304F01FE5039CF00304F01FE563
:102500004D41F40304F01FE537ACF00304F01FE580
:102510000BAAF00304F01FE5E43AF403FC9368E42B
:1025200001000000B82300A0000200004C4F8AE028
:1025300004F01FE54B7EF00304F01FE5939FF003CA
:1025400004F01FE5558CF30304F01FE5E99CF30349
:1025500004F01FE541C5F00304F01FE541C3F0039B
:1025600004F01FE5E58BF30304F01FE54BADF30327
:1025700004F01FE54DADF30304F01FE57B8CF3037E
:1025800004F01FE5CDA1F00304F01FE58532F00350
:1025900004F01FE5A533F00304F01FE55C39F403F4
:1025A00004F01FE5D764F10304F01FE51F9EF30359
:1025B00004F01FE50D80F00304F01FE52580F00313
:1025C00004F01FE5038CF30304F01FE5CD8BF30348
:1025D00004F01FE5976AF20304F01FE51970F20397
:1025E00004F01FE51F6AF20304F01FE5550BF30327
:1025F00004F01FE5FD56F30304F01FE5970BF3030A
:1026000004F01FE58B0BF30304F01FE5650BF303E8
:1026100004F01FE56DD9F20304F01FE51D4FF2032E
:1026200004F01FE54149F40304F01FE543A4F3035C
:1026300004F01FE5A119F00304F01FE5997AF003F7
:1026400004F01FE533C5F30304F01FE5D128F203BE
:1026500004F01FE5E9D9F00304F01FE5BFB3F2036E
:1026600004F01FE5DB24F10304F01FE50BB8F003D1
:1026700004F01FE5C3ABF00304F01FE571CFF003D6
:1026800004F01FE5C148F40304F01FE5F543F4032B
:1026900004F01FE515ACF00304F01FE585B9F20363
:1026A00004F01FE5ABB9F20304F01FE5CB1BF30305
:1026B00004F01FE51DF8F10304F01FE5D3C0F20399
:1026C00004F01FE57FBAF20304F01FE51B69F10374
:1026D00004F01FE595BAF20304F01FE59FC3F2036F
:1026E00004F01FE5DC37F40304F01FE55DD1F103CE
:1026F00004F01FE58353F10304F01FE535B5F20341
:1027000004F01FE54927F20304F01FE50118F20366
:1027100004F01FE5A114F20304F01FE52553F203B2
:1027200004F01FE54150F20304F01FE583421F301F
:1027300001000000B42500A00002000055B754902D
:10274000EF39F10304F01FE5D9A5F20304F01FE50A
:10275000F797F20304F01FE5F187F20304F01FE599
:102760009584F00304F01FE5EB86F00304F01FE509
:102770002186F20304F01FE513AAF20304F01FE51B
:102780009F76F20304F01FE52D8CF20304F01FE5A1
:102790004F89F20304F01FE511ACF20304F01FE5CA
:1027A000F38CF20304F01FE59DB3F20304F01FE580
:1027B000C5B9F20304F01FE50D8CF30304F01FE527
:1027C0002384F00304F01FE57152F30304F01FE5C6
:1027D0009913F30304F01FE565D0F00304F01FE53F
:1027E000412AF30304F01FE55B34F30304F01FE513
:1027F000B34DF30304F01FE5AB48F30304F01FE50A
:102800009D5EF30304F01FE5F384F30304F01FE57A
:10281000D79EF30304F01FE5539CF30304F01FE578
:10282000DFB6F20304F01FE585A2F30304F01FE511
:102830009FA3F30304F01FE587CBF30304F01FE528
:10284000CBC6F30304F01FE5DFC0F30304F01FE57C
:102850000FA4F30304F01FE573C4F30304F01FE5B2
:10286000B9DDF30304F01FE5FFDAF30304F01FE51D
:102870001FDBF00304F01FE595ABF00304F01FE548
:10288000C9ADF30304F01FE5D35BF20304F01FE5C9
:102890007BA4F30304F01FE545C4F30304F01FE534
:1028A00049B9F30304F01FE58FC0F30304F01FE5FB
:1028B000C9BEF30304F01FE521ACF30304F01FE5E8
:1028C000C7EBF30304F01FE5590BF30304F01FE516
:1028D000DFA7F30304F01FE523CFF30304F01FE5A4
:1028E0002BD8F30304F01FE54FA1F30304F01FE519
:1028F000C7D8F30304F01FE54DCDF30304F01FE543
:10290000BBC3F30304F01FE549E0F20304F01FE545
:102910003BA5F30304F01FE509A4F30304F01FE54E
:10292000D9D1F30304F01FE5A5DEF20304F01FE59F
:1029300035E0F20304F01FE5B1DEF2039948B34736
:1029400001000000B02700A000020000A15FEA2DF6
:1029500004F01FE517DFF20304F01FE521A1F303E4
:1029600004F01FE5054FF20304F01FE531A1F30366
:1029700004F01FE50DDDF30304F01FE553BAF30384
:1029800004F01FE5E7B2F30304F01FE521B2F303FF
:1029900004F01FE50B0AF30304F01FE535B4F3035D
:1029A00004F01FE5D5B5F30304F01FE539A7F303E1
:1029B00004F01FE50923F10304F01FE52312F203DD
:1029C00004F01FE5BF69F20304F01FE54134F10391
:1029D00004F01FE58169F20304F01FE5E111F20341
:1029E00004F01FE5E5BCF20304F01FE5293CF10308
:1029F00004F01FE59F69F20304F01FE52731F1039E
:102A000004F01FE5258BF10304F01FE5558CF1035D
:102A100004F01FE501C4F10304F01FE51B0FF203EE
:102A200004F01FE547DEF10304F01FE5170FF20382
:102A300004F01FE5210FF20304F01FE5FB0EF20383
:102A400004F01FE563BCF10304F01FE54341F1030B
:102A500004F01FE5E913F30304F01FE50D69F1032A
:102A600004F01FE5699DF20304F01FE5759AF20377
:102A700004F01FE5D97AF20304F01FE52582F20382
:102A800004F01FE5BD7FF20304F01FE53911F203E6
:102A900004F01FE5DDA5F20304F01FE53195F20314
:102AA00004F01FE50B0FF20304F01FE5110FF20312
:102AB00004F01FE5FD1BF30304F01FE5CD5FF103F8
:102AC00004F01FE58F84F00304F01FE50F6DF2039F
:102AD00004F01FE53B97F30304F01FE54B8EF3036F
:102AE00004F01FE5EF9CF00304F01FE5C933F10388
:102AF00004F01FE5FD36F10304F01FE5FDF3F103DB
:102B000004F01FE5711BF20304F01FE51919F1032E
:102B100004F01FE56581F10304F01FE5251CF203B5
:102B200004F01FE5C546F20304F01FE5C971F20386
:102B300004F01FE54D11F20304F01FE5259DF2039B
:102B400004F01FE5A571F20304F01FE56E08948CF4
:102B500001000000AC2900A0000200006646E870F9
:102B6000A3A2F20304F01FE5E583F20304F01FE5DE
:102B7000398EF20304F01FE5578BF20304F01FE5D2
:102B800025C6F30304F01FE5B5B7F30304F01FE512
:102B9000A9A1F30304F01FE52380F30304F01FE56C
:102BA00011EFF10304F01FE5EDA3F00304F01FE5BE
:102BB000EF9FF00304F01FE58D9AF00304F01FE58A
:102BC0009D9AF00304F01FE5639AF00304F01FE5FB
:102BD000EB88F00304F01FE58513F40304F01FE510
:102BE0008D9BF00304F01FE53C39F40304F01FE56E
:102BF000350FF40304F01FE57B11F40304F01FE527
:102C0000556BF00304F01FE5CB74F00304F01FE5EF
:102C10006B74F00304F01FE55D11F40304F01FE58D
:102C2000E10EF40304F01FE56D6BF00304F01FE503
:102C3000EB74F00304F01FE5736FF00304F01FE57D
:102C4000A76EF00304F01FE5690EF40304F01FE51E
:102C5000190FF40304F01FE5FF0EF40304F01FE561
:102C60005B75F00304F01FE5ED75F20304F01FE55A
:102C70004780F00304F01FE5EF96F00304F01FE532
:102C80006575F00304F01FE5C83AF40304F01FE58E
:102C9000B742F40304F01FE55542F40304F01FE5C6
:102CA0007543F20304F01FE5F582F10304F01FE51C
:102CB000DF15F20304F01FE5EDA6F00304F01FE5B5
:102CC000D999F00304F01FE5FBDEF30304F01FE5E0
:102CD00075DFF30304F01FE5BDB5F20304F01FE553
:102CE0000F9AF00304F01FE5319AF00304F01FE59A
:102CF000BD7EF00304F01FE5CF9AF00304F01FE55A
:102D0000B79CF00304F01FE5BB9EF00304F01FE541
:102D1000C19DF00304F01FE56B9DF00304F01FE577
:102D2000459EF00304F01FE5019BF00304F01FE54E
:102D30002B9CF00304F01FE51B99F00304F01FE542
:102D40009398F00304F01FE50D4AF00304F01FE52B
:102D5000AD35F00304F01FE5F5B5F203263E4E93C2
:102D600001000000A82B00A00002000092AE56CD8A
:102D700004F01FE56571F20304F01FE56770F203CC
:102D800004F01FE5296DF20304F01FE55F92F203E2
:102D900004F01FE58186F00304F01FE54987F00386
:102DA00004F01FE54733F20304F01FE5F947F00391
:102DB00004F01FE5DD79F00304F01FE56179F0030D
:102DC00004F01FE50D79F00304F01FE5FF78F00330
:102DD00004F01FE53394F00304F01FE5A98FF0031E
:102DE00004F01FE5BF92F00304F01FE5D58FF00358
:102DF00004F01FE58995F00304F01FE5A817F00320
:102E000004F01FE5B70EF40370B5040008000025B8
:102E1000E20704D0FFF734EB12491148086012486A
:102E20000078012819D1200702D500F01FF805000D
:102E3000600602D5FFF728EB0500200602D5FFF754
:102E400028EB0500A00502D500F06AF80500600730
:102E5000800F02D0FFF720EB0500280070BD0000B6
:102E6000E949010064B700046CB000047FB525484F
:102E70000078002843D1FFF714EB00222248D24308
:102E80000021FFF712EB214E1F223060018952030F
:102E900008181F49000C009008681E4D90430F222F
:102EA0005203801808600A00A8692521FFF700EB8B
:102EB000686925216A46FFF7FCEA154AA8692621B8
:102EC000FFF7F6EA144A68692621FFF7F2EA134C85
:102ED000E080306800892081FFF7EEEA60814004DD
:102EE000000C0021A0812180618031680A89019055
:102EF00051180391A8692C2101AAFFF7DAEA0020F2
:102F000004B070BD88B000041C0800B078B00004A4
:102F1000500000B0AC0000B05C0000B0B00100B0E8
:102F2000FEB50024334E344D2721686901AAFFF70E
:102F3000C0EA0198641CC00701D0B442F4D32F4CFE
:102F40002F4E2088002822D130680027002803D087
:102F50002C490968884737602B48FFF7B2EA0028F8
:102F600030600FD001890A182849521E2C4E59078B
:102F700001000000A42D00A0000200008B5688BDB7
:102F800089788A1812781207120F22806780E780EA
:102F900000894018A0800DE022490868401C0860A4
:102FA00008E068692D216A46FFF78CEAE0880099FD
:102FB0004018E080E1891C480429218902D16289F6
:102FC0008918FFE7026811812188002913D0016860
:102FD00032680A60A088E288052380183268108170
:102FE00068690122FFF77AEA6088401C60802088C7
:102FF000401E208005E00068018908186189FFF7FC
:1030000072EA0020FEBD0000FFFF0000AC0000B02F
:10301000B00100B07CB0000484B000043C0000B0FB
:10302000680000B090B0000478B0000470B50400EF
:103030001A4D0020E20708D06868002802D1194A1A
:10304000174810600800FFF752EA1749097801296C
:103050001AD1210704D515480078002815D0002082
:10306000610604D5124900200860FFF744EA2106F2
:1030700001D5FFF744EAE10501D500F071F86107D9
:10308000890F01D0FFF73EEA70BDFFF740EA68689C
:103090000028E4D100F00EF8E1E70000AC0000B039
:1030A000E949010064B700046CB0000488B0000472
:1030B000A00900B07FB50022D24300212048FFF7CD
:1030C000FEE9204E204D30600189204A0818000C8E
:1030D0000090E8682521FFF7F6E9286925216A466E
:1030E000FFF7F0E9194AE8682621FFF7ECE9184AEA
:1030F00028692621FFF7E6E9164CE0803068008950
:103100002081FFF7E4E960814004000C0121A081E7
:1031100021800021618031680A8901905118039152
:10312000E8682C2101AAFFF7CEE90B48E188008866
:10313000FFF774E90949C870002004B070BD0000B1
:103140001C0800B074B00004AC0000B0500000B027
:103150005C0000B0A00100B06EB00004680000B0D8
:10316000F8B50024534D5448272100696A46FFF7FB
:10317000AAE90098641CC00701D0AC429285ED62B8
:1031800001000000A02F00A0000200007FBE36005A
:10319000F3D34F4D4F4E6888F1784F4F4F4C8842D4
:1031A0004BD12368242018816888E988B278484385
:1031B000310080189880B078F21C80180278F3787B
:1031C00012091B0712011B0F1A430270B07832005C
:1031D000093A80188278C37812021A43521C130AE3
:1031E0008370C2703A68130E0371130C4371130A93
:1031F0008371C2712268081D9288121F8A71226829
:103200009288121F1212CA7122689388083B0B72AF
:103210009388083B1B124371108980188A78091D16
:10322000FFF782E921682E488A8800681123FFF79A
:1032300060E900206880206002E02068002819D141
:103240002848FFF776E9042814D800222548D243FD
:103250000021FFF73EE911212060C18020300221CA
:10326000C17021682420088100206880B078243053
:10327000A88003E01C490868401C086020680028FA
:103280001AD01A49096808606888EA885043AA88F1
:10329000801822681081E8890428288902D16A8967
:1032A0008018FFE708810948012200690423FFF71D
:1032B00020E96888401C68800020E8813868401C4C
:1032C00038600020F8BD0000FFFF0000AC0000B037
:1032D000A00100B0680000B0A00900B080B00004F8
:1032E000600000041C0800B08CB0000474B000043E
:1032F000002070470549012010B5087008F044FE11
:1033000000F034F8FFF718E910BD00005400000485
:10331000704710B50BF06AFB10BD70B50500FFF7E4
:1033200010E9002803D1FFF710E9002801D001249B
:1033300000E00024002D02D0FFF70AE900E00020A1
:10334000204370BD042008B5FFF706E9002800906F
:1033500006D004490160044801686846FFF700E9A7
:1033600008BD0000EF1300005058F403F8B52148E1
:103370004569681C3DD01020FFF7EEE8002800905A
:1033800037D01D49002402C0FF220A21A0AB53A55B
:10339000010000009C3100A00002000001A591B0D6
:1033A000FFF75CE824E0E80720D0601E0D281DD858
:1033B000A0000019083800D5002001001A314F295B
:1033C00003DD4F210E2C00D03520009A091A121D62
:1033D00041188C4608E04607C108760F0127535C68
:1033E000B740BB43401C53548445F4D86D08641C5B
:1033F000002DD8D10098001D00F00CF80448016899
:103400006846FFF7B8E8F8BD540000040114000056
:103410005058F403020003480A21012310B500F0BC
:1034200003F810BD89FC0000FFB581B006000D0057
:103430003C292CD82F0009373806000EFFF79EE8EC
:10344000040024D02089164900190160002101716F
:1034500014492A00096841711149C7800830783938
:103460000160868085710399C01DFFF768E80E48EA
:103470000022006821000123FFF744E80498002897
:1034800003D100210120FFF77EE805B0F0BDB305B0
:1034900012219B0DB20A0420FFF778E8F5E700003F
:1034A0000A1400005058F403E80A00B0034810B5AD
:1034B000006800224B21FFF71AE810BDE80A00B0AF
:1034C00070B5064C258800F035F8054A2088138829
:1034D000411BC918401A1180208070BD04AA000445
:1034E00006AA00040449054A49781278012091424D
:1034F00000D0002070470000000002A9000002A9CF
:10350000030000208B4201DA401E70479342FCDD2D
:103510000120704710B580242000641C2404240C72
:1035200000F008F8BF2CF7D901480421017010BD44
:103530003E0B00B0F8B5002406008038104B11494E
:103540000004000C1A5C0D880F4F52190A801C549D
:1035500011E0A0003D58A8880005000DB04207D139
:103560001C3D2000FFF716E82800FFF718E802E0EE
:10357000641C2406240E054800788442E9D3F8BD73
:10358000506A000404AA0004906A0004F8A9000428
:1035900010B5C178827809020A43243834BF9822D2
:1035A00001000000983300A000020000F54D2F0D2F
:1035B0001C21431801810849C16103211971074980
:1035C00009685971111D41840100054804230068F0
:1035D000FEF7A2EF10BD00000B1400004C58F403DE
:1035E000E80A00B00A4930B40978002903D0094933
:1035F0000988002903D00849096830BC0847074AF0
:10360000074C11788B00491CE050117030BC70479A
:10361000F7A9000404AA00040CAA0004F8A90004F5
:10362000906A000470B50B00C288052918D1818802
:10363000104C121D247809051204090D120C002CDF
:1036400011D00C00803C3F2C0DD80B4C25886D1EF2
:1036500025800A4C611880390C78641C0C7002E0DB
:10366000121F1204120C010005481C390068FEF7F5
:1036700054EF70BDF7A9000404AA0004506A0004C6
:1036800064000004FEB56B4614000700080600162F
:103690001970062605005A7015F026FA6B46010AC5
:1036A0009870D970010C1971000E587104492300EB
:1036B0000D70310038006A46FFF7C0FEFEBD000005
:1036C0003E0B00B070B5060010781400E02886B0FC
:1036D00004D120000CF0D0F8050000E011250021F5
:1036E000481EFEF76AEF2279E178A07803AB07C3A2
:1036F0003300627821780191FF21029221310E205E
:1037000002A20095FEF75CEF06B070BD52686262DF
:10371000626262620000000007484178002909D116
:1037200006490968012209024270090F0200283285
:10373000515C817080787047C40600B00020008022
:103740007D23DB00584310B511F09AFB10BD0368D0
:103750008B43134303607047006870477047012034
:10376000704710B50C00FEF7A4EE002103C410BD95
:1037700070471000802A10B502D1FEF79AEE10BDF6
:10378000FEF79AEE10BD10B511F07AFB10BD016086
:103790007047000003488168012292041143816050
:1037A00070470000009000A8F8B50124AF360EB4B1
:1037B00001000000943500A000020000ECB5F17D8E
:1037C00000253D4FB888009072E03C49E000411868
:1037D00008784E78420660D503003F3BFEF7FEEEC8
:1037E0000A6B1E1E06130A0D1C181C1F641C2404E1
:1037F000240C5DE088783861F8E78878C978090298
:1038000001437981F2E72E482022FEF7ACEE03E077
:1038100088787870C878B870301947E0891C4928D2
:103820001CD07F281AD04888000B01D0088815E0EA
:1038300008780200AF3A072A01D9BF280ED10A7AC8
:10384000D303034310091B0400011B0C000218439F
:10385000B22803D1497A0907090D0843184A002103
:1038600020320BE006234B43D35A834203D16D1E13
:103870002D062D0E04E0491C0906090EA942F1D3BC
:103880000623594350528818448046713019040465
:103890006D1C240C2D062D0E0AE0022801D189781A
:1038A00039700121002800D0310008190404240CCB
:1038B0000098844289D3F8BD001B00C0401D00C0A1
:1038C000402700C010B504001248134A016812686E
:1038D0000120904700281AD00122102C06D20F4850
:1038E0008168A24011438160006907E00B484030C5
:1038F000416A103CA24011434162C06AE04008495D
:10390000C4070968E40F01208847200010BDFF208C
:1039100010BD000088A9000490A9000400020090D6
:1039200094A900040749401E8A78074942438878D1
:1039300049781018401829300006000E442800D39A
:1039400043207047E4A90004EA0B00B0F8B50C006E
:10395000002706001500401E00971528177034D860
:103960001C20FEF718EE002800902CD018490160AA
:1039700021780172C90747721CD0012E1AD9072E6F
:1039800013D36179102910D8A278617812021143FB
:1039900081802279E17812021143C18062794272FA
:1039A000A11D0A30FEF7DEED04E012202870684603
:1039B000FEF718EE2878002804D106484D16DB994A
:1039C00001000000903700A000020000185D4FC009
:1039D00001686846FEF7ECEDF8BD072000E0122014
:1039E0002870F8BD0E1400004C58F403F0B5060022
:1039F0000C001F00002585B001F042FB002804D018
:103A0000012816D0022814D10C25032E03D1A17849
:103A100060782A0002E0152200212800029101901E
:103A20000392227800920021FF205B2304A2FEF77C
:103A3000DCED002038700A98057005B0F0BD00007C
:103A40005662626262620000F3B50C0081B0344FCE
:103A50007878002804D02079FF2801D015F012F8DA
:103A600021793048FF29017109D17878002804D0E4
:103A700015F008F8012014F039FF0020FEBD217870
:103A8000017061784170A1788170E178C17021790D
:103A9000017161794171A1798171E179C171217AF5
:103AA00001720091657A4572E17AA67A09020E43A5
:103AB0004681217B0173019912290CD3A27B617B82
:103AC00012021143E27B237C12041B061A431143AA
:103AD0000161617C02E0002101610421017511484E
:103AE000019915301C2905D321000A221231FEF755
:103AF00044ED03E0FF220A21FEF7CEEC002E07D0B2
:103B000009496800085A864202D800980E2801D94F
:103B10001220FEBDE806C00FB87014F07FFFACE7BE
:103B2000F80B00B0509700B03C5BF403FEB53823AF
:103B30004343554C8E7A1C19CB7A4D7A1B021E4397
:103B40000B7A2D022B430193A37C257C042B01D3FC
:103B5000002D79D10B795700022B05D0032B36D0DD
:103B6000062B7FD1002058E07D2201005201012068
:103B700001F03AFA002102206174009001980825B2
:103B8000112805D0132803D019286DD101250095DF
:103B9000207C002804D138212000FEF766EC0FE0DD
:103BA00000208100625A002A05D10919498800299C
:103BB00001D1E07404E0401C0006000E0428F0D39C
:103BC000E07C81000819C65325740098991129FFDB
:103BD000010000008C3900A000020000DF444D9D70
:103BE00049E0E07C800003190120002A00D0002079
:103BF0004000185AB0423FD10220012D03D10122CA
:103C00002074627404E0082D02D1092323746074C7
:103C1000087B002805D1487B002802D1A07C401CED
:103C2000A074E07C019982001019C15324E0810046
:103C30000B19D95BB14212D10121002A00D0002119
:103C40004900595A019B994209D182001119002259
:103C50000A804A80A17C491EA17405E016E0401C40
:103C60000006000E0428E2D3002805D1082D05D057
:103C7000092D03D020746074002D08D0207C00280A
:103C800005D10CF0A5F900200CF0AEF9FEBD607C6A
:103C90000128FBD10CF09CF9FEBD0000F01A0004D5
:103CA0001CB500200B490190009004000870200012
:103CB0006A4601A900F064F8002801D000F04EF82F
:103CC000641C2404240C082CF1D3009901980CF0F6
:103CD00097F91CBD98000004F1B500998A884E7BC5
:103CE0001005000D05000B2822D2920B00D00020F9
:103CF000164AC3009C182279002A19D0E5808A88C8
:103D00008968120B002300F071FC002E02D160794B
:103D1000401C60710E480078012805D00D480168EC
:103D20006846FEF750ECF8BD0098FEF774ECF8BD5D
:103D300088680949096888476846FEF768EC002EDC
:103D4000F5D10121280007F0F1FEF8BDF869000463
:103D5000F4A90004B85BF403C8B30004064810B526
:103D60000178002907D1012101707D20034900223B
:103D7000C000FEF754EC10BD98000004F3130000DF
:103D8000F8B50D00002100913821160041431A4A70
:103D90008C18002113F0F8F900282AD0207DC11CCE
:103DA0008A07411C8000001983698907920F890FD7
:103DB000002B0AD1876A002F07D192001219976948
:103DC000002F02D1926A002A01D001220092002D18
:103DD00008D0002E06D02A68D2182A60E52FEB52B0
:103DE00001000000883B00A0000200002BACF32083
:103DF0003268806A101830600022880000198261E1
:103E00008262627521750098F8BD0000F01A000406
:103E100038B504000089011900910A7A052A0CD0EE
:103E2000082A01D0142A0CD1C87A097B0902084358
:103E3000002100F0ABF8002803D06846FEF7F0EB55
:103E400038BD07490868002802D10C6038BD080059
:103E500001680029FBD104600020206038BD00000B
:103E6000C00700B070B504000E00002009F04AFD44
:103E70000500FF2C17D0112C01D1092100E00821E9
:103E8000220028000AF020F900280CD00748002161
:103E90000470467081700121C1700021280009F072
:103EA000E3FB002070BD012070BD0000C40700B01E
:103EB0000FB410B50A486B46197B01715A7B002A72
:103EC00009D0198901805989418003A94271891C4F
:103ED000801DFEF766EB10BC08BC04B0184700005C
:103EE000C80700B070B5124D286800281ED0280001
:103EF00008300079C00719D00E4E2968C8880C68B0
:103F0000022805D12520425C3068921C022308E07B
:103F10000889052340188278C0780002024330687F
:103F2000121DFEF722EB002C2C60E6D170BD0000C4
:103F3000C00700B06400000470B50500074CE078CD
:103F4000002809D0002D06D16078FF2803D1207801
:103F5000012112F087FCA57070BD0000C40700B0FD
:103F600038B504000820FEF734EB0028009007D095
:103F7000044901600471044801686846FEF72CEBAF
:103F800038BD0000101400004C58F403F7B582B09F
:103F9000050000272F480468260053E0E1882089A7
:103FA00002292FD1049A0019002A01900BD0037B1B
:103FB000C27A1B021A43037A0498834240D1954285
:103FC0003ED1012729E0027A032A06D01B2A0AD112
:103FD000827AC07A0002024302E0C27A007BF9E7EB
:103FE00095422DD119E0122A0AD0202A5B79EEC120
:103FF00001000000843D00A00002000032542D505A
:1040000028D10A3003990622FDF728FF002821D184
:10401000E1880AE00B30F5E70019027840780002E9
:1040200002431005000DA84214D1002912D00E4BF6
:1040300020001A689442226801D11A6000E03260C0
:104040002468022903D101A8FEF7F4EA04E013F082
:10405000FBFA01E026002468002C01D0002FA7D035
:10406000380005B0F0BD0000C00700B070B5104CBE
:10407000A07800281AD02078FF2817D0002112F04D
:10408000FBFB6078FF2811D009F03AFF05002800FB
:1040900009F086FF61787D23DB0059438842F6D919
:1040A0002078012112F0E8FB0020A07070BD000014
:1040B000C40700B038B50C00032812D10820FEF761
:1040C00092EA09490090016021780171A278617833
:1040D00012021143C180054801686846FEF786EA6E
:1040E00038BD1220107038BDFD0C0000B45BF40325
:1040F00038B50C0002280FD10820FEF774EA0849F1
:104100000090016021780171617841710548016872
:104110006846FEF76CEA38BD1220107038BD00000A
:10412000F40C0000B45BF4033EB50C000C2810D175
:104130000422210002A8FEF73EEA0822211D68465B
:10414000FEF738EA02A800F027FE684600F03CFEC1
:104150003EBD122010703EBD12230128137004D101
:10416000087802490870002010707047F60900B006
:1041700010B50400FEF76AEA0A21614308186038A6
:10418000C07C012800D0002010BD000038B50C0014
:104190000D78497809020D43290080393F2907D855
:1041A0002200104B01001C680D480F4BA04738BD82
:1041B0000820FEF718EAFF217E310090016085801B
:1041C000A1788171A078290000F0B0FE074801684D
:1041D0006846FEF70CEA29000120FEF720EA38BD08
:1041E00075FC000024AB00043C6B0004B45BF403DA
:1041F00084461000F8B5382362465A43E8E9618BDB
:1042000001000000803F00A000020000C6BC93ED4A
:104210001A4BD4188A78C97809020A43217C0129EB
:1042200007D0022905D0082901D0092903D102238A
:1042300002E0012300E000230121002800D000213A
:104240004E00A15B914206D1012B637402D1012083
:104250000BF0DCFEF8BD01218D002D19AD5B954200
:1042600006D1012B6374F5D161460AF023FFF8BD36
:10427000491C0906090E0429EED3F8BDF01A000402
:10428000F0B5482085B0FEF7B8E9394902900968D1
:104290001522C01DFEF798E902980025817D467D14
:1042A0000902027E0E43C17D120211430191417E3B
:1042B0000091C17E877E09020F433F21C41D817199
:1042C0000520A073E57325746574A574E0742575E5
:1042D0006575A5753C20E57520766576A076E57652
:1042E0007D2025776077A577E5772034257060708D
:1042F000A5700020E57000F089FC20716571A57142
:10430000E5710020257200F081FC6072A572E572F3
:10431000257308206573A073E57320746574019993
:104320000806800F039000F07FFCA074039800F053
:104330007BFCE074257501206575A075E075102083
:1043400020766076300AA676E076380A277760779E
:104350000099A1770298074A817911700449C01D1C
:104360000860FEF782E902A8FEF76EE905B0F0BD2D
:10437000B0AA000470AA0004F0B5442085B0FEF78E
:104380003CE93949029009681122C01DFEF71CE979
:1043900002980025817C467C0902027D0E43C17C87
:1043A000120211430191417D0091C17D877D090277
:1043B0000F433B21C41D81710520A072E572257356
:1043C0006573A573E07325746574A5743C20E5746A
:1043D00020756575A075E5757D2025766076A576D6
:1043E000E57625776077A5770020E57700F00EFC6D
:1043F000203420706570A570E5700020257100F0F4
:1044000005FC6071A571E57125720820365F745155
:10441000010000007C4100A00002000023EBCEEA76
:104420006572A072E5722073657301990806800FAA
:10443000039000F003FCA073039800F0FFFBE0730F
:10444000257401206574A074E074102020756075D7
:10445000300AA675E075380A277660760099A1764D
:104460000298074A817911700449C01D0860FEF75F
:104470000AE902A8FEF7F2E805B0F0BDB0AA000410
:1044800070AA000410B50400FEF7F4E800210A2227
:104490004A4312185279002A03D00A000832A24275
:1044A00004D1491C0904090C0329F0D3083108047C
:1044B000000C10BDF8B500240600154F25000021A2
:1044C000280012F089FE00281AD0002E03D1641CA7
:1044D0002406240E14E0012E08D138206843C019A8
:1044E000007C0128F3D00228F1D009E0022E07D188
:1044F00038206843C019007C0828E8D00928E6D095
:104500006D1C2D042D0C082DD9D32000F8BD000002
:10451000F01A0004002010B5FFF7CCFF10BD00001A
:1045200070B50125134C060063782A00002B00D0DB
:104530000022A0782900002800D000218A4203D15F
:10454000802B01D0607070BD002804D1002E02D1F4
:104550002178002902D100F07BF970BDE0780028B5
:10456000FBD100220120044900031300E570FEF78F
:104570008EE870BD540000040414000038B5040037
:104580000820FEF744E80028009007D004490160A5
:104590000471044801686846FEF73CE838BD000035
:1045A000031400004C58F40310B50400FEF772E841
:1045B000FE20002C00D10120FFF7E0FF10BD00001D
:1045C00001000839022904D803494000085C012889
:1045D00000D00020704700006E71000410B5040088
:1045E000FEF748E80A21614308186038407D00283A
:1045F00000D0012010BD00007CB504000820FEF7AB
:1046000006E80C4900900160002584800A4E8571FF
:1046100031686846FDF7FEEF0820FDF72F6D48AFC3
:1046200001000000784300A000020000D70370578B
:10463000F8EF05490190491C01608480857131685B
:1046400001A8FDF7F2EF7CBD9E1300004C58F40367
:10465000FFB581B0060008284FD23823734328489D
:104660000D781C184878CB780002054388781B0227
:104670009207677C1843920F012A3ED0012806D08A
:1046800000206074049A3000FFF7D0FD03E0049A24
:104690003000FFF787FA607C320029000AF0FEFC48
:1046A00004980028207D05D080000019816A4919EE
:1046B000816204E080000019816949198161FFF776
:1046C0007FFB607CB84218D0012801D1012700E0AF
:1046D00000270125022800D0002531003800FDF711
:1046E000E8EF3100280000F059FC3100380002F0FA
:1046F00025FB607C31000AF0EFFC05B0F0BD000046
:10470000F01A000438B54A780C78120214432200DB
:10471000803A3F2A07D80E4B0A0001001C680B485C
:104720000023A04738BD0820FDF77AEFFF217C3138
:10473000009001608480074801686846FDF774EFC7
:1047400021000120FDF788EF38BD000074FC000057
:1047500024AB0004B45BF40370B5040008281CD239
:10476000002211002000FFF73DFBFFF7DDFE0028CF
:104770000CD10A4D2878002808D009480021FDF7FF
:104780009CEF0020010028700BF06CFC3820604387
:10479000044940183821FDF7A4EE70BD98000004CC
:1047A000F3130000F01A000471B581B0019A274E8E
:1047B000908894680B2839D2254983001B18591812
:1047C0008B78002B32D0FF23F73300921360009ACE
:1047D0002389D3800A79521C0A711E49097801295C
:1047E00005D01D4801686846FDF71EEF1BE02189D2
:1047F0001C230D1958431949401819494079096873
:104800008847009AA978D180AA78E91CFDF7F0EED4
:104810000098FDF756EF2000FDF71AEF30690022EF
:104820001421FDF7BEEE002001907CBD2A9C29D406
:1048300001000000744500A000020000CEFBAE277E
:104840002000FDF710EF306900221421FDF7B2EED1
:1048500001980028F3D001A8FDF714EF7CBD0000FB
:1048600054000004C06A0004F4A90004B85BF40317
:1048700010820004D8B3000438B5040008F0C2FF69
:104880000820FDF7D8EE08490090002C016001D007
:10489000002100E0012101710448447004480168CE
:1048A0006846FDF7CCEE38BDCE0C00005400000485
:1048B000C05BF40338B50C000D78497809020D434C
:1048C000290080393F2907D822000F4B01001C68BE
:1048D0000C480E4BA04738BD0820FDF7ACEEFF2179
:1048E0008031009001608580A1788171E178C1718B
:1048F000074801686846FDF7A2EE29000120FDF790
:10490000B6EE38BDE9FC000024AB00043C6B0004AB
:10491000B45BF403026801231104090C9B07491CD2
:104920001A4011430A009A43082A01D359401940FA
:1049300001607047FEB5184C184E00221648D2434D
:10494000009201220321283801ABFDF7C8EE01983F
:104950000028F2D00128F0D1FDF746FC104D0700E9
:1049600011E070680C230004000C584340190AD071
:104970000278052A05D291006158002901D0002A49
:1049800000D121688847706831688842E9D13800D1
:10499000FDF72EFCD1E7000068AA00B0801300C02C
:1049A000881300C001000348002210B5FDF79AEEFD
:1049B00010BD000040AA00B00A4870B5002200688F
:1049C0000D21FDF7F8ED09F05FFB074D2C6804E0C1
:1049D0006068002800D080472468002CF8D109F0D6
:1049E0004BFBF3E75C000004840700B0134810B5EC
:1049F00001680800FF306130C28803231B039A431B
:104A0000C280C28801231B031A43C2801622CA84B3
:104A10000B4ACA8701884022114301800948007867
:104A2000012802D1002011F04FFB074948680A0C09
:104A30009043486011F014FC10BD000062AF3537A0
:104A400001000000704700A0000200003A13109A15
:104A500000AF000440800000EA0B00B0402300805B
:104A6000F7B51300140415003E4E0700240C3668F9
:104A7000010082B0039A30A0B04703993800FDF7D7
:104A800050ED002955D10398854234DD0399280063
:104A9000FDF736EE681A334E04043268240C210008
:104AA00031A0904723E003992000FDF73AED00295B
:104AB00019D1002F3DD02B4E009736682B00039A5A
:104AC000210033A0B047BC4205D939002000FDF7D2
:104AD00028ED00292DD0BC4205D821003800FDF773
:104AE00020ED002925D00398201A0404240C0398F3
:104AF0008442D8D21DE01B4A00261268290034A047
:104B0000904710E0174B019A1B6839003AA098476C
:104B100001993800FDF704ED002901D1019C08E05E
:104B2000B61C3604360CA81B0004000C06280190A5
:104B3000E8D2200005B0F0BD756954736E696666F1
:104B40002025642C207569546573636F2025642CBF
:104B500020756954617267657454736E6966662066
:104B600025640A00D8A900044361736520313A2006
:104B7000496E697469616C2075694E65775461721C
:104B800067657454736E696666203D2025640A006B
:104B900075694E657754617267657454736E6966A2
:104BA00066202564207569546573636F2025642031
:104BB000756954617267657454736E696666202501
:104BC0006420756954736E6966662025640A000066
:104BD0004361736520323A20496E697469616C20C3
:104BE000756954617267657454736E696666203DB9
:104BF0002025640A000000004361736520323A20DA
:104C0000756954736E6966662025642075446976FB
:104C100069736F72202564203D2025640A0000001E
:104C2000F8B506000F00FDF770ED05000C20FDF74C
:104C30000CED8821714300904D19E91D062280C0BA
:104C4000FDF7EAEC0099287D88720348E42D100FE7
:104C5000010000006C4900A000020000FD0A12C71C
:104C600001686846FDF7FEECF8BD000070AC00047A
:104C7000002807D0012803D0022805D0032800D03F
:104C8000002070470220704701207047002807D09D
:104C9000012807D0022807D0032807D10420704735
:104CA00001207047022070470320704700207047A2
:104CB000FEB5FDF738ED05008007800FFFF7D8FF40
:104CC0000D490C4E0190096830008847012801D039
:104CD000012400E0002409497D270968BF01300054
:104CE0008847074B009021001C683A0001982B0070
:104CF000A047FEBDFFFF000028B5000424B5000456
:104D000034B5000438B504002AD016481C23408866
:104D10001549584340180079A04221D11348007822
:104D200000281DD012490120C874FDF700ED11497B
:104D3000600009684018018D022211430185FDF7CA
:104D4000FAECD1252D0121002800FDF7F8EC0A48E6
:104D5000290002680092220004200023FDF7F2ECF3
:104D600038BD0000E0AC0004108200044CAF000429
:104D7000E00900B0B0AE0004C05BF4031C2358434C
:104D8000134910B540180079124C002809D1E17E72
:104D90001148FDF7DCEC1048E17F0838FDF7D6EC50
:104DA00010BD0D48617F001FFDF7D0EC0320FDF71B
:104DB000D2EC0028F4D1094800680188490849006C
:104DC000018007480068018849084900018010BD3A
:104DD000108200044083000404AD0004ACAE000463
:104DE00098AE0004F8B505000E001700FDF796EC2C
:104DF000882169430C182034A07C012806D13A0090
:104E000031002800FDF7AAEC0020A074F8BD0000D6
:104E100001784278C907D206C90F920E11438278F1
:104E2000C078D207D20DC0061143800C014303485D
:104E30000068FF30FF30801CC183704700AF000462
:104E40000178CA074178D20FC906890E0A438178D2
:104E5000C906490D0A43C178C9020A43D8499FA12E
:104E600001000000684B00A00002000009E2AC7ADB
:104E70000A490B681121490159180A8002794379BE
:104E8000D207DB06D20F9B0E1A438379C079DB066B
:104E90005B0D1A43C00202434A80704700AF000412
:104EA000024948810249088070470000EA0B00B0BF
:104EB00098AD00040849C97900290BD00749FF22A1
:104EC0000968521C40310028888801D0104300E056
:104ED000904388807047000040660004E0AE000404
:104EE00010B50400FDF748EC74216143425C002AD0
:104EF00006D0081840300079032801D1012010BDE8
:104F0000002010BD10B504000020FDF73AECFF2191
:104F1000193161430818817C002901D00D2905D180
:104F200040300078002803D0092801D0012010BDAE
:104F3000002010BD042008B5FDF79AEB044900904D
:104F40000160044801686846FDF796EB08BD000063
:104F5000A40F00003058F40370B505000C00FDF7F5
:104F6000BCEB0A226A4301211218603A51750A22E9
:104F7000624310186038417570BD000070B50400C0
:104F80000C4E008A01252A00B1788240114203D0DC
:104F9000FDF7FAEB607600E06576208A29007278EA
:104FA00081402B000A4203D0FDF7F2EB207670BD62
:104FB000237670BD10A400040122054B8A40597D60
:104FC000002802D00A435A757047914359757047BB
:104FD000E00900B010B5FDF762EA2021081A0004CC
:104FE000000C02D0401E0004000C10BD10B50C00D7
:104FF000002814D02000FDF7D0EB00280FD01C2093
:105000006043074940180079002808D10548005D31
:10501000002804D1012212212000FDF7C2EB10BDAF
:105020001082000498AF0004F7B505000E00008A56
:105030001C214143164A174B89188C780121DA7FCD
:1050400081408A430027DA77FDF7AEEB124A110060
:105050008539002814D0105D0B5D984210D11000E6
:10506000A1000B3040580299301A8842C6F5212120
:1050700001000000644D00A000020000101A720A36
:105080000ED9298A0127380088400749CA7F104372
:10509000C87705E0085D10550448A1000B30465064
:1050A0003800FEBD10820004E00900B05D9100B040
:1050B0000100034810B54078FDF784EB10BD0000F7
:1050C000000A00B070B5160001228A408C00094920
:1050D000074D4B78002805D01A434A70FDF776EB50
:1050E000801902E0934300204B70285170BD0000EE
:1050F000E49000B0000A00B030B50122054D064B27
:10510000285C9C688240002901D0144300E094434D
:105110009C6030BDA0AF000450A0000401228A4072
:10512000044900280B7802D01A430A707047934351
:105130000B707047000A00B00978074A012907D0B0
:10514000022905D0032901D1012801D00020704790
:105150000120117070470000B40700B018B500249A
:105160000878F12807D0F22805D10320009001200B
:105170006946FFF7E1FF200018BD0000F8B5050003
:105180000600104F0C0038781C3E002808D00E484E
:105190000079C00709D0022008F070FF002804D071
:1051A0003000F480FEF78EFEF8BDFEF7AFFFFEF78D
:1051B000F3FE6A7A3869921C23003100FDF72EEA6B
:1051C000F8BD000054000004C80700B0F8B5150091
:1051D00006000A4C302021781A004843084B069FED
:1051E000C018491C3060217000922B003A00611CED
:1051F000FDF7F0EA0006000EF8BD000070000004A4
:10520000888D00B00C49002010B508700B4841692A
:1052100000290FD101214161002000F0B5F80028DC
:1052200001D100F053FA00F0A1F8002000F07CF862
:10523000FEF73CFB10BD0000402700C0001B00C073
:10524000002310B51A00837004E0845CE3181B0689
:105250001B0E521C8A42F8D30121C91A817010BD5D
:10526000FFB5FF2100240500491C204881B0FDF74F
:105270006AE91E4A2868082110600420A48718A53E
:1052800001000000604F00A000020000E4F2CCB773
:1052900029E02B5CE340A41C9B0724069B0F240EF3
:1052A000082C03D1401C00240006000E032B12D151
:1052B0002B5C002C04D1401C0006000E53540FE060
:1052C000401CE3400006000E082753542E5C3F1B91
:1052D000BE401E4303E0FF26022B00D01E005654A2
:1052E000491C0906090E029B9842D2D3049801700A
:1052F0000398026004980078508005B0F0BD00006B
:10530000401B00C00B4910B508887022104308806C
:10531000094B002005240A881A400A800A88224383
:105320000A80401C3C28F6DB08882F22D24310401C
:10533000088010BD24060090F0FF0000F8B50400BE
:105340000D4D0E4F13E0A001060000F027F80028D5
:105350000AD0300000F088F92A89D300DB1903C392
:10536000601C521CE8802A81641C2404240CA88838
:105370008442E8D3F8BD0000001B00C0401D00C0FF
:105380000249FF204030888070470000001B00C0A9
:105390000148408970470000001B00C010B50400A0
:1053A000FCF782F80021200000F00EF80548008884
:1053B000800701D5012400E00024FCF79BF82000C1
:1053C00010BD0000180600900C4A1369984209D0DD
:1053D00010610B4B0204920D1A80094A8006800E60
:1053E0002032108008010649401C0C310880044915
:1053F000091D08880004FCD570470000201B00C070
:105400001C060090F8B5144D2888702108432880A8
:10541000124F002426003B20021B11493800FCF7E4
:1054200028EDC007C00F3100001871418100014311
:1054300028880F22D243104008432880288805215D
:1054400008432880641C3C2CE5DB28882F21C943B5
:1054500008402880F8BD000024060090C61A6BACF6
:10546000B1C61A0BFFB5C3B0684600F093F8002828
:105470002DD06B465C884498844228D800256E461F
:1054800005E07059FDF7B4E943994851970F749EB0
:10549000010000005C5100A0000200009AE96B07C7
:1054A0002D1DA542F7D345982018FDF7ACE9439987
:1054B000486043982100FFF7D7FE3848002762E094
:1054C00009065DD53549449B40184088C1003448E1
:1054D000081881880A0B0E05360DA11999424192D0
:1054E00002D9012047B0F0BD002A02D1801C4290B1
:1054F0000EE02C4B92003106D218090E801C403A67
:10550000D56B40AA41ABA847409840AB42901E796A
:10551000006880218843FDF776E943990425085106
:1055200009E04299A80880000858FDF76CE9439A01
:1055300061192D1D5050B542F3D318497D1C02E06E
:10554000000607D46D1C202D04D206206843085C99
:105550000028F5D10020C043202D07D006226A4341
:10556000895C002902D04598A1190818FDF74AE97D
:1055700001004398001941603100FFF775FEA4193E
:105580007F1C202F05D206207843044A115C002995
:1055900096D1469804800020A4E70000602700C050
:1055A000401D00C0181B00C07CB504000020184A34
:1055B000002C2AD024E00D291FD106235843154979
:1055C00080184088C00040188288110B01D1811CCE
:1055D0000EE01106104B120B9200D218090E801C1F
:1055E000403AD56B6A4601ABA8476B461A790099D9
:1055F0002000FDF744E801207CBD401C202804DA8F
:1056000006214143515C0029D5D100207CBD00001A
:10561000602700C0401D00C0181B00C070B5060008
:105620000D0000F00DF80C00FDF7ECE80004000C94
:1056300030602000FDF7E6E82860012070BD000022
:105640000C4A00200DE07F2908D1062358430A495F
:1056500080184088C000411803C97047401C2028AA
:1056600004DA06214143515C0029ECD10020C043FB
:1056700001007047602700C0401D00C0002110B528
:1056800000F002F810BD0000F8B5002406000F007D
:105690002500FBF713FF39003000FFF7D00E1893F9
:1056A00001000000585300A0000200006E01D5BAAE
:1056B0009FFE0E48C068002812D10D480488E217EA
:1056C000001D0388DD17001D0188001D00881E0CC9
:1056D0002D04354315431B040D4300041C430543AF
:1056E000FBF71CFF20002900F8BD0000201B00C0B4
:1056F00008060090024803490068086370470000EC
:10570000201B00C00021008010B50400FBF7E0FE64
:105710002000FFF757FEFFF789FE02212000FFF768
:1057200067FEFFF703FEFBF7F9FE10BD0A4810B550
:10573000006B0A4908600AF08BFC0A490848088097
:105740000948091D0880091D0888072252031040D6
:10575000064A1043088010BD00210080201B00C0B5
:10576000809800002C0600903F4900003F0900008F
:10577000F8B504681748218AC07EFDF742E8442145
:10578000095D052925D1002823D0208A1249085C0B
:1057900003281ED1114D14236878114E58430B274E
:1057A0008019FF01C019016A200001F0CBFBA87825
:1057B000142358438019C019016A200001F0C2FB6C
:1057C0002879142358438019C019016A200001F078
:1057D000B9FBF8BDD0A0000498AF0004A0AF00044E
:1057E0005099000470B500210648FCF7DAEF064D29
:1057F00004480024210012306C74FCF7D2EF2C76A0
:1058000070BD0000C30B0000C0AC0004FFB585B044
:105810000898016800200500009039480391028033
:10582000039941600A206843364946187088440845
:10583000F079002858D1307A022855D106992000F5
:10584000FCF7AAEE002905D006982100FCF7A4EE8B
:10585000002949D106982700844200D3069F069963
:1058600020008C4200D806980490280011300004D3
:10587000000CFCF7D6EF0499FCF77EEF04980C18A7
:10588000B188601E0818029004990398FCF774EF21
:1058900004980E1800E0F619A642FCDB00E0F61BA7
:1058A000A642FCDC0598029A3018401E38EEC488E7
:1058B00001000000545500A00002000077F90BCA57
:1058C000019021003000FDF7CFFE0700029A0198F9
:1058D0002100FDF7C9FE002F01D087420ED0022023
:1058E000A64200D0012000900198011B0398401AA5
:1058F000401E039008998001800908606D1C009883
:105900002D042D0C002801D1022D95D3009809B04B
:10591000F0BD000064B00004A4A4000410B5074C5E
:1059200001232478044200D00023180004D0044B43
:105930001C880C805968116010BD00004CB0000438
:1059400064B00004010000220348D243083110B5BE
:10595000FCF77CEE10BD0000F87300B010B5040039
:1059600000681C38FCF7CEEE0020206010BD00005F
:105970000100044810B5006800220123FCF776EE10
:1059800010BD0000E80A00B0F8B50400FCF756EFBF
:105990000021C9430091C088A04215D00B4D0C4E88
:1059A0000024EC72B07F01280ED109482030007825
:1059B000002809D1074AB06B1268001D694690475C
:1059C000012801D1B477E872F8BD0000E00900B009
:1059D00040AC000460B2000410B50400FCF7DAEE3D
:1059E000074A0649126892881206520F03D088218E
:1059F00061430918C91DC87810BD000026AD000418
:105A0000A0AE000410B50400084804702000FCF7A4
:105A10001AEF2000FCF71AEF00F012FF3F220021DE
:105A200004204823FCF766EE10BD000065AA0004C0
:105A30000EB5074B02894168D87801910292009017
:105A400025211B8889014E2002A2FCF764EE0EBDC1
:105A5000847100046862776800000000074810B590
:105A60000088074942000A71C009487103220021D9
:105A700006208023FCF73EEE10BD00003EAD000482
:105A8000586B0004074810B50088074942000A71A6
:105A9000C00948710322002106207E23FCF72AEE6C
:105AA00010BD00003CAD0004586B0004084810B560
:105AB000006803220178407881230002647A2EC4B2
:105AC00001000000505700A0000200008311B577CC
:105AD000014348080449088000210420FCF714EE23
